{
  "contractName": "GatewayManager",
  "abi": [
    {
      "inputs": [],
      "payable": true,
      "stateMutability": "payable",
      "type": "constructor",
      "signature": "constructor"
    },
    {
      "constant": true,
      "inputs": [
        {
          "name": "_addr",
          "type": "address"
        }
      ],
      "name": "getAdminInfo",
      "outputs": [
        {
          "name": "name",
          "type": "string"
        }
      ],
      "payable": false,
      "stateMutability": "view",
      "type": "function",
      "signature": "0x722b0376"
    },
    {
      "constant": true,
      "inputs": [
        {
          "name": "_addr",
          "type": "address"
        }
      ],
      "name": "getGatewayInfo",
      "outputs": [
        {
          "name": "name",
          "type": "string"
        },
        {
          "name": "gatewayEUI",
          "type": "string"
        }
      ],
      "payable": false,
      "stateMutability": "view",
      "type": "function",
      "signature": "0xf10a680a"
    },
    {
      "constant": true,
      "inputs": [
        {
          "name": "_addr",
          "type": "address"
        }
      ],
      "name": "getNodeInfo",
      "outputs": [
        {
          "name": "name",
          "type": "string"
        },
        {
          "name": "devEUI",
          "type": "string"
        },
        {
          "name": "gatewayAddr",
          "type": "address"
        }
      ],
      "payable": false,
      "stateMutability": "view",
      "type": "function",
      "signature": "0x582115fb"
    },
    {
      "constant": true,
      "inputs": [
        {
          "name": "_addr",
          "type": "address"
        }
      ],
      "name": "isAdmin",
      "outputs": [
        {
          "name": "",
          "type": "bool"
        }
      ],
      "payable": false,
      "stateMutability": "view",
      "type": "function",
      "signature": "0x24d7806c"
    },
    {
      "constant": true,
      "inputs": [
        {
          "name": "_addr",
          "type": "address"
        }
      ],
      "name": "isGateway",
      "outputs": [
        {
          "name": "",
          "type": "bool"
        }
      ],
      "payable": false,
      "stateMutability": "view",
      "type": "function",
      "signature": "0xbfe69d9a"
    },
    {
      "constant": true,
      "inputs": [
        {
          "name": "_addr",
          "type": "address"
        }
      ],
      "name": "isNode",
      "outputs": [
        {
          "name": "",
          "type": "bool"
        }
      ],
      "payable": false,
      "stateMutability": "view",
      "type": "function",
      "signature": "0x01750152"
    },
    {
      "constant": true,
      "inputs": [
        {
          "name": "_nodeAddr",
          "type": "address"
        }
      ],
      "name": "getAssociatedGateway",
      "outputs": [
        {
          "name": "",
          "type": "address"
        }
      ],
      "payable": false,
      "stateMutability": "view",
      "type": "function",
      "signature": "0x9303e23d"
    },
    {
      "constant": true,
      "inputs": [
        {
          "name": "_gatewayAddr",
          "type": "address"
        }
      ],
      "name": "getAssociatedNodes",
      "outputs": [
        {
          "name": "",
          "type": "address[]"
        }
      ],
      "payable": false,
      "stateMutability": "view",
      "type": "function",
      "signature": "0x442aa164"
    },
    {
      "constant": true,
      "inputs": [],
      "name": "getAllGatewayAddresses",
      "outputs": [
        {
          "name": "",
          "type": "address[]"
        }
      ],
      "payable": false,
      "stateMutability": "view",
      "type": "function",
      "signature": "0x863a2a01"
    },
    {
      "constant": true,
      "inputs": [],
      "name": "getAllNodeAddresses",
      "outputs": [
        {
          "name": "",
          "type": "address[]"
        }
      ],
      "payable": false,
      "stateMutability": "view",
      "type": "function",
      "signature": "0xc8fe3a01"
    },
    {
      "constant": true,
      "inputs": [
        {
          "name": "_addr",
          "type": "address"
        }
      ],
      "name": "getNodeLocationHistory",
      "outputs": [
        {
          "name": "packedData",
          "type": "string"
        }
      ],
      "payable": false,
      "stateMutability": "view",
      "type": "function",
      "signature": "0x9ca691b7"
    },
    {
      "constant": true,
      "inputs": [
        {
          "name": "_devEUI",
          "type": "string"
        }
      ],
      "name": "findNodeAddress",
      "outputs": [
        {
          "name": "",
          "type": "address"
        }
      ],
      "payable": false,
      "stateMutability": "view",
      "type": "function",
      "signature": "0xe013b1d5"
    },
    {
      "constant": false,
      "inputs": [
        {
          "name": "_name",
          "type": "string"
        },
        {
          "name": "_addr",
          "type": "address"
        }
      ],
      "name": "addAdmin",
      "outputs": [],
      "payable": false,
      "stateMutability": "nonpayable",
      "type": "function",
      "signature": "0x0831b05f"
    },
    {
      "constant": false,
      "inputs": [
        {
          "name": "_name",
          "type": "string"
        },
        {
          "name": "_gatewayEUI",
          "type": "string"
        },
        {
          "name": "_addr",
          "type": "address"
        }
      ],
      "name": "registerGateway",
      "outputs": [],
      "payable": false,
      "stateMutability": "nonpayable",
      "type": "function",
      "signature": "0x9617cc41"
    },
    {
      "constant": false,
      "inputs": [
        {
          "name": "_nodeAddr",
          "type": "address"
        },
        {
          "name": "_devEUI",
          "type": "string"
        },
        {
          "name": "_id",
          "type": "string"
        },
        {
          "name": "_gatewayAddr",
          "type": "address"
        }
      ],
      "name": "registerNode",
      "outputs": [],
      "payable": false,
      "stateMutability": "nonpayable",
      "type": "function",
      "signature": "0xc76e15fd"
    },
    {
      "constant": false,
      "inputs": [
        {
          "name": "_addr",
          "type": "address"
        }
      ],
      "name": "removeAdmin",
      "outputs": [],
      "payable": false,
      "stateMutability": "nonpayable",
      "type": "function",
      "signature": "0x1785f53c"
    },
    {
      "constant": false,
      "inputs": [
        {
          "name": "_addr",
          "type": "address"
        }
      ],
      "name": "removeGateway",
      "outputs": [],
      "payable": false,
      "stateMutability": "nonpayable",
      "type": "function",
      "signature": "0x8a885e35"
    },
    {
      "constant": false,
      "inputs": [
        {
          "name": "_nodeAddr",
          "type": "address"
        }
      ],
      "name": "removeNode",
      "outputs": [],
      "payable": false,
      "stateMutability": "nonpayable",
      "type": "function",
      "signature": "0xb2b99ec9"
    },
    {
      "constant": false,
      "inputs": [
        {
          "name": "devEUI",
          "type": "string"
        },
        {
          "name": "timestamp",
          "type": "string"
        },
        {
          "name": "latitude",
          "type": "string"
        },
        {
          "name": "longitude",
          "type": "string"
        },
        {
          "name": "altitude",
          "type": "string"
        },
        {
          "name": "batteryLevel",
          "type": "string"
        }
      ],
      "name": "setNodeLocationData",
      "outputs": [],
      "payable": false,
      "stateMutability": "nonpayable",
      "type": "function",
      "signature": "0x7f0e46d6"
    },
    {
      "constant": true,
      "inputs": [
        {
          "name": "_a",
          "type": "string"
        },
        {
          "name": "_b",
          "type": "string"
        },
        {
          "name": "_c",
          "type": "string"
        },
        {
          "name": "_d",
          "type": "string"
        },
        {
          "name": "_e",
          "type": "string"
        }
      ],
      "name": "strConcat",
      "outputs": [
        {
          "name": "",
          "type": "string"
        }
      ],
      "payable": false,
      "stateMutability": "pure",
      "type": "function",
      "signature": "0x95978868"
    },
    {
      "constant": true,
      "inputs": [
        {
          "name": "a",
          "type": "string"
        },
        {
          "name": "b",
          "type": "string"
        }
      ],
      "name": "compareStrings",
      "outputs": [
        {
          "name": "",
          "type": "bool"
        }
      ],
      "payable": false,
      "stateMutability": "pure",
      "type": "function",
      "signature": "0xbed34bba"
    }
  ],
  "bytecode": "0x6080604052336000806101000a81548173ffffffffffffffffffffffffffffffffffffffff021916908373ffffffffffffffffffffffffffffffffffffffff16021790555061597d806100536000396000f3fe60806040526004361061011d576000357c0100000000000000000000000000000000000000000000000000000000900463ffffffff16806301750152146101225780630831b05f1461018b5780631785f53c1461027357806324d7806c146102c4578063442aa1641461032d578063582115fb146103d3578063722b03761461053c5780637f0e46d614610606578063863a2a01146109c15780638a885e3514610a2d5780639303e23d14610a7e5780639597886814610b0f5780639617cc4114610eac5780639ca691b71461102b578063b2b99ec9146110f5578063bed34bba14611146578063bfe69d9a146112bd578063c76e15fd14611326578063c8fe3a01146114c5578063e013b1d514611531578063f10a680a14611639575b600080fd5b34801561012e57600080fd5b506101716004803603602081101561014557600080fd5b81019080803573ffffffffffffffffffffffffffffffffffffffff16906020019092919050505061176f565b604051808215151515815260200191505060405180910390f35b34801561019757600080fd5b50610271600480360360408110156101ae57600080fd5b81019080803590602001906401000000008111156101cb57600080fd5b8201836020820111156101dd57600080fd5b803590602001918460018302840111640100000000831117156101ff57600080fd5b91908080601f016020809104026020016040519081016040528093929190818152602001838380828437600081840152601f19601f820116905080830192505050505050509192919290803573ffffffffffffffffffffffffffffffffffffffff1690602001909291905050506117c8565b005b34801561027f57600080fd5b506102c26004803603602081101561029657600080fd5b81019080803573ffffffffffffffffffffffffffffffffffffffff169060200190929190505050611c93565b005b3480156102d057600080fd5b50610313600480360360208110156102e757600080fd5b81019080803573ffffffffffffffffffffffffffffffffffffffff169060200190929190505050612130565b604051808215151515815260200191505060405180910390f35b34801561033957600080fd5b5061037c6004803603602081101561035057600080fd5b81019080803573ffffffffffffffffffffffffffffffffffffffff169060200190929190505050612189565b6040518080602001828103825283818151815260200191508051906020019060200280838360005b838110156103bf5780820151818401526020810190506103a4565b505050509050019250505060405180910390f35b3480156103df57600080fd5b50610422600480360360208110156103f657600080fd5b81019080803573ffffffffffffffffffffffffffffffffffffffff169060200190929190505050612322565b6040518080602001806020018473ffffffffffffffffffffffffffffffffffffffff1673ffffffffffffffffffffffffffffffffffffffff168152602001838103835286818151815260200191508051906020019080838360005b8381101561049857808201518184015260208101905061047d565b50505050905090810190601f1680156104c55780820380516001836020036101000a031916815260200191505b50838103825285818151815260200191508051906020019080838360005b838110156104fe5780820151818401526020810190506104e3565b50505050905090810190601f16801561052b5780820380516001836020036101000a031916815260200191505b509550505050505060405180910390f35b34801561054857600080fd5b5061058b6004803603602081101561055f57600080fd5b81019080803573ffffffffffffffffffffffffffffffffffffffff169060200190929190505050612707565b6040518080602001828103825283818151815260200191508051906020019080838360005b838110156105cb5780820151818401526020810190506105b0565b50505050905090810190601f1680156105f85780820380516001836020036101000a031916815260200191505b509250505060405180910390f35b34801561061257600080fd5b506109bf600480360360c081101561062957600080fd5b810190808035906020019064010000000081111561064657600080fd5b82018360208201111561065857600080fd5b8035906020019184600183028401116401000000008311171561067a57600080fd5b91908080601f016020809104026020016040519081016040528093929190818152602001838380828437600081840152601f19601f820116905080830192505050505050509192919290803590602001906401000000008111156106dd57600080fd5b8201836020820111156106ef57600080fd5b8035906020019184600183028401116401000000008311171561071157600080fd5b91908080601f016020809104026020016040519081016040528093929190818152602001838380828437600081840152601f19601f8201169050808301925050505050505091929192908035906020019064010000000081111561077457600080fd5b82018360208201111561078657600080fd5b803590602001918460018302840111640100000000831117156107a857600080fd5b91908080601f016020809104026020016040519081016040528093929190818152602001838380828437600081840152601f19601f8201169050808301925050505050505091929192908035906020019064010000000081111561080b57600080fd5b82018360208201111561081d57600080fd5b8035906020019184600183028401116401000000008311171561083f57600080fd5b91908080601f016020809104026020016040519081016040528093929190818152602001838380828437600081840152601f19601f820116905080830192505050505050509192919290803590602001906401000000008111156108a257600080fd5b8201836020820111156108b457600080fd5b803590602001918460018302840111640100000000831117156108d657600080fd5b91908080601f016020809104026020016040519081016040528093929190818152602001838380828437600081840152601f19601f8201169050808301925050505050505091929192908035906020019064010000000081111561093957600080fd5b82018360208201111561094b57600080fd5b8035906020019184600183028401116401000000008311171561096d57600080fd5b91908080601f016020809104026020016040519081016040528093929190818152602001838380828437600081840152601f19601f8201169050808301925050505050505091929192905050506128ec565b005b3480156109cd57600080fd5b506109d6612bb5565b6040518080602001828103825283818151815260200191508051906020019060200280838360005b83811015610a195780820151818401526020810190506109fe565b505050509050019250505060405180910390f35b348015610a3957600080fd5b50610a7c60048036036020811015610a5057600080fd5b81019080803573ffffffffffffffffffffffffffffffffffffffff169060200190929190505050612c43565b005b348015610a8a57600080fd5b50610acd60048036036020811015610aa157600080fd5b81019080803573ffffffffffffffffffffffffffffffffffffffff1690602001909291905050506131f2565b604051808273ffffffffffffffffffffffffffffffffffffffff1673ffffffffffffffffffffffffffffffffffffffff16815260200191505060405180910390f35b348015610b1b57600080fd5b50610e31600480360360a0811015610b3257600080fd5b8101908080359060200190640100000000811115610b4f57600080fd5b820183602082011115610b6157600080fd5b80359060200191846001830284011164010000000083111715610b8357600080fd5b91908080601f016020809104026020016040519081016040528093929190818152602001838380828437600081840152601f19601f82011690508083019250505050505050919291929080359060200190640100000000811115610be657600080fd5b820183602082011115610bf857600080fd5b80359060200191846001830284011164010000000083111715610c1a57600080fd5b91908080601f016020809104026020016040519081016040528093929190818152602001838380828437600081840152601f19601f82011690508083019250505050505050919291929080359060200190640100000000811115610c7d57600080fd5b820183602082011115610c8f57600080fd5b80359060200191846001830284011164010000000083111715610cb157600080fd5b91908080601f016020809104026020016040519081016040528093929190818152602001838380828437600081840152601f19601f82011690508083019250505050505050919291929080359060200190640100000000811115610d1457600080fd5b820183602082011115610d2657600080fd5b80359060200191846001830284011164010000000083111715610d4857600080fd5b91908080601f016020809104026020016040519081016040528093929190818152602001838380828437600081840152601f19601f82011690508083019250505050505050919291929080359060200190640100000000811115610dab57600080fd5b820183602082011115610dbd57600080fd5b80359060200191846001830284011164010000000083111715610ddf57600080fd5b91908080601f016020809104026020016040519081016040528093929190818152602001838380828437600081840152601f19601f82011690508083019250505050505050919291929050505061325b565b6040518080602001828103825283818151815260200191508051906020019080838360005b83811015610e71578082015181840152602081019050610e56565b50505050905090810190601f168015610e9e5780820380516001836020036101000a031916815260200191505b509250505060405180910390f35b348015610eb857600080fd5b5061102960048036036060811015610ecf57600080fd5b8101908080359060200190640100000000811115610eec57600080fd5b820183602082011115610efe57600080fd5b80359060200191846001830284011164010000000083111715610f2057600080fd5b91908080601f016020809104026020016040519081016040528093929190818152602001838380828437600081840152601f19601f82011690508083019250505050505050919291929080359060200190640100000000811115610f8357600080fd5b820183602082011115610f9557600080fd5b80359060200191846001830284011164010000000083111715610fb757600080fd5b91908080601f016020809104026020016040519081016040528093929190818152602001838380828437600081840152601f19601f820116905080830192505050505050509192919290803573ffffffffffffffffffffffffffffffffffffffff16906020019092919050505061367a565b005b34801561103757600080fd5b5061107a6004803603602081101561104e57600080fd5b81019080803573ffffffffffffffffffffffffffffffffffffffff169060200190929190505050613bbd565b6040518080602001828103825283818151815260200191508051906020019080838360005b838110156110ba57808201518184015260208101905061109f565b50505050905090810190601f1680156110e75780820380516001836020036101000a031916815260200191505b509250505060405180910390f35b34801561110157600080fd5b506111446004803603602081101561111857600080fd5b81019080803573ffffffffffffffffffffffffffffffffffffffff169060200190929190505050613df6565b005b34801561115257600080fd5b506112a36004803603604081101561116957600080fd5b810190808035906020019064010000000081111561118657600080fd5b82018360208201111561119857600080fd5b803590602001918460018302840111640100000000831117156111ba57600080fd5b91908080601f016020809104026020016040519081016040528093929190818152602001838380828437600081840152601f19601f8201169050808301925050505050505091929192908035906020019064010000000081111561121d57600080fd5b82018360208201111561122f57600080fd5b8035906020019184600183028401116401000000008311171561125157600080fd5b91908080601f016020809104026020016040519081016040528093929190818152602001838380828437600081840152601f19601f8201169050808301925050505050505091929192905050506145f2565b604051808215151515815260200191505060405180910390f35b3480156112c957600080fd5b5061130c600480360360208110156112e057600080fd5b81019080803573ffffffffffffffffffffffffffffffffffffffff169060200190929190505050614619565b604051808215151515815260200191505060405180910390f35b34801561133257600080fd5b506114c36004803603608081101561134957600080fd5b81019080803573ffffffffffffffffffffffffffffffffffffffff1690602001909291908035906020019064010000000081111561138657600080fd5b82018360208201111561139857600080fd5b803590602001918460018302840111640100000000831117156113ba57600080fd5b91908080601f016020809104026020016040519081016040528093929190818152602001838380828437600081840152601f19601f8201169050808301925050505050505091929192908035906020019064010000000081111561141d57600080fd5b82018360208201111561142f57600080fd5b8035906020019184600183028401116401000000008311171561145157600080fd5b91908080601f016020809104026020016040519081016040528093929190818152602001838380828437600081840152601f19601f820116905080830192505050505050509192919290803573ffffffffffffffffffffffffffffffffffffffff169060200190929190505050614672565b005b3480156114d157600080fd5b506114da614da8565b6040518080602001828103825283818151815260200191508051906020019060200280838360005b8381101561151d578082015181840152602081019050611502565b505050509050019250505060405180910390f35b34801561153d57600080fd5b506115f76004803603602081101561155457600080fd5b810190808035906020019064010000000081111561157157600080fd5b82018360208201111561158357600080fd5b803590602001918460018302840111640100000000831117156115a557600080fd5b91908080601f016020809104026020016040519081016040528093929190818152602001838380828437600081840152601f19601f820116905080830192505050505050509192919290505050614e36565b604051808273ffffffffffffffffffffffffffffffffffffffff1673ffffffffffffffffffffffffffffffffffffffff16815260200191505060405180910390f35b34801561164557600080fd5b506116886004803603602081101561165c57600080fd5b81019080803573ffffffffffffffffffffffffffffffffffffffff1690602001909291905050506151f7565b604051808060200180602001838103835285818151815260200191508051906020019080838360005b838110156116cc5780820151818401526020810190506116b1565b50505050905090810190601f1680156116f95780820380516001836020036101000a031916815260200191505b50838103825284818151815260200191508051906020019080838360005b83811015611732578082015181840152602081019050611717565b50505050905090810190601f16801561175f5780820380516001836020036101000a031916815260200191505b5094505050505060405180910390f35b6000600360008373ffffffffffffffffffffffffffffffffffffffff1673ffffffffffffffffffffffffffffffffffffffff16815260200190815260200160002060030160009054906101000a900460ff169050919050565b6000809054906101000a900473ffffffffffffffffffffffffffffffffffffffff1673ffffffffffffffffffffffffffffffffffffffff163373ffffffffffffffffffffffffffffffffffffffff161480611828575061182733612130565b5b15156118c2576040517f08c379a000000000000000000000000000000000000000000000000000000000815260040180806020018281038252602c8152602001807f4f6e6c792061646d696e206163636f756e74732063616e20706572666f726d2081526020017f7468697320616374696f6e2e000000000000000000000000000000000000000081525060400191505060405180910390fd5b806000806118cf8361551b565b9150915060608215611b8257600060048111156118e857fe5b8260048111156118f457fe5b1415611937576040805190810160405280600581526020017f6f776e65720000000000000000000000000000000000000000000000000000008152509050611a4a565b6001600481111561194457fe5b82600481111561195057fe5b1415611993576040805190810160405280600581526020017f61646d696e0000000000000000000000000000000000000000000000000000008152509050611a49565b600260048111156119a057fe5b8260048111156119ac57fe5b14156119ef576040805190810160405280600781526020017f67617465776179000000000000000000000000000000000000000000000000008152509050611a48565b600360048111156119fc57fe5b826004811115611a0857fe5b1415611a47576040805190810160405280600481526020017f6e6f64650000000000000000000000000000000000000000000000000000000081525090505b5b5b5b611ae16040805190810160405280601c81526020017f4163636f756e7420616c72656164792061737369676e65642061732000000000815250826040805190810160405280600181526020017f2e000000000000000000000000000000000000000000000000000000000000008152506020604051908101604052806000815250602060405190810160405280600081525061325b565b6040517f08c379a00000000000000000000000000000000000000000000000000000000081526004018080602001828103825283818151815260200191508051906020019080838360005b83811015611b47578082015181840152602081019050611b2c565b50505050905090810190601f168015611b745780820380516001836020036101000a031916815260200191505b509250505060405180910390fd5b611b8a6155ed565b604080519081016040528088815260200160011515815250905060058690806001815401808255809150509060018203906000526020600020016000909192909190916101000a81548173ffffffffffffffffffffffffffffffffffffffff021916908373ffffffffffffffffffffffffffffffffffffffff1602179055505080600260008873ffffffffffffffffffffffffffffffffffffffff1673ffffffffffffffffffffffffffffffffffffffff1681526020019081526020016000206000820151816000019080519060200190611c66929190615609565b5060208201518160010160006101000a81548160ff02191690831515021790555090505050505050505050565b6000809054906101000a900473ffffffffffffffffffffffffffffffffffffffff1673ffffffffffffffffffffffffffffffffffffffff163373ffffffffffffffffffffffffffffffffffffffff161480611cf35750611cf233612130565b5b1515611d8d576040517f08c379a000000000000000000000000000000000000000000000000000000000815260040180806020018281038252602c8152602001807f4f6e6c792061646d696e206163636f756e74732063616e20706572666f726d2081526020017f7468697320616374696f6e2e000000000000000000000000000000000000000081525060400191505060405180910390fd5b611d9681612130565b1515611e56576040517f08c379a00000000000000000000000000000000000000000000000000000000081526004018080602001828103825260428152602001807f54686520676976656e20616464726573732069736e277420616e2061646d696e81526020017f206163636f756e74206f722061646d696e20616c72656164792072656d6f766581526020017f642e00000000000000000000000000000000000000000000000000000000000081525060600191505060405180910390fd5b611e5e6155ed565b600260008373ffffffffffffffffffffffffffffffffffffffff1673ffffffffffffffffffffffffffffffffffffffff168152602001908152602001600020604080519081016040529081600082018054600181600116156101000203166002900480601f016020809104026020016040519081016040528092919081815260200182805460018160011615610100020316600290048015611f415780601f10611f1657610100808354040283529160200191611f41565b820191906000526020600020905b815481529060010190602001808311611f2457829003601f168201915b505050505081526020016001820160009054906101000a900460ff1615151515815250509050600081602001901515908115158152505060058290806001815401808255809150509060018203906000526020600020016000909192909190916101000a81548173ffffffffffffffffffffffffffffffffffffffff021916908373ffffffffffffffffffffffffffffffffffffffff1602179055505060008090505b6005805490508110156121125760008373ffffffffffffffffffffffffffffffffffffffff1660058381548110151561201957fe5b9060005260206000200160009054906101000a900473ffffffffffffffffffffffffffffffffffffffff1673ffffffffffffffffffffffffffffffffffffffff16141561206857819050612106565b808211156121055760056001830381548110151561208257fe5b9060005260206000200160009054906101000a900473ffffffffffffffffffffffffffffffffffffffff166005838154811015156120bc57fe5b9060005260206000200160006101000a81548173ffffffffffffffffffffffffffffffffffffffff021916908373ffffffffffffffffffffffffffffffffffffffff1602179055505b5b50600181019050611fe4565b50600160058181805490500391508161212b9190615689565b505050565b6000600260008373ffffffffffffffffffffffffffffffffffffffff1673ffffffffffffffffffffffffffffffffffffffff16815260200190815260200160002060010160009054906101000a900460ff169050919050565b606061219482614619565b1515612254576040517f08c379a000000000000000000000000000000000000000000000000000000000815260040180806020018281038252604b8152602001807f4164647265737320676976656e206973206e6f7420612067617465776179206181526020017f646472657373206f72207468652067617465776179206973206e6f742079657481526020017f207265676973746572656400000000000000000000000000000000000000000081525060600191505060405180910390fd5b600160008373ffffffffffffffffffffffffffffffffffffffff1673ffffffffffffffffffffffffffffffffffffffff16815260200190815260200160002060020180548060200260200160405190810160405280929190818152602001828054801561231657602002820191906000526020600020905b8160009054906101000a900473ffffffffffffffffffffffffffffffffffffffff1673ffffffffffffffffffffffffffffffffffffffff16815260200190600101908083116122cc575b50505050509050919050565b606080600061232f6156b5565b600360008673ffffffffffffffffffffffffffffffffffffffff1673ffffffffffffffffffffffffffffffffffffffff16815260200190815260200160002060806040519081016040529081600082018054600181600116156101000203166002900480601f0160208091040260200160405190810160405280929190818152602001828054600181600116156101000203166002900480156124135780601f106123e857610100808354040283529160200191612413565b820191906000526020600020905b8154815290600101906020018083116123f657829003601f168201915b50505050508152602001600182018054600181600116156101000203166002900480601f0160208091040260200160405190810160405280929190818152602001828054600181600116156101000203166002900480156124b55780601f1061248a576101008083540402835291602001916124b5565b820191906000526020600020905b81548152906001019060200180831161249857829003601f168201915b5050505050815260200160028201805480602002602001604051908101604052809291908181526020016000905b8282101561259f578382906000526020600020018054600181600116156101000203166002900480601f01602080910402602001604051908101604052809291908181526020018280546001816001161561010002031660029004801561258b5780601f106125605761010080835404028352916020019161258b565b820191906000526020600020905b81548152906001019060200180831161256e57829003601f168201915b5050505050815260200190600101906124e3565b5050505081526020016003820160009054906101000a900460ff161515151581525050905080606001511515612689576040517f08c379a00000000000000000000000000000000000000000000000000000000081526004018080602001828103825260458152602001807f54686520676976656e2061646472657373206973206e6f742061206e6f64652081526020017f61646472657373206f72206e6f6465206973206e6f742079657420726567697381526020017f746572656400000000000000000000000000000000000000000000000000000081525060600191505060405180910390fd5b80600001518160200151600460008873ffffffffffffffffffffffffffffffffffffffff1673ffffffffffffffffffffffffffffffffffffffff16815260200190815260200160002060009054906101000a900473ffffffffffffffffffffffffffffffffffffffff16829250819150935093509350509193909250565b60606127116155ed565b600260008473ffffffffffffffffffffffffffffffffffffffff1673ffffffffffffffffffffffffffffffffffffffff168152602001908152602001600020604080519081016040529081600082018054600181600116156101000203166002900480601f0160208091040260200160405190810160405280929190818152602001828054600181600116156101000203166002900480156127f45780601f106127c9576101008083540402835291602001916127f4565b820191906000526020600020905b8154815290600101906020018083116127d757829003601f168201915b505050505081526020016001820160009054906101000a900460ff1615151515815250509050806020015115156128df576040517f08c379a000000000000000000000000000000000000000000000000000000000815260040180806020018281038252604a8152602001807f54686520676976656e2061646472657373206973206e6f7420616e2061646d6981526020017f6e2061646472657373206f72206163636f756e74206973206e6f74207965742081526020017f617574686f72697a65640000000000000000000000000000000000000000000081525060600191505060405180910390fd5b8060000151915050919050565b6128f533614619565b151561298f576040517f08c379a000000000000000000000000000000000000000000000000000000000815260040180806020018281038252602e8152602001807f4f6e6c792067617465776179206163636f756e74732063616e20706572666f7281526020017f6d207468697320616374696f6e2e00000000000000000000000000000000000081525060400191505060405180910390fd5b600061299a87614e36565b90506060612a4a6040805190810160405280600181526020017f2800000000000000000000000000000000000000000000000000000000000000815250876040805190810160405280600281526020017f2c20000000000000000000000000000000000000000000000000000000000000815250886040805190810160405280600281526020017f2c2000000000000000000000000000000000000000000000000000000000000081525061325b565b9050612aae81856040805190810160405280600181526020017f29000000000000000000000000000000000000000000000000000000000000008152506020604051908101604052806000815250602060405190810160405280600081525061325b565b90506060612b29886040805190810160405280600281526020017f2c20000000000000000000000000000000000000000000000000000000000000815250846040805190810160405280600181526020017f2c000000000000000000000000000000000000000000000000000000000000008152508861325b565b9050600360008473ffffffffffffffffffffffffffffffffffffffff1673ffffffffffffffffffffffffffffffffffffffff168152602001908152602001600020600201819080600181540180825580915050906001820390600052602060002001600090919290919091509080519060200190612ba89291906156e0565b5050505050505050505050565b60606006805480602002602001604051908101604052809291908181526020018280548015612c3957602002820191906000526020600020905b8160009054906101000a900473ffffffffffffffffffffffffffffffffffffffff1673ffffffffffffffffffffffffffffffffffffffff1681526020019060010190808311612bef575b5050505050905090565b6000809054906101000a900473ffffffffffffffffffffffffffffffffffffffff1673ffffffffffffffffffffffffffffffffffffffff163373ffffffffffffffffffffffffffffffffffffffff161480612ca35750612ca233612130565b5b1515612d3d576040517f08c379a000000000000000000000000000000000000000000000000000000000815260040180806020018281038252602c8152602001807f4f6e6c792061646d696e206163636f756e74732063616e20706572666f726d2081526020017f7468697320616374696f6e2e000000000000000000000000000000000000000081525060400191505060405180910390fd5b600160008273ffffffffffffffffffffffffffffffffffffffff1673ffffffffffffffffffffffffffffffffffffffff16815260200190815260200160002060030160009054906101000a900460ff161515612e4d576040517f08c379a00000000000000000000000000000000000000000000000000000000081526004018080602001828103825260478152602001807f54686520676976656e20616464726573732069736e277420612067617465776181526020017f792061646472657373206f72206761746577617920697320616c72656164792081526020017f72656d6f7665640000000000000000000000000000000000000000000000000081525060600191505060405180910390fd5b612e55615760565b600160008373ffffffffffffffffffffffffffffffffffffffff1673ffffffffffffffffffffffffffffffffffffffff16815260200190815260200160002060806040519081016040529081600082018054600181600116156101000203166002900480601f016020809104026020016040519081016040528092919081815260200182805460018160011615610100020316600290048015612f395780601f10612f0e57610100808354040283529160200191612f39565b820191906000526020600020905b815481529060010190602001808311612f1c57829003601f168201915b50505050508152602001600182018054600181600116156101000203166002900480601f016020809104026020016040519081016040528092919081815260200182805460018160011615610100020316600290048015612fdb5780601f10612fb057610100808354040283529160200191612fdb565b820191906000526020600020905b815481529060010190602001808311612fbe57829003601f168201915b505050505081526020016002820180548060200260200160405190810160405280929190818152602001828054801561306957602002820191906000526020600020905b8160009054906101000a900473ffffffffffffffffffffffffffffffffffffffff1673ffffffffffffffffffffffffffffffffffffffff168152602001906001019080831161301f575b505050505081526020016003820160009054906101000a900460ff1615151515815250509050600081606001901515908115158152505060008090505b6006805490508110156131d45760008373ffffffffffffffffffffffffffffffffffffffff166006838154811015156130db57fe5b9060005260206000200160009054906101000a900473ffffffffffffffffffffffffffffffffffffffff1673ffffffffffffffffffffffffffffffffffffffff16141561312a578190506131c8565b808211156131c75760066001830381548110151561314457fe5b9060005260206000200160009054906101000a900473ffffffffffffffffffffffffffffffffffffffff1660068381548110151561317e57fe5b9060005260206000200160006101000a81548173ffffffffffffffffffffffffffffffffffffffff021916908373ffffffffffffffffffffffffffffffffffffffff1602179055505b5b506001810190506130a6565b5060016006818180549050039150816131ed9190615689565b505050565b6000600460008373ffffffffffffffffffffffffffffffffffffffff1673ffffffffffffffffffffffffffffffffffffffff16815260200190815260200160002060009054906101000a900473ffffffffffffffffffffffffffffffffffffffff169050919050565b6060808690506060869050606086905060608690506060869050606081518351855187518951010101016040519080825280601f01601f1916602001820160405280156132b75781602001600182028038833980820191505090505b5090506060819050600080905060008090505b885181101561337d5788818151811015156132e157fe5b9060200101517f010000000000000000000000000000000000000000000000000000000000000090047f010000000000000000000000000000000000000000000000000000000000000002838380600101945081518110151561334057fe5b9060200101907effffffffffffffffffffffffffffffffffffffffffffffffffffffffffffff1916908160001a90535080806001019150506132ca565b5060008090505b875181101561343757878181518110151561339b57fe5b9060200101517f010000000000000000000000000000000000000000000000000000000000000090047f01000000000000000000000000000000000000000000000000000000000000000283838060010194508151811015156133fa57fe5b9060200101907effffffffffffffffffffffffffffffffffffffffffffffffffffffffffffff1916908160001a9053508080600101915050613384565b5060008090505b86518110156134f157868181518110151561345557fe5b9060200101517f010000000000000000000000000000000000000000000000000000000000000090047f01000000000000000000000000000000000000000000000000000000000000000283838060010194508151811015156134b457fe5b9060200101907effffffffffffffffffffffffffffffffffffffffffffffffffffffffffffff1916908160001a905350808060010191505061343e565b5060008090505b85518110156135ab57858181518110151561350f57fe5b9060200101517f010000000000000000000000000000000000000000000000000000000000000090047f010000000000000000000000000000000000000000000000000000000000000002838380600101945081518110151561356e57fe5b9060200101907effffffffffffffffffffffffffffffffffffffffffffffffffffffffffffff1916908160001a90535080806001019150506134f8565b5060008090505b84518110156136655784818151811015156135c957fe5b9060200101517f010000000000000000000000000000000000000000000000000000000000000090047f010000000000000000000000000000000000000000000000000000000000000002838380600101945081518110151561362857fe5b9060200101907effffffffffffffffffffffffffffffffffffffffffffffffffffffffffffff1916908160001a90535080806001019150506135b2565b50819850505050505050505095945050505050565b6000809054906101000a900473ffffffffffffffffffffffffffffffffffffffff1673ffffffffffffffffffffffffffffffffffffffff163373ffffffffffffffffffffffffffffffffffffffff1614806136da57506136d933612130565b5b1515613774576040517f08c379a000000000000000000000000000000000000000000000000000000000815260040180806020018281038252602c8152602001807f4f6e6c792061646d696e206163636f756e74732063616e20706572666f726d2081526020017f7468697320616374696f6e2e000000000000000000000000000000000000000081525060400191505060405180910390fd5b806000806137818361551b565b9150915060608215613a34576000600481111561379a57fe5b8260048111156137a657fe5b14156137e9576040805190810160405280600581526020017f6f776e657200000000000000000000000000000000000000000000000000000081525090506138fc565b600160048111156137f657fe5b82600481111561380257fe5b1415613845576040805190810160405280600581526020017f61646d696e00000000000000000000000000000000000000000000000000000081525090506138fb565b6002600481111561385257fe5b82600481111561385e57fe5b14156138a1576040805190810160405280600781526020017f676174657761790000000000000000000000000000000000000000000000000081525090506138fa565b600360048111156138ae57fe5b8260048111156138ba57fe5b14156138f9576040805190810160405280600481526020017f6e6f64650000000000000000000000000000000000000000000000000000000081525090505b5b5b5b6139936040805190810160405280601c81526020017f4163636f756e7420616c72656164792061737369676e65642061732000000000815250826040805190810160405280600181526020017f2e000000000000000000000000000000000000000000000000000000000000008152506020604051908101604052806000815250602060405190810160405280600081525061325b565b6040517f08c379a00000000000000000000000000000000000000000000000000000000081526004018080602001828103825283818151815260200191508051906020019080838360005b838110156139f95780820151818401526020810190506139de565b50505050905090810190601f168015613a265780820380516001836020036101000a031916815260200191505b509250505060405180910390fd5b613a3c615760565b6080604051908101604052808981526020018881526020016000604051908082528060200260200182016040528015613a845781602001602082028038833980820191505090505b50815260200160011515815250905060068690806001815401808255809150509060018203906000526020600020016000909192909190916101000a81548173ffffffffffffffffffffffffffffffffffffffff021916908373ffffffffffffffffffffffffffffffffffffffff1602179055505080600160008873ffffffffffffffffffffffffffffffffffffffff1673ffffffffffffffffffffffffffffffffffffffff1681526020019081526020016000206000820151816000019080519060200190613b55929190615609565b506020820151816001019080519060200190613b72929190615609565b506040820151816002019080519060200190613b8f92919061578b565b5060608201518160030160006101000a81548160ff0219169083151502179055509050505050505050505050565b606080600360008473ffffffffffffffffffffffffffffffffffffffff1673ffffffffffffffffffffffffffffffffffffffff168152602001908152602001600020600201805480602002602001604051908101604052809291908181526020016000905b82821015613cde578382906000526020600020018054600181600116156101000203166002900480601f016020809104026020016040519081016040528092919081815260200182805460018160011615610100020316600290048015613cca5780601f10613c9f57610100808354040283529160200191613cca565b820191906000526020600020905b815481529060010190602001808311613cad57829003601f168201915b505050505081526020019060010190613c22565b50505050905060606020604051908101604052806000815250905060008090505b8251811015613deb57613d5c828483815181101515613d1a57fe5b9060200190602002015160206040519081016040528060008152506020604051908101604052806000815250602060405190810160405280600081525061325b565b9150600183510381141515613de057613ddd826040805190810160405280600181526020017f3b0000000000000000000000000000000000000000000000000000000000000081525060206040519081016040528060008152506020604051908101604052806000815250602060405190810160405280600081525061325b565b91505b600181019050613cff565b508092505050919050565b6000809054906101000a900473ffffffffffffffffffffffffffffffffffffffff1673ffffffffffffffffffffffffffffffffffffffff163373ffffffffffffffffffffffffffffffffffffffff161480613e565750613e5533612130565b5b1515613ef0576040517f08c379a000000000000000000000000000000000000000000000000000000000815260040180806020018281038252602c8152602001807f4f6e6c792061646d696e206163636f756e74732063616e20706572666f726d2081526020017f7468697320616374696f6e2e000000000000000000000000000000000000000081525060400191505060405180910390fd5b600360008273ffffffffffffffffffffffffffffffffffffffff1673ffffffffffffffffffffffffffffffffffffffff16815260200190815260200160002060030160009054906101000a900460ff161515614000576040517f08c379a00000000000000000000000000000000000000000000000000000000081526004018080602001828103825260418152602001807f54686520676976656e20616464726573732069736e27742061206e6f6465206181526020017f646472657373206f72206e6f646520697320616c72656164792072656d6f766581526020017f640000000000000000000000000000000000000000000000000000000000000081525060600191505060405180910390fd5b6140086156b5565b600360008373ffffffffffffffffffffffffffffffffffffffff1673ffffffffffffffffffffffffffffffffffffffff16815260200190815260200160002060806040519081016040529081600082018054600181600116156101000203166002900480601f0160208091040260200160405190810160405280929190818152602001828054600181600116156101000203166002900480156140ec5780601f106140c1576101008083540402835291602001916140ec565b820191906000526020600020905b8154815290600101906020018083116140cf57829003601f168201915b50505050508152602001600182018054600181600116156101000203166002900480601f01602080910402602001604051908101604052809291908181526020018280546001816001161561010002031660029004801561418e5780601f106141635761010080835404028352916020019161418e565b820191906000526020600020905b81548152906001019060200180831161417157829003601f168201915b5050505050815260200160028201805480602002602001604051908101604052809291908181526020016000905b82821015614278578382906000526020600020018054600181600116156101000203166002900480601f0160208091040260200160405190810160405280929190818152602001828054600181600116156101000203166002900480156142645780601f1061423957610100808354040283529160200191614264565b820191906000526020600020905b81548152906001019060200180831161424757829003601f168201915b5050505050815260200190600101906141bc565b5050505081526020016003820160009054906101000a900460ff1615151515815250509050600081606001901515908115158152505060008090505b6007805490508110156143e25760008373ffffffffffffffffffffffffffffffffffffffff166007838154811015156142e957fe5b9060005260206000200160009054906101000a900473ffffffffffffffffffffffffffffffffffffffff1673ffffffffffffffffffffffffffffffffffffffff161415614338578190506143d6565b808211156143d55760076001830381548110151561435257fe5b9060005260206000200160009054906101000a900473ffffffffffffffffffffffffffffffffffffffff1660078381548110151561438c57fe5b9060005260206000200160006101000a81548173ffffffffffffffffffffffffffffffffffffffff021916908373ffffffffffffffffffffffffffffffffffffffff1602179055505b5b506001810190506142b4565b50606060016000600460008673ffffffffffffffffffffffffffffffffffffffff1673ffffffffffffffffffffffffffffffffffffffff16815260200190815260200160002060009054906101000a900473ffffffffffffffffffffffffffffffffffffffff1673ffffffffffffffffffffffffffffffffffffffff1673ffffffffffffffffffffffffffffffffffffffff16815260200190815260200160002060020180548060200260200160405190810160405280929190818152602001828054801561450657602002820191906000526020600020905b8160009054906101000a900473ffffffffffffffffffffffffffffffffffffffff1673ffffffffffffffffffffffffffffffffffffffff16815260200190600101908083116144bc575b5050505050905060008090505b81518110156145ec5760008473ffffffffffffffffffffffffffffffffffffffff16838381518110151561454357fe5b9060200190602002015173ffffffffffffffffffffffffffffffffffffffff161415614571578190506145e0565b808211156145df57826001830381518110151561458a57fe5b9060200190602002015183838151811015156145a257fe5b9060200190602002019073ffffffffffffffffffffffffffffffffffffffff16908173ffffffffffffffffffffffffffffffffffffffff16815250505b5b50600181019050614513565b50505050565b60006060839050606083905080805190602001208280519060200120149250505092915050565b6000600160008373ffffffffffffffffffffffffffffffffffffffff1673ffffffffffffffffffffffffffffffffffffffff16815260200190815260200160002060030160009054906101000a900460ff169050919050565b6000809054906101000a900473ffffffffffffffffffffffffffffffffffffffff1673ffffffffffffffffffffffffffffffffffffffff163373ffffffffffffffffffffffffffffffffffffffff1614806146d257506146d133612130565b5b151561476c576040517f08c379a000000000000000000000000000000000000000000000000000000000815260040180806020018281038252602c8152602001807f4f6e6c792061646d696e206163636f756e74732063616e20706572666f726d2081526020017f7468697320616374696f6e2e000000000000000000000000000000000000000081525060400191505060405180910390fd5b836000806147798361551b565b9150915060608215614a2c576000600481111561479257fe5b82600481111561479e57fe5b14156147e1576040805190810160405280600581526020017f6f776e657200000000000000000000000000000000000000000000000000000081525090506148f4565b600160048111156147ee57fe5b8260048111156147fa57fe5b141561483d576040805190810160405280600581526020017f61646d696e00000000000000000000000000000000000000000000000000000081525090506148f3565b6002600481111561484a57fe5b82600481111561485657fe5b1415614899576040805190810160405280600781526020017f676174657761790000000000000000000000000000000000000000000000000081525090506148f2565b600360048111156148a657fe5b8260048111156148b257fe5b14156148f1576040805190810160405280600481526020017f6e6f64650000000000000000000000000000000000000000000000000000000081525090505b5b5b5b61498b6040805190810160405280601c81526020017f4163636f756e7420616c72656164792061737369676e65642061732000000000815250826040805190810160405280600181526020017f2e000000000000000000000000000000000000000000000000000000000000008152506020604051908101604052806000815250602060405190810160405280600081525061325b565b6040517f08c379a00000000000000000000000000000000000000000000000000000000081526004018080602001828103825283818151815260200191508051906020019080838360005b838110156149f15780820151818401526020810190506149d6565b50505050905090810190601f168015614a1e5780820380516001836020036101000a031916815260200191505b509250505060405180910390fd5b614a3585614619565b1515614af5576040517f08c379a000000000000000000000000000000000000000000000000000000000815260040180806020018281038252604f8152602001807f546865206164647265737320676976656e206973206e6f74206120676174657781526020017f61792061646472657373206f72207468652067617465776179206973206e6f7481526020017f207965742072656769737465726564000000000000000000000000000000000081525060600191505060405180910390fd5b614afd6156b5565b6080604051908101604052808881526020018981526020016000604051908082528060200260200182016040528015614b4a57816020015b6060815260200190600190039081614b355790505b50815260200160011515815250905080600360008b73ffffffffffffffffffffffffffffffffffffffff1673ffffffffffffffffffffffffffffffffffffffff1681526020019081526020016000206000820151816000019080519060200190614bb5929190615609565b506020820151816001019080519060200190614bd2929190615609565b506040820151816002019080519060200190614bef929190615815565b5060608201518160030160006101000a81548160ff02191690831515021790555090505085600460008b73ffffffffffffffffffffffffffffffffffffffff1673ffffffffffffffffffffffffffffffffffffffff16815260200190815260200160002060006101000a81548173ffffffffffffffffffffffffffffffffffffffff021916908373ffffffffffffffffffffffffffffffffffffffff16021790555060078990806001815401808255809150509060018203906000526020600020016000909192909190916101000a81548173ffffffffffffffffffffffffffffffffffffffff021916908373ffffffffffffffffffffffffffffffffffffffff16021790555050600160008773ffffffffffffffffffffffffffffffffffffffff1673ffffffffffffffffffffffffffffffffffffffff1681526020019081526020016000206002018990806001815401808255809150509060018203906000526020600020016000909192909190916101000a81548173ffffffffffffffffffffffffffffffffffffffff021916908373ffffffffffffffffffffffffffffffffffffffff16021790555050505050505050505050565b60606007805480602002602001604051908101604052809291908181526020018280548015614e2c57602002820191906000526020600020905b8160009054906101000a900473ffffffffffffffffffffffffffffffffffffffff1673ffffffffffffffffffffffffffffffffffffffff1681526020019060010190808311614de2575b5050505050905090565b600080600090505b60078054905081101561518357614e536156b5565b60036000600784815481101515614e6657fe5b9060005260206000200160009054906101000a900473ffffffffffffffffffffffffffffffffffffffff1673ffffffffffffffffffffffffffffffffffffffff1673ffffffffffffffffffffffffffffffffffffffff16815260200190815260200160002060806040519081016040529081600082018054600181600116156101000203166002900480601f016020809104026020016040519081016040528092919081815260200182805460018160011615610100020316600290048015614f705780601f10614f4557610100808354040283529160200191614f70565b820191906000526020600020905b815481529060010190602001808311614f5357829003601f168201915b50505050508152602001600182018054600181600116156101000203166002900480601f0160208091040260200160405190810160405280929190818152602001828054600181600116156101000203166002900480156150125780601f10614fe757610100808354040283529160200191615012565b820191906000526020600020905b815481529060010190602001808311614ff557829003601f168201915b5050505050815260200160028201805480602002602001604051908101604052809291908181526020016000905b828210156150fc578382906000526020600020018054600181600116156101000203166002900480601f0160208091040260200160405190810160405280929190818152602001828054600181600116156101000203166002900480156150e85780601f106150bd576101008083540402835291602001916150e8565b820191906000526020600020905b8154815290600101906020018083116150cb57829003601f168201915b505050505081526020019060010190615040565b5050505081526020016003820160009054906101000a900460ff161515151581525050905061512f8160200151856145f2565b156151775760078281548110151561514357fe5b9060005260206000200160009054906101000a900473ffffffffffffffffffffffffffffffffffffffff16925050506151f2565b50600181019050614e3e565b506040517f08c379a00000000000000000000000000000000000000000000000000000000081526004018080602001828103825260168152602001807f4e6f64652061646472657373206e6f7420666f756e640000000000000000000081525060200191505060405180910390fd5b919050565b606080615202615760565b600160008573ffffffffffffffffffffffffffffffffffffffff1673ffffffffffffffffffffffffffffffffffffffff16815260200190815260200160002060806040519081016040529081600082018054600181600116156101000203166002900480601f0160208091040260200160405190810160405280929190818152602001828054600181600116156101000203166002900480156152e65780601f106152bb576101008083540402835291602001916152e6565b820191906000526020600020905b8154815290600101906020018083116152c957829003601f168201915b50505050508152602001600182018054600181600116156101000203166002900480601f0160208091040260200160405190810160405280929190818152602001828054600181600116156101000203166002900480156153885780601f1061535d57610100808354040283529160200191615388565b820191906000526020600020905b81548152906001019060200180831161536b57829003601f168201915b505050505081526020016002820180548060200260200160405190810160405280929190818152602001828054801561541657602002820191906000526020600020905b8160009054906101000a900473ffffffffffffffffffffffffffffffffffffffff1673ffffffffffffffffffffffffffffffffffffffff16815260200190600101908083116153cc575b505050505081526020016003820160009054906101000a900460ff161515151581525050905080606001511515615501576040517f08c379a000000000000000000000000000000000000000000000000000000000815260040180806020018281038252604b8152602001807f54686520676976656e2061646472657373206973206e6f74206120676174657781526020017f61792061646472657373206f722067617465776179206973206e6f742079657481526020017f207265676973746572656400000000000000000000000000000000000000000081525060600191505060405180910390fd5b806000015181602001518191508090509250925050915091565b6000806000806000809054906101000a900473ffffffffffffffffffffffffffffffffffffffff1673ffffffffffffffffffffffffffffffffffffffff168573ffffffffffffffffffffffffffffffffffffffff1614156155835760009050600191506155e0565b61558c85612130565b1561559e5760019050600191506155df565b6155a785614619565b156155b95760029050600191506155de565b6155c28561176f565b156155d45760039050600191506155dd565b60049050600091505b5b5b5b8181935093505050915091565b6040805190810160405280606081526020016000151581525090565b828054600181600116156101000203166002900490600052602060002090601f016020900481019282601f1061564a57805160ff1916838001178555615678565b82800160010185558215615678579182015b8281111561567757825182559160200191906001019061565c565b5b5090506156859190615875565b5090565b8154818355818111156156b0578183600052602060002091820191016156af9190615875565b5b505050565b6080604051908101604052806060815260200160608152602001606081526020016000151581525090565b828054600181600116156101000203166002900490600052602060002090601f016020900481019282601f1061572157805160ff191683800117855561574f565b8280016001018555821561574f579182015b8281111561574e578251825591602001919060010190615733565b5b50905061575c9190615875565b5090565b6080604051908101604052806060815260200160608152602001606081526020016000151581525090565b828054828255906000526020600020908101928215615804579160200282015b828111156158035782518260006101000a81548173ffffffffffffffffffffffffffffffffffffffff021916908373ffffffffffffffffffffffffffffffffffffffff160217905550916020019190600101906157ab565b5b509050615811919061589a565b5090565b828054828255906000526020600020908101928215615864579160200282015b82811115615863578251829080519060200190615853929190615609565b5091602001919060010190615835565b5b50905061587191906158dd565b5090565b61589791905b8082111561589357600081600090555060010161587b565b5090565b90565b6158da91905b808211156158d657600081816101000a81549073ffffffffffffffffffffffffffffffffffffffff0219169055506001016158a0565b5090565b90565b61590691905b8082111561590257600081816158f99190615909565b506001016158e3565b5090565b90565b50805460018160011615610100020316600290046000825580601f1061592f575061594e565b601f01602090049060005260206000209081019061594d9190615875565b5b5056fea165627a7a72305820caae0077399ace12f4a225aa8538bd044cd71322a81866d2de46857e455c97350029",
  "source": "pragma solidity ^0.5.0;\r\n\r\n/**\r\n * This contract allows the user to manage the different LoRa gateways, nodes and data sent by hem\r\n */\r\ncontract GatewayManager {\r\n    address owner;\r\n     \r\n    \r\n    constructor() payable public {\r\n        owner = msg.sender;\r\n    }\r\n\r\n    struct Gateway {\r\n        string name;\r\n        string gatewayEUI; //unique identifier\r\n        address[] nodes;\r\n        bool registered;\r\n    }\r\n    \r\n    struct Node {\r\n        string id;\r\n        string devEUI; //unique identifier\r\n        \r\n        //Array of strings in format \"%timestamp%, %GPS coordinates%, %batteryLevel%\"\r\n        // %location% = \"(Latitude, Longitude, Altitude)\"\r\n        string[] locationHistory;\r\n        bool registered;\r\n    }\r\n    \r\n    struct Admin {\r\n        string name;\r\n        bool authorized;\r\n    }\r\n    \r\n    mapping(address => Gateway) internal gatewayMapping; //Maps a gateway address to its Gateway object instance\r\n    mapping(address => Admin) internal adminMapping; //Maps an admin address to its Admin object instance\r\n    mapping(address => Node) internal nodeMapping; //Maps a node address to a Node object instance\r\n    mapping(address => address) internal nodeGatewayMapping; //Maps a node address to its associated gateway address\r\n    \r\n    address[] admins;\r\n    address[] gateways;\r\n    address[] nodes; //Note: Every node (LoRa emitter) will have an address to identifiy them, even if the account isn't used\r\n    \r\n    enum AccountHolder {\r\n        OWNER,\r\n        ADMIN,\r\n        GATEWAY,\r\n        NODE,\r\n        NULL\r\n    }\r\n\r\n    /*\r\n    //event AdminAdded(string name, address addr);\r\n    event AdminRemoved(string name, address addr);\r\n    \r\n    event GatewayAdded(string name, string gatewayEUI, address addr);\r\n    event GatewayRemoved(string name, string gatewayEUI, address addr);\r\n    \r\n    event NodeAdded(string name, string devEUI, address nodeAddr, address gatewayAddr);\r\n    event NodeRemoved(string name, string devEUI, address nodeAddr, address gatewayAddr);\r\n    \r\n    event LocationDataAdded(address nodeAddr, string data);\r\n    */\r\n\r\n    modifier adminAction() {\r\n        require(msg.sender == owner || isAdmin(msg.sender), \"Only admin accounts can perform this action.\");\r\n        _;\r\n    }\r\n    \r\n    modifier gatewayAction() {\r\n        require(isGateway(msg.sender), \"Only gateway accounts can perform this action.\");\r\n        _;\r\n    }\r\n    \r\n        //the given address shouldn't correspond to any object in this contract (Admin, Gateway, Node or owner);\r\n    modifier notAssigned(address _addr) {\r\n        (bool b, AccountHolder who) = isAssigned(_addr);\r\n        string memory s;\r\n        \r\n        if (b) {\r\n            if(who == AccountHolder.OWNER) {\r\n                s = \"owner\";\r\n            } else if(who == AccountHolder.ADMIN) {\r\n                s = \"admin\";\r\n            } else if(who == AccountHolder.GATEWAY) {\r\n                s = \"gateway\";\r\n            } else if(who == AccountHolder.NODE) {\r\n                s = \"node\";\r\n            }\r\n            revert(strConcat(\"Account already assigned as \", s, \".\", \"\", \"\"));\r\n        }\r\n        _;\r\n    }\r\n\r\n    function getAdminInfo(address _addr) public view returns (string memory name) {\r\n        Admin memory a = adminMapping[_addr];\r\n        \r\n        if(!a.authorized) {\r\n            revert(\"The given address is not an admin address or account is not yet authorized\");\r\n        }\r\n        \r\n        return (a.name);\r\n    }    \r\n    \r\n    function getGatewayInfo(address _addr) public view returns(string memory name, string memory gatewayEUI) {\r\n        Gateway memory g = gatewayMapping[_addr];\r\n        if (!g.registered) {\r\n            revert(\"The given address is not a gateway address or gateway is not yet registered\");\r\n        }\r\n        return (g.name, g.gatewayEUI);\r\n    }\r\n    \r\n    function getNodeInfo(address _addr) public view returns(string memory name, string memory devEUI, address gatewayAddr) {\r\n        Node memory n = nodeMapping[_addr];\r\n        if(!n.registered) {\r\n            revert(\"The given address is not a node address or node is not yet registered\");\r\n        }\r\n        \r\n        return (n.id, n.devEUI, nodeGatewayMapping[_addr]);\r\n    }\r\n    \r\n    function isAdmin(address _addr) public view returns (bool) {\r\n        return adminMapping[_addr].authorized;\r\n    }\r\n    \r\n    function isGateway(address _addr) public view returns(bool) {\r\n        return gatewayMapping[_addr].registered;\r\n    }\r\n    \r\n    function isNode(address _addr) public view returns(bool) {\r\n        return nodeMapping[_addr].registered;\r\n    }\r\n        \r\n    function isAssigned(address _addr) internal view returns(bool, AccountHolder) {\r\n        bool b;\r\n        AccountHolder who;\r\n        \r\n        if(_addr == owner) {\r\n            who = AccountHolder.OWNER;\r\n            b = true;\r\n        } else if(isAdmin(_addr)) {\r\n            who = AccountHolder.ADMIN;\r\n            b = true;\r\n        } else if(isGateway(_addr)) {\r\n            who = AccountHolder.GATEWAY;\r\n            b = true;\r\n        } else if(isNode(_addr)) {\r\n            who = AccountHolder.NODE;\r\n            b  = true;\r\n        } else {\r\n            who = AccountHolder.NULL;\r\n            b = false;\r\n        }\r\n        \r\n        return (b, who);\r\n    }\r\n    \r\n    /**\r\n     * Returns the address of the gateway associated to this node\r\n     */\r\n    function getAssociatedGateway(address _nodeAddr) public view returns(address) {\r\n        return nodeGatewayMapping[_nodeAddr];\r\n    }\r\n    \r\n    /**\r\n     * Returns a list of all associated nodes addresses\r\n     */\r\n    function getAssociatedNodes(address _gatewayAddr) public view returns(address[] memory) {\r\n        //Checks if the given address is a gateway address\r\n        require(isGateway(_gatewayAddr), \"Address given is not a gateway address or the gateway is not yet registered\");\r\n        return gatewayMapping[_gatewayAddr].nodes;\r\n    }\r\n\r\n    function getAllGatewayAddresses() public view returns(address[] memory) {\r\n        return gateways;\r\n    }\r\n    \r\n    function getAllNodeAddresses() public view returns(address[]  memory) {\r\n        return nodes;\r\n    }\r\n\r\n    \r\n    /**\r\n     * Returns a concatenation of all strings in the node's locationHistory[] array, separated by a \";\"\r\n     */\r\n    function getNodeLocationHistory(address _addr) public view returns(string memory packedData) {\r\n        string[] memory l = nodeMapping[_addr].locationHistory;\r\n        string memory res = \"\";\r\n        \r\n        for (uint i = 0; i < l.length; i += 1) {\r\n            res = strConcat(res, l[i], \"\", \"\", \"\");\r\n            \r\n            if(i != l.length-1) {\r\n                res = strConcat(res, \";\", \"\", \"\", \"\");\r\n            }\r\n        }\r\n        \r\n        return res;\r\n    }\r\n    \r\n    function findNodeAddress(string memory _devEUI) public view returns(address) {\r\n        for(uint i = 0; i < nodes.length; i += 1) {\r\n            Node memory n = nodeMapping[nodes[i]];\r\n            if (compareStrings(n.devEUI, _devEUI)) {\r\n                return nodes[i];\r\n            }\r\n        }\r\n        \r\n        revert(\"Node address not found\");\r\n    }\r\n\r\n    function addAdmin(string memory _name, address _addr) public adminAction notAssigned(_addr) {\r\n        Admin memory a = Admin({name: _name, authorized: true});\r\n        admins.push(_addr);\r\n        adminMapping[_addr] = a;\r\n\r\n        ////emit AdminAdded(_name, _addr);\r\n    }\r\n    \r\n    function registerGateway(string memory _name, string memory _gatewayEUI, address _addr) public adminAction notAssigned(_addr) {\r\n        Gateway memory g = Gateway({name: _name, gatewayEUI: _gatewayEUI, registered: true, nodes: new address[](0)});\r\n        gateways.push(_addr);\r\n        gatewayMapping[_addr] = g;\r\n        \r\n        //emit GatewayAdded(_name, _gatewayEUI, _addr);\r\n    }\r\n    \r\n    function registerNode(address _nodeAddr, string memory _devEUI, string memory _id, address _gatewayAddr) public adminAction\r\n    notAssigned(_nodeAddr) {\r\n        //Check if gateway exists\r\n        require(isGateway(_gatewayAddr), \"The address given is not a gateway address or the gateway is not yet registered\");\r\n        \r\n        Node memory n = Node({id: _id, devEUI: _devEUI, registered: true, locationHistory: new string[](0)});\r\n        //Map node address to its object\r\n        nodeMapping[_nodeAddr] = n;\r\n        //Maps node address to its associated gateway\r\n        nodeGatewayMapping[_nodeAddr] = _gatewayAddr;\r\n        //Pushes node address to nodes array, representng all nodes managed by this contract\r\n        nodes.push(_nodeAddr);\r\n        //Pushes node's address to the given gateway's nodes list, representing all gateway's associated nodes\r\n        gatewayMapping[_gatewayAddr].nodes.push(_nodeAddr);\r\n        \r\n        //emit NodeAdded(_id, _devEUI, _nodeAddr, _gatewayAddr);\r\n    }\r\n    \r\n    function removeAdmin(address _addr) public adminAction {\r\n        //Check if account is admin\r\n        require(isAdmin(_addr), \"The given address isn't an admin account or admin already removed.\");\r\n\r\n        Admin memory a = adminMapping[_addr];\r\n        a.authorized = false;\r\n\r\n        admins.push(_addr);\r\n        \r\n        //remove admin's address from \"admins\" array\r\n        for(uint i = 0; i < admins.length; i += 1) {\r\n            uint index;\r\n            if (admins[i] == _addr) {\r\n                index = i;\r\n            } else if (i > index) {\r\n                admins[i] = admins[i-1];\r\n            }\r\n        }\r\n        \r\n        admins.length -= 1;\r\n\r\n        //emit AdminRemoved(a.name, _addr);\r\n    }\r\n    \r\n    function removeGateway(address _addr) public adminAction {\r\n        //Check if gateway exists\r\n        require(gatewayMapping[_addr].registered, \"The given address isn't a gateway address or gateway is already removed\");\r\n        //Change ggateway \"registered\" to false\r\n        Gateway memory g = gatewayMapping[_addr];\r\n        g.registered = false;\r\n        \r\n        //remove gateway's address from \"gateways\" list\r\n        for(uint i = 0; i < gateways.length; i += 1) {\r\n            uint index; \r\n            if (gateways[i] == _addr) {\r\n                index = i;\r\n            } else if (i > index) {\r\n                gateways[i] = gateways[i-1];\r\n            }\r\n        }\r\n        \r\n        gateways.length -= 1;\r\n        \r\n        //emit GatewayRemoved(g.name, g.gatewayEUI, _addr);\r\n    }\r\n    \r\n    function removeNode(address _nodeAddr) public adminAction {\r\n        //Check if node exists\r\n        require(nodeMapping[_nodeAddr].registered, \"The given address isn't a node address or node is already removed\");\r\n        //Change node \"registered\" to false\r\n        Node memory n = nodeMapping[_nodeAddr];\r\n        n.registered = false;\r\n        \r\n        //Remove node's address from \"nodes\" list\r\n        for(uint i = 0; i < nodes.length; i += 1) {\r\n            uint index;\r\n            if (nodes[i] == _nodeAddr) {\r\n                index = i;\r\n            } else if (i > index) {\r\n                nodes[i] = nodes[i-1];\r\n            }\r\n        }\r\n        \r\n        //Remove node from associated gateway's \"nodes\" list\r\n        address[] memory _nodes = gatewayMapping[nodeGatewayMapping[_nodeAddr]].nodes;\r\n        for(uint i = 0; i < _nodes.length; i += 1) {\r\n            uint index;\r\n            \r\n            if (_nodes[i] == _nodeAddr) {\r\n                index = i;\r\n            } else if (i > index) {\r\n                _nodes[i] = _nodes[i-1];\r\n            }\r\n        }\r\n        \r\n        //emit NodeRemoved(n.id, n.devEUI, _nodeAddr, nodeGatewayMapping[_nodeAddr]);\r\n    }\r\n    \r\n    function setNodeLocationData(string memory devEUI, string memory timestamp, string memory latitude, string memory longitude, string memory altitude, string memory batteryLevel) public gatewayAction {\r\n        address _nodeAddr = findNodeAddress(devEUI);\r\n        string memory coordinates = strConcat(\"(\", latitude, \", \", longitude, \", \");\r\n        coordinates = strConcat(coordinates, altitude, \")\", \"\", \"\");\r\n        string memory res = strConcat(timestamp, \", \", coordinates, \",\", batteryLevel);\r\n        \r\n        nodeMapping[_nodeAddr].locationHistory.push(res);\r\n        \r\n        //emit LocationDataAdded(_nodeAddr, res);\r\n    }\r\n    \r\n    //HELPER//\r\n     /**\r\n     * Helper functions for string concatenation \r\n     * (http://cryptodir.blogspot.com.tr/2016/03/solidity-concat-string.html)\r\n     */\r\n    function strConcat(string memory _a, string memory _b, string memory _c, string memory _d, string memory _e)\r\n    public pure returns (string memory){\r\n        bytes memory _ba = bytes(_a);\r\n        bytes memory _bb = bytes(_b);\r\n        bytes memory _bc = bytes(_c);\r\n        bytes memory _bd = bytes(_d);\r\n        bytes memory _be = bytes(_e);\r\n        string memory abcde = new string(_ba.length + _bb.length + _bc.length + _bd.length + _be.length);\r\n        bytes memory babcde = bytes(abcde);\r\n        uint k = 0;\r\n        for (uint i = 0; i < _ba.length; i++) babcde[k++] = _ba[i];\r\n        for (uint i = 0; i < _bb.length; i++) babcde[k++] = _bb[i];\r\n        for (uint i = 0; i < _bc.length; i++) babcde[k++] = _bc[i];\r\n        for (uint i = 0; i < _bd.length; i++) babcde[k++] = _bd[i];\r\n        for (uint i = 0; i < _be.length; i++) babcde[k++] = _be[i];\r\n        return string(babcde);\r\n    }\r\n\r\n    /*\r\n    function strConcat(string memory _a, string memory _b, string memory _c, string memory _d)  public pure returns (string memory) {\r\n        return strConcat(_a, _b, _c, _d, \"\");\r\n    }\r\n    \r\n    function strConcat(string memory _a, string memory _b, string memory _c) public pure returns (string memory) {\r\n        return strConcat(_a, _b, _c, \"\", \"\");\r\n    }\r\n    \r\n    function strConcat(string memory _a, string memory _b) public pure returns (string memory) {\r\n        return strConcat(_a, _b, \"\", \"\", \"\");\r\n    }\r\n    */\r\n    \r\n    /**\r\n     * Helper function to compare strings\r\n     */\r\n    function compareStrings(string memory a, string memory b) public pure returns (bool){\r\n        bytes memory aBytes = bytes(a);\r\n        bytes memory bBytes = bytes(b);\r\n        return keccak256(aBytes) == keccak256(bBytes);\r\n    }\r\n}",
  "sourcePath": "C:/Users/inaci/OneDrive/Documents/_IIFF_Hackathon/_Project/lorawan-blockchain/blockchain/contracts/GatewayManager.sol",
  "compiler": {
    "name": "solc",
    "version": "0.5.0+commit.1d4f565a.Emscripten.clang"
  },
  "schemaVersion": "3.0.1",
  "updatedAt": "2019-02-16T15:00:03.204Z",
  "devdoc": {
    "methods": {}
  },
  "userdoc": {
    "methods": {
      "compareStrings(string,string)": {
        "notice": "Helper function to compare strings\r"
      },
      "getAssociatedGateway(address)": {
        "notice": "Returns the address of the gateway associated to this node\r"
      },
      "getAssociatedNodes(address)": {
        "notice": "Returns a list of all associated nodes addresses\r"
      },
      "getNodeLocationHistory(address)": {
        "notice": "Returns a concatenation of all strings in the node's locationHistory[] array, separated by a \";\"\r"
      },
      "strConcat(string,string,string,string,string)": {
        "notice": "Helper functions for string concatenation \r (http://cryptodir.blogspot.com.tr/2016/03/solidity-concat-string.html)\r"
      }
    },
    "notice": "This contract allows the user to manage the different LoRa gateways, nodes and data sent by hem\r"
  }
}