{
  "contractName": "GatewayManager",
  "abi": [
    {
      "constant": true,
      "inputs": [
        {
          "name": "",
          "type": "uint256"
        }
      ],
      "name": "admins",
      "outputs": [
        {
          "name": "",
          "type": "address"
        }
      ],
      "payable": false,
      "stateMutability": "view",
      "type": "function",
      "signature": "0x14bfd6d0"
    },
    {
      "constant": true,
      "inputs": [
        {
          "name": "",
          "type": "uint256"
        }
      ],
      "name": "nodes",
      "outputs": [
        {
          "name": "",
          "type": "address"
        }
      ],
      "payable": false,
      "stateMutability": "view",
      "type": "function",
      "signature": "0x1c53c280"
    },
    {
      "constant": true,
      "inputs": [
        {
          "name": "",
          "type": "uint256"
        }
      ],
      "name": "gateways",
      "outputs": [
        {
          "name": "",
          "type": "address"
        }
      ],
      "payable": false,
      "stateMutability": "view",
      "type": "function",
      "signature": "0x64c17056"
    },
    {
      "constant": true,
      "inputs": [],
      "name": "owner",
      "outputs": [
        {
          "name": "",
          "type": "address"
        }
      ],
      "payable": false,
      "stateMutability": "view",
      "type": "function",
      "signature": "0x8da5cb5b"
    },
    {
      "constant": true,
      "inputs": [
        {
          "name": "",
          "type": "address"
        }
      ],
      "name": "nodeGatewayMapping",
      "outputs": [
        {
          "name": "",
          "type": "address"
        }
      ],
      "payable": false,
      "stateMutability": "view",
      "type": "function",
      "signature": "0xaa1d6f77"
    },
    {
      "constant": true,
      "inputs": [
        {
          "name": "",
          "type": "address"
        }
      ],
      "name": "gatewayMapping",
      "outputs": [
        {
          "name": "name",
          "type": "string"
        },
        {
          "name": "gatewayEUI",
          "type": "string"
        },
        {
          "name": "registered",
          "type": "bool"
        }
      ],
      "payable": false,
      "stateMutability": "view",
      "type": "function",
      "signature": "0xbd3a08e7"
    },
    {
      "constant": true,
      "inputs": [
        {
          "name": "",
          "type": "address"
        }
      ],
      "name": "adminMapping",
      "outputs": [
        {
          "name": "name",
          "type": "string"
        },
        {
          "name": "authorized",
          "type": "bool"
        }
      ],
      "payable": false,
      "stateMutability": "view",
      "type": "function",
      "signature": "0xed2b77e6"
    },
    {
      "constant": true,
      "inputs": [
        {
          "name": "",
          "type": "address"
        }
      ],
      "name": "nodeMapping",
      "outputs": [
        {
          "name": "id",
          "type": "string"
        },
        {
          "name": "devEUI",
          "type": "string"
        },
        {
          "name": "registered",
          "type": "bool"
        }
      ],
      "payable": false,
      "stateMutability": "view",
      "type": "function",
      "signature": "0xfbd1b4ce"
    },
    {
      "inputs": [],
      "payable": true,
      "stateMutability": "payable",
      "type": "constructor",
      "signature": "constructor"
    },
    {
      "anonymous": false,
      "inputs": [
        {
          "indexed": false,
          "name": "name",
          "type": "string"
        },
        {
          "indexed": false,
          "name": "addr",
          "type": "address"
        }
      ],
      "name": "AdminAdded",
      "type": "event",
      "signature": "0xf38064fb0961167eb19c267824c0f58b468b4a4a2739fb3b1a9e040d7b25f7c8"
    },
    {
      "constant": true,
      "inputs": [
        {
          "name": "_addr",
          "type": "address"
        }
      ],
      "name": "isAdmin",
      "outputs": [
        {
          "name": "",
          "type": "bool"
        }
      ],
      "payable": false,
      "stateMutability": "view",
      "type": "function",
      "signature": "0x24d7806c"
    },
    {
      "constant": true,
      "inputs": [
        {
          "name": "_addr",
          "type": "address"
        }
      ],
      "name": "isGateway",
      "outputs": [
        {
          "name": "",
          "type": "bool"
        }
      ],
      "payable": false,
      "stateMutability": "view",
      "type": "function",
      "signature": "0xbfe69d9a"
    },
    {
      "constant": true,
      "inputs": [
        {
          "name": "_addr",
          "type": "address"
        }
      ],
      "name": "isNode",
      "outputs": [
        {
          "name": "",
          "type": "bool"
        }
      ],
      "payable": false,
      "stateMutability": "view",
      "type": "function",
      "signature": "0x01750152"
    },
    {
      "constant": true,
      "inputs": [
        {
          "name": "_nodeAddr",
          "type": "address"
        }
      ],
      "name": "getAssociatedGateway",
      "outputs": [
        {
          "name": "",
          "type": "address"
        }
      ],
      "payable": false,
      "stateMutability": "view",
      "type": "function",
      "signature": "0x9303e23d"
    },
    {
      "constant": true,
      "inputs": [
        {
          "name": "_gatewayAddr",
          "type": "address"
        }
      ],
      "name": "getAssociatedNodes",
      "outputs": [
        {
          "name": "",
          "type": "address[]"
        }
      ],
      "payable": false,
      "stateMutability": "view",
      "type": "function",
      "signature": "0x442aa164"
    },
    {
      "constant": true,
      "inputs": [],
      "name": "getAllAdminAddresses",
      "outputs": [
        {
          "name": "",
          "type": "address[]"
        }
      ],
      "payable": false,
      "stateMutability": "view",
      "type": "function",
      "signature": "0xe11b30a6"
    },
    {
      "constant": true,
      "inputs": [],
      "name": "getAllGatewayAddresses",
      "outputs": [
        {
          "name": "",
          "type": "address[]"
        }
      ],
      "payable": false,
      "stateMutability": "view",
      "type": "function",
      "signature": "0x863a2a01"
    },
    {
      "constant": true,
      "inputs": [],
      "name": "getAllNodeAddresses",
      "outputs": [
        {
          "name": "",
          "type": "address[]"
        }
      ],
      "payable": false,
      "stateMutability": "view",
      "type": "function",
      "signature": "0xc8fe3a01"
    },
    {
      "constant": true,
      "inputs": [
        {
          "name": "_addr",
          "type": "address"
        }
      ],
      "name": "getNodeLocationHistory",
      "outputs": [
        {
          "name": "packedData",
          "type": "string"
        }
      ],
      "payable": false,
      "stateMutability": "view",
      "type": "function",
      "signature": "0x9ca691b7"
    },
    {
      "constant": true,
      "inputs": [
        {
          "name": "_devEUI",
          "type": "string"
        }
      ],
      "name": "findNodeAddress",
      "outputs": [
        {
          "name": "",
          "type": "address"
        }
      ],
      "payable": false,
      "stateMutability": "view",
      "type": "function",
      "signature": "0xe013b1d5"
    },
    {
      "constant": false,
      "inputs": [
        {
          "name": "_name",
          "type": "string"
        },
        {
          "name": "_addr",
          "type": "address"
        }
      ],
      "name": "addAdmin",
      "outputs": [],
      "payable": false,
      "stateMutability": "nonpayable",
      "type": "function",
      "signature": "0x0831b05f"
    },
    {
      "constant": false,
      "inputs": [
        {
          "name": "_name",
          "type": "string"
        },
        {
          "name": "_gatewayEUI",
          "type": "string"
        },
        {
          "name": "_addr",
          "type": "address"
        }
      ],
      "name": "registerGateway",
      "outputs": [],
      "payable": false,
      "stateMutability": "nonpayable",
      "type": "function",
      "signature": "0x9617cc41"
    },
    {
      "constant": false,
      "inputs": [
        {
          "name": "_id",
          "type": "string"
        },
        {
          "name": "_devEUI",
          "type": "string"
        },
        {
          "name": "_nodeAddr",
          "type": "address"
        },
        {
          "name": "_gatewayAddr",
          "type": "address"
        }
      ],
      "name": "registerNode",
      "outputs": [],
      "payable": false,
      "stateMutability": "nonpayable",
      "type": "function",
      "signature": "0x71bbbe7e"
    },
    {
      "constant": false,
      "inputs": [
        {
          "name": "_addr",
          "type": "address"
        }
      ],
      "name": "removeAdmin",
      "outputs": [],
      "payable": false,
      "stateMutability": "nonpayable",
      "type": "function",
      "signature": "0x1785f53c"
    },
    {
      "constant": false,
      "inputs": [
        {
          "name": "_addr",
          "type": "address"
        }
      ],
      "name": "removeGateway",
      "outputs": [],
      "payable": false,
      "stateMutability": "nonpayable",
      "type": "function",
      "signature": "0x8a885e35"
    },
    {
      "constant": false,
      "inputs": [
        {
          "name": "_nodeAddr",
          "type": "address"
        }
      ],
      "name": "removeNode",
      "outputs": [],
      "payable": false,
      "stateMutability": "nonpayable",
      "type": "function",
      "signature": "0xb2b99ec9"
    },
    {
      "constant": false,
      "inputs": [
        {
          "name": "devEUI",
          "type": "string"
        },
        {
          "name": "timestamp",
          "type": "string"
        },
        {
          "name": "latitude",
          "type": "string"
        },
        {
          "name": "longitude",
          "type": "string"
        },
        {
          "name": "altitude",
          "type": "string"
        },
        {
          "name": "batteryLevel",
          "type": "string"
        }
      ],
      "name": "setNodeLocationData",
      "outputs": [],
      "payable": false,
      "stateMutability": "nonpayable",
      "type": "function",
      "signature": "0x7f0e46d6"
    }
  ],
  "bytecode": "0x6080604052336000806101000a81548173ffffffffffffffffffffffffffffffffffffffff021916908373ffffffffffffffffffffffffffffffffffffffff160217905550614fc1806100536000396000f3fe608060405260043610610149576000357c0100000000000000000000000000000000000000000000000000000000900463ffffffff168063017501521461014e5780630831b05f146101b757806314bfd6d01461029f5780631785f53c1461031a5780631c53c2801461036b57806324d7806c146103e6578063442aa1641461044f57806364c17056146104f557806371bbbe7e146105705780637f0e46d61461070f578063863a2a0114610aca5780638a885e3514610b365780638da5cb5b14610b875780639303e23d14610bde5780639617cc4114610c6f5780639ca691b714610dee578063aa1d6f7714610eb8578063b2b99ec914610f49578063bd3a08e714610f9a578063bfe69d9a146110db578063c8fe3a0114611144578063e013b1d5146111b0578063e11b30a6146112b8578063ed2b77e614611324578063fbd1b4ce146113f9575b600080fd5b34801561015a57600080fd5b5061019d6004803603602081101561017157600080fd5b81019080803573ffffffffffffffffffffffffffffffffffffffff16906020019092919050505061153a565b604051808215151515815260200191505060405180910390f35b3480156101c357600080fd5b5061029d600480360360408110156101da57600080fd5b81019080803590602001906401000000008111156101f757600080fd5b82018360208201111561020957600080fd5b8035906020019184600183028401116401000000008311171561022b57600080fd5b91908080601f016020809104026020016040519081016040528093929190818152602001838380828437600081840152601f19601f820116905080830192505050505050509192919290803573ffffffffffffffffffffffffffffffffffffffff169060200190929190505050611593565b005b3480156102ab57600080fd5b506102d8600480360360208110156102c257600080fd5b8101908080359060200190929190505050611b2e565b604051808273ffffffffffffffffffffffffffffffffffffffff1673ffffffffffffffffffffffffffffffffffffffff16815260200191505060405180910390f35b34801561032657600080fd5b506103696004803603602081101561033d57600080fd5b81019080803573ffffffffffffffffffffffffffffffffffffffff169060200190929190505050611b6c565b005b34801561037757600080fd5b506103a46004803603602081101561038e57600080fd5b8101908080359060200190929190505050611ee1565b604051808273ffffffffffffffffffffffffffffffffffffffff1673ffffffffffffffffffffffffffffffffffffffff16815260200191505060405180910390f35b3480156103f257600080fd5b506104356004803603602081101561040957600080fd5b81019080803573ffffffffffffffffffffffffffffffffffffffff169060200190929190505050611f1f565b604051808215151515815260200191505060405180910390f35b34801561045b57600080fd5b5061049e6004803603602081101561047257600080fd5b81019080803573ffffffffffffffffffffffffffffffffffffffff169060200190929190505050611f78565b6040518080602001828103825283818151815260200191508051906020019060200280838360005b838110156104e15780820151818401526020810190506104c6565b505050509050019250505060405180910390f35b34801561050157600080fd5b5061052e6004803603602081101561051857600080fd5b8101908080359060200190929190505050612111565b604051808273ffffffffffffffffffffffffffffffffffffffff1673ffffffffffffffffffffffffffffffffffffffff16815260200191505060405180910390f35b34801561057c57600080fd5b5061070d6004803603608081101561059357600080fd5b81019080803590602001906401000000008111156105b057600080fd5b8201836020820111156105c257600080fd5b803590602001918460018302840111640100000000831117156105e457600080fd5b91908080601f016020809104026020016040519081016040528093929190818152602001838380828437600081840152601f19601f8201169050808301925050505050505091929192908035906020019064010000000081111561064757600080fd5b82018360208201111561065957600080fd5b8035906020019184600183028401116401000000008311171561067b57600080fd5b91908080601f016020809104026020016040519081016040528093929190818152602001838380828437600081840152601f19601f820116905080830192505050505050509192919290803573ffffffffffffffffffffffffffffffffffffffff169060200190929190803573ffffffffffffffffffffffffffffffffffffffff16906020019092919050505061214f565b005b34801561071b57600080fd5b50610ac8600480360360c081101561073257600080fd5b810190808035906020019064010000000081111561074f57600080fd5b82018360208201111561076157600080fd5b8035906020019184600183028401116401000000008311171561078357600080fd5b91908080601f016020809104026020016040519081016040528093929190818152602001838380828437600081840152601f19601f820116905080830192505050505050509192919290803590602001906401000000008111156107e657600080fd5b8201836020820111156107f857600080fd5b8035906020019184600183028401116401000000008311171561081a57600080fd5b91908080601f016020809104026020016040519081016040528093929190818152602001838380828437600081840152601f19601f8201169050808301925050505050505091929192908035906020019064010000000081111561087d57600080fd5b82018360208201111561088f57600080fd5b803590602001918460018302840111640100000000831117156108b157600080fd5b91908080601f016020809104026020016040519081016040528093929190818152602001838380828437600081840152601f19601f8201169050808301925050505050505091929192908035906020019064010000000081111561091457600080fd5b82018360208201111561092657600080fd5b8035906020019184600183028401116401000000008311171561094857600080fd5b91908080601f016020809104026020016040519081016040528093929190818152602001838380828437600081840152601f19601f820116905080830192505050505050509192919290803590602001906401000000008111156109ab57600080fd5b8201836020820111156109bd57600080fd5b803590602001918460018302840111640100000000831117156109df57600080fd5b91908080601f016020809104026020016040519081016040528093929190818152602001838380828437600081840152601f19601f82011690508083019250505050505050919291929080359060200190640100000000811115610a4257600080fd5b820183602082011115610a5457600080fd5b80359060200191846001830284011164010000000083111715610a7657600080fd5b91908080601f016020809104026020016040519081016040528093929190818152602001838380828437600081840152601f19601f820116905080830192505050505050509192919290505050612885565b005b348015610ad657600080fd5b50610adf612b4e565b6040518080602001828103825283818151815260200191508051906020019060200280838360005b83811015610b22578082015181840152602081019050610b07565b505050509050019250505060405180910390f35b348015610b4257600080fd5b50610b8560048036036020811015610b5957600080fd5b81019080803573ffffffffffffffffffffffffffffffffffffffff169060200190929190505050612bdc565b005b348015610b9357600080fd5b50610b9c612f98565b604051808273ffffffffffffffffffffffffffffffffffffffff1673ffffffffffffffffffffffffffffffffffffffff16815260200191505060405180910390f35b348015610bea57600080fd5b50610c2d60048036036020811015610c0157600080fd5b81019080803573ffffffffffffffffffffffffffffffffffffffff169060200190929190505050612fbd565b604051808273ffffffffffffffffffffffffffffffffffffffff1673ffffffffffffffffffffffffffffffffffffffff16815260200191505060405180910390f35b348015610c7b57600080fd5b50610dec60048036036060811015610c9257600080fd5b8101908080359060200190640100000000811115610caf57600080fd5b820183602082011115610cc157600080fd5b80359060200191846001830284011164010000000083111715610ce357600080fd5b91908080601f016020809104026020016040519081016040528093929190818152602001838380828437600081840152601f19601f82011690508083019250505050505050919291929080359060200190640100000000811115610d4657600080fd5b820183602082011115610d5857600080fd5b80359060200191846001830284011164010000000083111715610d7a57600080fd5b91908080601f016020809104026020016040519081016040528093929190818152602001838380828437600081840152601f19601f820116905080830192505050505050509192919290803573ffffffffffffffffffffffffffffffffffffffff1690602001909291905050506130ef565b005b348015610dfa57600080fd5b50610e3d60048036036020811015610e1157600080fd5b81019080803573ffffffffffffffffffffffffffffffffffffffff169060200190929190505050613632565b6040518080602001828103825283818151815260200191508051906020019080838360005b83811015610e7d578082015181840152602081019050610e62565b50505050905090810190601f168015610eaa5780820380516001836020036101000a031916815260200191505b509250505060405180910390f35b348015610ec457600080fd5b50610f0760048036036020811015610edb57600080fd5b81019080803573ffffffffffffffffffffffffffffffffffffffff16906020019092919050505061386b565b604051808273ffffffffffffffffffffffffffffffffffffffff1673ffffffffffffffffffffffffffffffffffffffff16815260200191505060405180910390f35b348015610f5557600080fd5b50610f9860048036036020811015610f6c57600080fd5b81019080803573ffffffffffffffffffffffffffffffffffffffff16906020019092919050505061389e565b005b348015610fa657600080fd5b50610fe960048036036020811015610fbd57600080fd5b81019080803573ffffffffffffffffffffffffffffffffffffffff169060200190929190505050613e4c565b60405180806020018060200184151515158152602001838103835286818151815260200191508051906020019080838360005b8381101561103757808201518184015260208101905061101c565b50505050905090810190601f1680156110645780820380516001836020036101000a031916815260200191505b50838103825285818151815260200191508051906020019080838360005b8381101561109d578082015181840152602081019050611082565b50505050905090810190601f1680156110ca5780820380516001836020036101000a031916815260200191505b509550505050505060405180910390f35b3480156110e757600080fd5b5061112a600480360360208110156110fe57600080fd5b81019080803573ffffffffffffffffffffffffffffffffffffffff169060200190929190505050613fb3565b604051808215151515815260200191505060405180910390f35b34801561115057600080fd5b5061115961400c565b6040518080602001828103825283818151815260200191508051906020019060200280838360005b8381101561119c578082015181840152602081019050611181565b505050509050019250505060405180910390f35b3480156111bc57600080fd5b50611276600480360360208110156111d357600080fd5b81019080803590602001906401000000008111156111f057600080fd5b82018360208201111561120257600080fd5b8035906020019184600183028401116401000000008311171561122457600080fd5b91908080601f016020809104026020016040519081016040528093929190818152602001838380828437600081840152601f19601f82011690508083019250505050505050919291929050505061409a565b604051808273ffffffffffffffffffffffffffffffffffffffff1673ffffffffffffffffffffffffffffffffffffffff16815260200191505060405180910390f35b3480156112c457600080fd5b506112cd61445b565b6040518080602001828103825283818151815260200191508051906020019060200280838360005b838110156113105780820151818401526020810190506112f5565b505050509050019250505060405180910390f35b34801561133057600080fd5b506113736004803603602081101561134757600080fd5b81019080803573ffffffffffffffffffffffffffffffffffffffff1690602001909291905050506144e9565b604051808060200183151515158152602001828103825284818151815260200191508051906020019080838360005b838110156113bd5780820151818401526020810190506113a2565b50505050905090810190601f1680156113ea5780820380516001836020036101000a031916815260200191505b50935050505060405180910390f35b34801561140557600080fd5b506114486004803603602081101561141c57600080fd5b81019080803573ffffffffffffffffffffffffffffffffffffffff1690602001909291905050506145b2565b60405180806020018060200184151515158152602001838103835286818151815260200191508051906020019080838360005b8381101561149657808201518184015260208101905061147b565b50505050905090810190601f1680156114c35780820380516001836020036101000a031916815260200191505b50838103825285818151815260200191508051906020019080838360005b838110156114fc5780820151818401526020810190506114e1565b50505050905090810190601f1680156115295780820380516001836020036101000a031916815260200191505b509550505050505060405180910390f35b6000600360008373ffffffffffffffffffffffffffffffffffffffff1673ffffffffffffffffffffffffffffffffffffffff16815260200190815260200160002060030160009054906101000a900460ff169050919050565b6000809054906101000a900473ffffffffffffffffffffffffffffffffffffffff1673ffffffffffffffffffffffffffffffffffffffff163373ffffffffffffffffffffffffffffffffffffffff1614806115f357506115f233611f1f565b5b151561168d576040517f08c379a000000000000000000000000000000000000000000000000000000000815260040180806020018281038252602c8152602001807f4f6e6c792061646d696e206163636f756e74732063616e20706572666f726d2081526020017f7468697320616374696f6e2e000000000000000000000000000000000000000081525060400191505060405180910390fd5b8060008061169a83614719565b915091506060821561194d57600060048111156116b357fe5b8260048111156116bf57fe5b1415611702576040805190810160405280600581526020017f6f776e65720000000000000000000000000000000000000000000000000000008152509050611815565b6001600481111561170f57fe5b82600481111561171b57fe5b141561175e576040805190810160405280600581526020017f61646d696e0000000000000000000000000000000000000000000000000000008152509050611814565b6002600481111561176b57fe5b82600481111561177757fe5b14156117ba576040805190810160405280600781526020017f67617465776179000000000000000000000000000000000000000000000000008152509050611813565b600360048111156117c757fe5b8260048111156117d357fe5b1415611812576040805190810160405280600481526020017f6e6f64650000000000000000000000000000000000000000000000000000000081525090505b5b5b5b6118ac6040805190810160405280601c81526020017f4163636f756e7420616c72656164792061737369676e65642061732000000000815250826040805190810160405280600181526020017f2e00000000000000000000000000000000000000000000000000000000000000815250602060405190810160405280600081525060206040519081016040528060008152506147eb565b6040517f08c379a00000000000000000000000000000000000000000000000000000000081526004018080602001828103825283818151815260200191508051906020019080838360005b838110156119125780820151818401526020810190506118f7565b50505050905090810190601f16801561193f5780820380516001836020036101000a031916815260200191505b509250505060405180910390fd5b611955614c31565b604080519081016040528088815260200160011515815250905060058690806001815401808255809150509060018203906000526020600020016000909192909190916101000a81548173ffffffffffffffffffffffffffffffffffffffff021916908373ffffffffffffffffffffffffffffffffffffffff1602179055505080600260008873ffffffffffffffffffffffffffffffffffffffff1673ffffffffffffffffffffffffffffffffffffffff1681526020019081526020016000206000820151816000019080519060200190611a31929190614c4d565b5060208201518160010160006101000a81548160ff0219169083151502179055509050507ff38064fb0961167eb19c267824c0f58b468b4a4a2739fb3b1a9e040d7b25f7c8878760405180806020018373ffffffffffffffffffffffffffffffffffffffff1673ffffffffffffffffffffffffffffffffffffffff168152602001828103825284818151815260200191508051906020019080838360005b83811015611aea578082015181840152602081019050611acf565b50505050905090810190601f168015611b175780820380516001836020036101000a031916815260200191505b50935050505060405180910390a150505050505050565b600581815481101515611b3d57fe5b906000526020600020016000915054906101000a900473ffffffffffffffffffffffffffffffffffffffff1681565b6000809054906101000a900473ffffffffffffffffffffffffffffffffffffffff1673ffffffffffffffffffffffffffffffffffffffff163373ffffffffffffffffffffffffffffffffffffffff161480611bcc5750611bcb33611f1f565b5b1515611c66576040517f08c379a000000000000000000000000000000000000000000000000000000000815260040180806020018281038252602c8152602001807f4f6e6c792061646d696e206163636f756e74732063616e20706572666f726d2081526020017f7468697320616374696f6e2e000000000000000000000000000000000000000081525060400191505060405180910390fd5b611c6f81611f1f565b1515611d2f576040517f08c379a00000000000000000000000000000000000000000000000000000000081526004018080602001828103825260428152602001807f54686520676976656e20616464726573732069736e277420616e2061646d696e81526020017f206163636f756e74206f722061646d696e20616c72656164792072656d6f766581526020017f642e00000000000000000000000000000000000000000000000000000000000081525060600191505060405180910390fd5b6000600260008373ffffffffffffffffffffffffffffffffffffffff1673ffffffffffffffffffffffffffffffffffffffff168152602001908152602001600020905060008160010160006101000a81548160ff02191690831515021790555060008090505b600580549050811015611ec35760008373ffffffffffffffffffffffffffffffffffffffff16600583815481101515611dca57fe5b9060005260206000200160009054906101000a900473ffffffffffffffffffffffffffffffffffffffff1673ffffffffffffffffffffffffffffffffffffffff161415611e1957819050611eb7565b80821115611eb657600560018303815481101515611e3357fe5b9060005260206000200160009054906101000a900473ffffffffffffffffffffffffffffffffffffffff16600583815481101515611e6d57fe5b9060005260206000200160006101000a81548173ffffffffffffffffffffffffffffffffffffffff021916908373ffffffffffffffffffffffffffffffffffffffff1602179055505b5b50600181019050611d95565b506001600581818054905003915081611edc9190614ccd565b505050565b600781815481101515611ef057fe5b906000526020600020016000915054906101000a900473ffffffffffffffffffffffffffffffffffffffff1681565b6000600260008373ffffffffffffffffffffffffffffffffffffffff1673ffffffffffffffffffffffffffffffffffffffff16815260200190815260200160002060010160009054906101000a900460ff169050919050565b6060611f8382613fb3565b1515612043576040517f08c379a000000000000000000000000000000000000000000000000000000000815260040180806020018281038252604b8152602001807f4164647265737320676976656e206973206e6f7420612067617465776179206181526020017f646472657373206f72207468652067617465776179206973206e6f742079657481526020017f207265676973746572656400000000000000000000000000000000000000000081525060600191505060405180910390fd5b600160008373ffffffffffffffffffffffffffffffffffffffff1673ffffffffffffffffffffffffffffffffffffffff16815260200190815260200160002060020180548060200260200160405190810160405280929190818152602001828054801561210557602002820191906000526020600020905b8160009054906101000a900473ffffffffffffffffffffffffffffffffffffffff1673ffffffffffffffffffffffffffffffffffffffff16815260200190600101908083116120bb575b50505050509050919050565b60068181548110151561212057fe5b906000526020600020016000915054906101000a900473ffffffffffffffffffffffffffffffffffffffff1681565b6000809054906101000a900473ffffffffffffffffffffffffffffffffffffffff1673ffffffffffffffffffffffffffffffffffffffff163373ffffffffffffffffffffffffffffffffffffffff1614806121af57506121ae33611f1f565b5b1515612249576040517f08c379a000000000000000000000000000000000000000000000000000000000815260040180806020018281038252602c8152602001807f4f6e6c792061646d696e206163636f756e74732063616e20706572666f726d2081526020017f7468697320616374696f6e2e000000000000000000000000000000000000000081525060400191505060405180910390fd5b8160008061225683614719565b9150915060608215612509576000600481111561226f57fe5b82600481111561227b57fe5b14156122be576040805190810160405280600581526020017f6f776e657200000000000000000000000000000000000000000000000000000081525090506123d1565b600160048111156122cb57fe5b8260048111156122d757fe5b141561231a576040805190810160405280600581526020017f61646d696e00000000000000000000000000000000000000000000000000000081525090506123d0565b6002600481111561232757fe5b82600481111561233357fe5b1415612376576040805190810160405280600781526020017f676174657761790000000000000000000000000000000000000000000000000081525090506123cf565b6003600481111561238357fe5b82600481111561238f57fe5b14156123ce576040805190810160405280600481526020017f6e6f64650000000000000000000000000000000000000000000000000000000081525090505b5b5b5b6124686040805190810160405280601c81526020017f4163636f756e7420616c72656164792061737369676e65642061732000000000815250826040805190810160405280600181526020017f2e00000000000000000000000000000000000000000000000000000000000000815250602060405190810160405280600081525060206040519081016040528060008152506147eb565b6040517f08c379a00000000000000000000000000000000000000000000000000000000081526004018080602001828103825283818151815260200191508051906020019080838360005b838110156124ce5780820151818401526020810190506124b3565b50505050905090810190601f1680156124fb5780820380516001836020036101000a031916815260200191505b509250505060405180910390fd5b61251285613fb3565b15156125d2576040517f08c379a000000000000000000000000000000000000000000000000000000000815260040180806020018281038252604f8152602001807f546865206164647265737320676976656e206973206e6f74206120676174657781526020017f61792061646472657373206f72207468652067617465776179206973206e6f7481526020017f207965742072656769737465726564000000000000000000000000000000000081525060600191505060405180910390fd5b6125da614cf9565b6080604051908101604052808a8152602001898152602001600060405190808252806020026020018201604052801561262757816020015b60608152602001906001900390816126125790505b50815260200160011515815250905080600360008973ffffffffffffffffffffffffffffffffffffffff1673ffffffffffffffffffffffffffffffffffffffff1681526020019081526020016000206000820151816000019080519060200190612692929190614c4d565b5060208201518160010190805190602001906126af929190614c4d565b5060408201518160020190805190602001906126cc929190614d24565b5060608201518160030160006101000a81548160ff02191690831515021790555090505085600460008973ffffffffffffffffffffffffffffffffffffffff1673ffffffffffffffffffffffffffffffffffffffff16815260200190815260200160002060006101000a81548173ffffffffffffffffffffffffffffffffffffffff021916908373ffffffffffffffffffffffffffffffffffffffff16021790555060078790806001815401808255809150509060018203906000526020600020016000909192909190916101000a81548173ffffffffffffffffffffffffffffffffffffffff021916908373ffffffffffffffffffffffffffffffffffffffff16021790555050600160008773ffffffffffffffffffffffffffffffffffffffff1673ffffffffffffffffffffffffffffffffffffffff1681526020019081526020016000206002018790806001815401808255809150509060018203906000526020600020016000909192909190916101000a81548173ffffffffffffffffffffffffffffffffffffffff021916908373ffffffffffffffffffffffffffffffffffffffff16021790555050505050505050505050565b61288e33613fb3565b1515612928576040517f08c379a000000000000000000000000000000000000000000000000000000000815260040180806020018281038252602e8152602001807f4f6e6c792067617465776179206163636f756e74732063616e20706572666f7281526020017f6d207468697320616374696f6e2e00000000000000000000000000000000000081525060400191505060405180910390fd5b60006129338761409a565b905060606129e36040805190810160405280600181526020017f2800000000000000000000000000000000000000000000000000000000000000815250876040805190810160405280600281526020017f2c20000000000000000000000000000000000000000000000000000000000000815250886040805190810160405280600281526020017f2c200000000000000000000000000000000000000000000000000000000000008152506147eb565b9050612a4781856040805190810160405280600181526020017f2900000000000000000000000000000000000000000000000000000000000000815250602060405190810160405280600081525060206040519081016040528060008152506147eb565b90506060612ac2886040805190810160405280600281526020017f2c20000000000000000000000000000000000000000000000000000000000000815250846040805190810160405280600181526020017f2c00000000000000000000000000000000000000000000000000000000000000815250886147eb565b9050600360008473ffffffffffffffffffffffffffffffffffffffff1673ffffffffffffffffffffffffffffffffffffffff168152602001908152602001600020600201819080600181540180825580915050906001820390600052602060002001600090919290919091509080519060200190612b41929190614d84565b5050505050505050505050565b60606006805480602002602001604051908101604052809291908181526020018280548015612bd257602002820191906000526020600020905b8160009054906101000a900473ffffffffffffffffffffffffffffffffffffffff1673ffffffffffffffffffffffffffffffffffffffff1681526020019060010190808311612b88575b5050505050905090565b6000809054906101000a900473ffffffffffffffffffffffffffffffffffffffff1673ffffffffffffffffffffffffffffffffffffffff163373ffffffffffffffffffffffffffffffffffffffff161480612c3c5750612c3b33611f1f565b5b1515612cd6576040517f08c379a000000000000000000000000000000000000000000000000000000000815260040180806020018281038252602c8152602001807f4f6e6c792061646d696e206163636f756e74732063616e20706572666f726d2081526020017f7468697320616374696f6e2e000000000000000000000000000000000000000081525060400191505060405180910390fd5b600160008273ffffffffffffffffffffffffffffffffffffffff1673ffffffffffffffffffffffffffffffffffffffff16815260200190815260200160002060030160009054906101000a900460ff161515612de6576040517f08c379a00000000000000000000000000000000000000000000000000000000081526004018080602001828103825260478152602001807f54686520676976656e20616464726573732069736e277420612067617465776181526020017f792061646472657373206f72206761746577617920697320616c72656164792081526020017f72656d6f7665640000000000000000000000000000000000000000000000000081525060600191505060405180910390fd5b6000600160008373ffffffffffffffffffffffffffffffffffffffff1673ffffffffffffffffffffffffffffffffffffffff168152602001908152602001600020905060008160030160006101000a81548160ff02191690831515021790555060008090505b600680549050811015612f7a5760008373ffffffffffffffffffffffffffffffffffffffff16600683815481101515612e8157fe5b9060005260206000200160009054906101000a900473ffffffffffffffffffffffffffffffffffffffff1673ffffffffffffffffffffffffffffffffffffffff161415612ed057819050612f6e565b80821115612f6d57600660018303815481101515612eea57fe5b9060005260206000200160009054906101000a900473ffffffffffffffffffffffffffffffffffffffff16600683815481101515612f2457fe5b9060005260206000200160006101000a81548173ffffffffffffffffffffffffffffffffffffffff021916908373ffffffffffffffffffffffffffffffffffffffff1602179055505b5b50600181019050612e4c565b506001600681818054905003915081612f939190614ccd565b505050565b6000809054906101000a900473ffffffffffffffffffffffffffffffffffffffff1681565b6000612fc88261153a565b1515613088576040517f08c379a00000000000000000000000000000000000000000000000000000000081526004018080602001828103825260458152602001807f4164647265737320676976656e206973206e6f742061206e6f6465206164647281526020017f657373206f7220746865206e6f6465206973206e6f742079657420726567697381526020017f746572656400000000000000000000000000000000000000000000000000000081525060600191505060405180910390fd5b600460008373ffffffffffffffffffffffffffffffffffffffff1673ffffffffffffffffffffffffffffffffffffffff16815260200190815260200160002060009054906101000a900473ffffffffffffffffffffffffffffffffffffffff169050919050565b6000809054906101000a900473ffffffffffffffffffffffffffffffffffffffff1673ffffffffffffffffffffffffffffffffffffffff163373ffffffffffffffffffffffffffffffffffffffff16148061314f575061314e33611f1f565b5b15156131e9576040517f08c379a000000000000000000000000000000000000000000000000000000000815260040180806020018281038252602c8152602001807f4f6e6c792061646d696e206163636f756e74732063616e20706572666f726d2081526020017f7468697320616374696f6e2e000000000000000000000000000000000000000081525060400191505060405180910390fd5b806000806131f683614719565b91509150606082156134a9576000600481111561320f57fe5b82600481111561321b57fe5b141561325e576040805190810160405280600581526020017f6f776e65720000000000000000000000000000000000000000000000000000008152509050613371565b6001600481111561326b57fe5b82600481111561327757fe5b14156132ba576040805190810160405280600581526020017f61646d696e0000000000000000000000000000000000000000000000000000008152509050613370565b600260048111156132c757fe5b8260048111156132d357fe5b1415613316576040805190810160405280600781526020017f6761746577617900000000000000000000000000000000000000000000000000815250905061336f565b6003600481111561332357fe5b82600481111561332f57fe5b141561336e576040805190810160405280600481526020017f6e6f64650000000000000000000000000000000000000000000000000000000081525090505b5b5b5b6134086040805190810160405280601c81526020017f4163636f756e7420616c72656164792061737369676e65642061732000000000815250826040805190810160405280600181526020017f2e00000000000000000000000000000000000000000000000000000000000000815250602060405190810160405280600081525060206040519081016040528060008152506147eb565b6040517f08c379a00000000000000000000000000000000000000000000000000000000081526004018080602001828103825283818151815260200191508051906020019080838360005b8381101561346e578082015181840152602081019050613453565b50505050905090810190601f16801561349b5780820380516001836020036101000a031916815260200191505b509250505060405180910390fd5b6134b1614e04565b60806040519081016040528089815260200188815260200160006040519080825280602002602001820160405280156134f95781602001602082028038833980820191505090505b50815260200160011515815250905060068690806001815401808255809150509060018203906000526020600020016000909192909190916101000a81548173ffffffffffffffffffffffffffffffffffffffff021916908373ffffffffffffffffffffffffffffffffffffffff1602179055505080600160008873ffffffffffffffffffffffffffffffffffffffff1673ffffffffffffffffffffffffffffffffffffffff16815260200190815260200160002060008201518160000190805190602001906135ca929190614c4d565b5060208201518160010190805190602001906135e7929190614c4d565b506040820151816002019080519060200190613604929190614e2f565b5060608201518160030160006101000a81548160ff0219169083151502179055509050505050505050505050565b606080600360008473ffffffffffffffffffffffffffffffffffffffff1673ffffffffffffffffffffffffffffffffffffffff168152602001908152602001600020600201805480602002602001604051908101604052809291908181526020016000905b82821015613753578382906000526020600020018054600181600116156101000203166002900480601f01602080910402602001604051908101604052809291908181526020018280546001816001161561010002031660029004801561373f5780601f106137145761010080835404028352916020019161373f565b820191906000526020600020905b81548152906001019060200180831161372257829003601f168201915b505050505081526020019060010190613697565b50505050905060606020604051908101604052806000815250905060008090505b8251811015613860576137d182848381518110151561378f57fe5b906020019060200201516020604051908101604052806000815250602060405190810160405280600081525060206040519081016040528060008152506147eb565b915060018351038114151561385557613852826040805190810160405280600181526020017f3b000000000000000000000000000000000000000000000000000000000000008152506020604051908101604052806000815250602060405190810160405280600081525060206040519081016040528060008152506147eb565b91505b600181019050613774565b508092505050919050565b60046020528060005260406000206000915054906101000a900473ffffffffffffffffffffffffffffffffffffffff1681565b6000809054906101000a900473ffffffffffffffffffffffffffffffffffffffff1673ffffffffffffffffffffffffffffffffffffffff163373ffffffffffffffffffffffffffffffffffffffff1614806138fe57506138fd33611f1f565b5b1515613998576040517f08c379a000000000000000000000000000000000000000000000000000000000815260040180806020018281038252602c8152602001807f4f6e6c792061646d696e206163636f756e74732063616e20706572666f726d2081526020017f7468697320616374696f6e2e000000000000000000000000000000000000000081525060400191505060405180910390fd5b600360008273ffffffffffffffffffffffffffffffffffffffff1673ffffffffffffffffffffffffffffffffffffffff16815260200190815260200160002060030160009054906101000a900460ff161515613aa8576040517f08c379a00000000000000000000000000000000000000000000000000000000081526004018080602001828103825260418152602001807f54686520676976656e20616464726573732069736e27742061206e6f6465206181526020017f646472657373206f72206e6f646520697320616c72656164792072656d6f766581526020017f640000000000000000000000000000000000000000000000000000000000000081525060600191505060405180910390fd5b6000600360008373ffffffffffffffffffffffffffffffffffffffff1673ffffffffffffffffffffffffffffffffffffffff168152602001908152602001600020905060008160030160006101000a81548160ff02191690831515021790555060008090505b600780549050811015613c3c5760008373ffffffffffffffffffffffffffffffffffffffff16600783815481101515613b4357fe5b9060005260206000200160009054906101000a900473ffffffffffffffffffffffffffffffffffffffff1673ffffffffffffffffffffffffffffffffffffffff161415613b9257819050613c30565b80821115613c2f57600760018303815481101515613bac57fe5b9060005260206000200160009054906101000a900473ffffffffffffffffffffffffffffffffffffffff16600783815481101515613be657fe5b9060005260206000200160006101000a81548173ffffffffffffffffffffffffffffffffffffffff021916908373ffffffffffffffffffffffffffffffffffffffff1602179055505b5b50600181019050613b0e565b50606060016000600460008673ffffffffffffffffffffffffffffffffffffffff1673ffffffffffffffffffffffffffffffffffffffff16815260200190815260200160002060009054906101000a900473ffffffffffffffffffffffffffffffffffffffff1673ffffffffffffffffffffffffffffffffffffffff1673ffffffffffffffffffffffffffffffffffffffff168152602001908152602001600020600201805480602002602001604051908101604052809291908181526020018280548015613d6057602002820191906000526020600020905b8160009054906101000a900473ffffffffffffffffffffffffffffffffffffffff1673ffffffffffffffffffffffffffffffffffffffff1681526020019060010190808311613d16575b5050505050905060008090505b8151811015613e465760008473ffffffffffffffffffffffffffffffffffffffff168383815181101515613d9d57fe5b9060200190602002015173ffffffffffffffffffffffffffffffffffffffff161415613dcb57819050613e3a565b80821115613e39578260018303815181101515613de457fe5b906020019060200201518383815181101515613dfc57fe5b9060200190602002019073ffffffffffffffffffffffffffffffffffffffff16908173ffffffffffffffffffffffffffffffffffffffff16815250505b5b50600181019050613d6d565b50505050565b6001602052806000526040600020600091509050806000018054600181600116156101000203166002900480601f016020809104026020016040519081016040528092919081815260200182805460018160011615610100020316600290048015613ef85780601f10613ecd57610100808354040283529160200191613ef8565b820191906000526020600020905b815481529060010190602001808311613edb57829003601f168201915b505050505090806001018054600181600116156101000203166002900480601f016020809104026020016040519081016040528092919081815260200182805460018160011615610100020316600290048015613f965780601f10613f6b57610100808354040283529160200191613f96565b820191906000526020600020905b815481529060010190602001808311613f7957829003601f168201915b5050505050908060030160009054906101000a900460ff16905083565b6000600160008373ffffffffffffffffffffffffffffffffffffffff1673ffffffffffffffffffffffffffffffffffffffff16815260200190815260200160002060030160009054906101000a900460ff169050919050565b6060600780548060200260200160405190810160405280929190818152602001828054801561409057602002820191906000526020600020905b8160009054906101000a900473ffffffffffffffffffffffffffffffffffffffff1673ffffffffffffffffffffffffffffffffffffffff1681526020019060010190808311614046575b5050505050905090565b600080600090505b6007805490508110156143e7576140b7614cf9565b600360006007848154811015156140ca57fe5b9060005260206000200160009054906101000a900473ffffffffffffffffffffffffffffffffffffffff1673ffffffffffffffffffffffffffffffffffffffff1673ffffffffffffffffffffffffffffffffffffffff16815260200190815260200160002060806040519081016040529081600082018054600181600116156101000203166002900480601f0160208091040260200160405190810160405280929190818152602001828054600181600116156101000203166002900480156141d45780601f106141a9576101008083540402835291602001916141d4565b820191906000526020600020905b8154815290600101906020018083116141b757829003601f168201915b50505050508152602001600182018054600181600116156101000203166002900480601f0160208091040260200160405190810160405280929190818152602001828054600181600116156101000203166002900480156142765780601f1061424b57610100808354040283529160200191614276565b820191906000526020600020905b81548152906001019060200180831161425957829003601f168201915b5050505050815260200160028201805480602002602001604051908101604052809291908181526020016000905b82821015614360578382906000526020600020018054600181600116156101000203166002900480601f01602080910402602001604051908101604052809291908181526020018280546001816001161561010002031660029004801561434c5780601f106143215761010080835404028352916020019161434c565b820191906000526020600020905b81548152906001019060200180831161432f57829003601f168201915b5050505050815260200190600101906142a4565b5050505081526020016003820160009054906101000a900460ff1615151515815250509050614393816020015185614c0a565b156143db576007828154811015156143a757fe5b9060005260206000200160009054906101000a900473ffffffffffffffffffffffffffffffffffffffff1692505050614456565b506001810190506140a2565b506040517f08c379a00000000000000000000000000000000000000000000000000000000081526004018080602001828103825260168152602001807f4e6f64652061646472657373206e6f7420666f756e640000000000000000000081525060200191505060405180910390fd5b919050565b606060058054806020026020016040519081016040528092919081815260200182805480156144df57602002820191906000526020600020905b8160009054906101000a900473ffffffffffffffffffffffffffffffffffffffff1673ffffffffffffffffffffffffffffffffffffffff1681526020019060010190808311614495575b5050505050905090565b6002602052806000526040600020600091509050806000018054600181600116156101000203166002900480601f0160208091040260200160405190810160405280929190818152602001828054600181600116156101000203166002900480156145955780601f1061456a57610100808354040283529160200191614595565b820191906000526020600020905b81548152906001019060200180831161457857829003601f168201915b5050505050908060010160009054906101000a900460ff16905082565b6003602052806000526040600020600091509050806000018054600181600116156101000203166002900480601f01602080910402602001604051908101604052809291908181526020018280546001816001161561010002031660029004801561465e5780601f106146335761010080835404028352916020019161465e565b820191906000526020600020905b81548152906001019060200180831161464157829003601f168201915b505050505090806001018054600181600116156101000203166002900480601f0160208091040260200160405190810160405280929190818152602001828054600181600116156101000203166002900480156146fc5780601f106146d1576101008083540402835291602001916146fc565b820191906000526020600020905b8154815290600101906020018083116146df57829003601f168201915b5050505050908060030160009054906101000a900460ff16905083565b6000806000806000809054906101000a900473ffffffffffffffffffffffffffffffffffffffff1673ffffffffffffffffffffffffffffffffffffffff168573ffffffffffffffffffffffffffffffffffffffff1614156147815760009050600191506147de565b61478a85611f1f565b1561479c5760019050600191506147dd565b6147a585613fb3565b156147b75760029050600191506147dc565b6147c08561153a565b156147d25760039050600191506147db565b60049050600091505b5b5b5b8181935093505050915091565b6060808690506060869050606086905060608690506060869050606081518351855187518951010101016040519080825280601f01601f1916602001820160405280156148475781602001600182028038833980820191505090505b5090506060819050600080905060008090505b885181101561490d57888181518110151561487157fe5b9060200101517f010000000000000000000000000000000000000000000000000000000000000090047f01000000000000000000000000000000000000000000000000000000000000000283838060010194508151811015156148d057fe5b9060200101907effffffffffffffffffffffffffffffffffffffffffffffffffffffffffffff1916908160001a905350808060010191505061485a565b5060008090505b87518110156149c757878181518110151561492b57fe5b9060200101517f010000000000000000000000000000000000000000000000000000000000000090047f010000000000000000000000000000000000000000000000000000000000000002838380600101945081518110151561498a57fe5b9060200101907effffffffffffffffffffffffffffffffffffffffffffffffffffffffffffff1916908160001a9053508080600101915050614914565b5060008090505b8651811015614a815786818151811015156149e557fe5b9060200101517f010000000000000000000000000000000000000000000000000000000000000090047f0100000000000000000000000000000000000000000000000000000000000000028383806001019450815181101515614a4457fe5b9060200101907effffffffffffffffffffffffffffffffffffffffffffffffffffffffffffff1916908160001a90535080806001019150506149ce565b5060008090505b8551811015614b3b578581815181101515614a9f57fe5b9060200101517f010000000000000000000000000000000000000000000000000000000000000090047f0100000000000000000000000000000000000000000000000000000000000000028383806001019450815181101515614afe57fe5b9060200101907effffffffffffffffffffffffffffffffffffffffffffffffffffffffffffff1916908160001a9053508080600101915050614a88565b5060008090505b8451811015614bf5578481815181101515614b5957fe5b9060200101517f010000000000000000000000000000000000000000000000000000000000000090047f0100000000000000000000000000000000000000000000000000000000000000028383806001019450815181101515614bb857fe5b9060200101907effffffffffffffffffffffffffffffffffffffffffffffffffffffffffffff1916908160001a9053508080600101915050614b42565b50819850505050505050505095945050505050565b60006060839050606083905080805190602001208280519060200120149250505092915050565b6040805190810160405280606081526020016000151581525090565b828054600181600116156101000203166002900490600052602060002090601f016020900481019282601f10614c8e57805160ff1916838001178555614cbc565b82800160010185558215614cbc579182015b82811115614cbb578251825591602001919060010190614ca0565b5b509050614cc99190614eb9565b5090565b815481835581811115614cf457818360005260206000209182019101614cf39190614eb9565b5b505050565b6080604051908101604052806060815260200160608152602001606081526020016000151581525090565b828054828255906000526020600020908101928215614d73579160200282015b82811115614d72578251829080519060200190614d62929190614c4d565b5091602001919060010190614d44565b5b509050614d809190614ede565b5090565b828054600181600116156101000203166002900490600052602060002090601f016020900481019282601f10614dc557805160ff1916838001178555614df3565b82800160010185558215614df3579182015b82811115614df2578251825591602001919060010190614dd7565b5b509050614e009190614eb9565b5090565b6080604051908101604052806060815260200160608152602001606081526020016000151581525090565b828054828255906000526020600020908101928215614ea8579160200282015b82811115614ea75782518260006101000a81548173ffffffffffffffffffffffffffffffffffffffff021916908373ffffffffffffffffffffffffffffffffffffffff16021790555091602001919060010190614e4f565b5b509050614eb59190614f0a565b5090565b614edb91905b80821115614ed7576000816000905550600101614ebf565b5090565b90565b614f0791905b80821115614f035760008181614efa9190614f4d565b50600101614ee4565b5090565b90565b614f4a91905b80821115614f4657600081816101000a81549073ffffffffffffffffffffffffffffffffffffffff021916905550600101614f10565b5090565b90565b50805460018160011615610100020316600290046000825580601f10614f735750614f92565b601f016020900490600052602060002090810190614f919190614eb9565b5b5056fea165627a7a72305820ed72cc2631fe617fd9b6a8fecd105ded97667d93640455f1a07821ca599915f00029",
  "source": "pragma solidity ^0.5.0;\r\n\r\n/**\r\n * This contract allows the user to manage the different LoRa gateways, nodes and data sent by hem\r\n */\r\ncontract GatewayManager {\r\n    address public owner;\r\n     \r\n    \r\n    constructor() payable public {\r\n        owner = msg.sender;\r\n    }\r\n\r\n    struct Gateway {\r\n        string name;\r\n        string gatewayEUI; //unique identifier\r\n        address[] nodes;\r\n        bool registered;\r\n    }\r\n    \r\n    struct Node {\r\n        string id;\r\n        string devEUI; //unique identifier\r\n        \r\n        //Array of strings in format \"%timestamp%, %GPS coordinates%, %batteryLevel%\"\r\n        //%location% = \"(Latitude, Longitude, Altitude)\"\r\n        //Altitude is represented in meters\r\n        string[] locationHistory;\r\n        bool registered;\r\n    }\r\n    \r\n    struct Admin {\r\n        string name;\r\n        bool authorized;\r\n    }\r\n    \r\n    mapping(address => Gateway) public gatewayMapping; //Maps a gateway address to its Gateway object instance\r\n    mapping(address => Admin) public adminMapping; //Maps an admin address to its Admin object instance\r\n    mapping(address => Node) public nodeMapping; //Maps a node address to a Node object instance\r\n    mapping(address => address) public nodeGatewayMapping; //Maps a node address to its associated gateway address\r\n    \r\n    address[] public admins;\r\n    address[] public gateways;\r\n    address[] public nodes; //Note: Every node (LoRa emitter) will have an address to identifiy them, even if the account isn't used\r\n    \r\n    enum AccountHolder {\r\n        OWNER,\r\n        ADMIN,\r\n        GATEWAY,\r\n        NODE,\r\n        NULL\r\n    }\r\n\r\n    \r\n    event AdminAdded(string name, address addr);\r\n    /*\r\n    event AdminRemoved(string name, address addr);\r\n    \r\n    event GatewayAdded(string name, string gatewayEUI, address addr);\r\n    event GatewayRemoved(string name, string gatewayEUI, address addr);\r\n    \r\n    event NodeAdded(string name, string devEUI, address nodeAddr, address gatewayAddr);\r\n    event NodeRemoved(string name, string devEUI, address nodeAddr, address gatewayAddr);\r\n    \r\n    event LocationDataAdded(address nodeAddr, string data);\r\n    */\r\n\r\n    modifier adminAction() {\r\n        require(msg.sender == owner || isAdmin(msg.sender), \"Only admin accounts can perform this action.\");\r\n        _;\r\n    }\r\n    \r\n    modifier gatewayAction() {\r\n        require(isGateway(msg.sender), \"Only gateway accounts can perform this action.\");\r\n        _;\r\n    }\r\n    \r\n        //the given address shouldn't correspond to any object in this contract (Admin, Gateway, Node or owner);\r\n    modifier notAssigned(address _addr) {\r\n        (bool b, AccountHolder who) = isAssigned(_addr);\r\n        string memory s;\r\n        \r\n        if (b) {\r\n            if(who == AccountHolder.OWNER) {\r\n                s = \"owner\";\r\n            } else if(who == AccountHolder.ADMIN) {\r\n                s = \"admin\";\r\n            } else if(who == AccountHolder.GATEWAY) {\r\n                s = \"gateway\";\r\n            } else if(who == AccountHolder.NODE) {\r\n                s = \"node\";\r\n            }\r\n            revert(strConcat(\"Account already assigned as \", s, \".\", \"\", \"\"));\r\n        }\r\n        _;\r\n    }\r\n\r\n    /*function getAdminInfo(address _addr) public view returns (string memory name) {\r\n        Admin memory a = adminMapping[_addr];\r\n        \r\n        if(!a.authorized) {\r\n            revert(\"The given address is not an admin address or account is not yet authorized\");\r\n        }\r\n        \r\n        return (a.name);\r\n    }    \r\n    \r\n    function getGatewayInfo(address _addr) public view returns(string memory name, string memory gatewayEUI) {\r\n        Gateway memory g = gatewayMapping[_addr];\r\n        if (!g.registered) {\r\n            revert(\"The given address is not a gateway address or gateway is not yet registered\");\r\n        }\r\n        return (g.name, g.gatewayEUI);\r\n    }\r\n    \r\n    function getNodeInfo(address _addr) public view returns(string memory name, string memory devEUI, address gatewayAddr) {\r\n        Node memory n = nodeMapping[_addr];\r\n        if(!n.registered) {\r\n            revert(\"The given address is not a node address or node is not yet registered\");\r\n        }\r\n        \r\n        return (n.id, n.devEUI, nodeGatewayMapping[_addr]);\r\n    }*/\r\n    \r\n    function isAdmin(address _addr) public view returns (bool) {\r\n        return adminMapping[_addr].authorized;\r\n    }\r\n    \r\n    function isGateway(address _addr) public view returns(bool) {\r\n        return gatewayMapping[_addr].registered;\r\n    }\r\n    \r\n    function isNode(address _addr) public view returns(bool) {\r\n        return nodeMapping[_addr].registered;\r\n    }\r\n        \r\n    function isAssigned(address _addr) internal view returns(bool, AccountHolder) {\r\n        bool b;\r\n        AccountHolder who;\r\n        \r\n        if(_addr == owner) {\r\n            who = AccountHolder.OWNER;\r\n            b = true;\r\n        } else if(isAdmin(_addr)) {\r\n            who = AccountHolder.ADMIN;\r\n            b = true;\r\n        } else if(isGateway(_addr)) {\r\n            who = AccountHolder.GATEWAY;\r\n            b = true;\r\n        } else if(isNode(_addr)) {\r\n            who = AccountHolder.NODE;\r\n            b = true;\r\n        } else {\r\n            who = AccountHolder.NULL;\r\n            b = false;\r\n        }\r\n        \r\n        return (b, who);\r\n    }\r\n    \r\n    /**\r\n     * Returns the address of the gateway associated to this node\r\n     */\r\n    function getAssociatedGateway(address _nodeAddr) public view returns(address) {\r\n        //Checks if the given address is a node address\r\n        require(isNode(_nodeAddr), \"Address given is not a node address or the node is not yet registered\");\r\n        return nodeGatewayMapping[_nodeAddr];\r\n    }\r\n    \r\n    /**\r\n     * Returns a list of all associated nodes addresses\r\n     */\r\n    function getAssociatedNodes(address _gatewayAddr) public view returns(address[] memory) {\r\n        //Checks if the given address is a gateway address\r\n        require(isGateway(_gatewayAddr), \"Address given is not a gateway address or the gateway is not yet registered\");\r\n        return gatewayMapping[_gatewayAddr].nodes;\r\n    }\r\n\r\n    function getAllAdminAddresses() public view returns(address[] memory) {\r\n        return admins;\r\n    }\r\n\r\n    function getAllGatewayAddresses() public view returns(address[] memory) {\r\n        return gateways;\r\n    }\r\n    \r\n    function getAllNodeAddresses() public view returns(address[]  memory) {\r\n        return nodes;\r\n    }\r\n\r\n    \r\n    /**\r\n     * Returns a concatenation of all strings in the node's locationHistory[] array, separated by a \";\"\r\n     */\r\n    function getNodeLocationHistory(address _addr) public view returns(string memory packedData) {\r\n        string[] memory l = nodeMapping[_addr].locationHistory;\r\n        string memory res = \"\";\r\n        \r\n        for (uint i = 0; i < l.length; i += 1) {\r\n            res = strConcat(res, l[i], \"\", \"\", \"\");\r\n            \r\n            if(i != l.length-1) {\r\n                res = strConcat(res, \";\", \"\", \"\", \"\");\r\n            }\r\n        }\r\n        \r\n        return res;\r\n    }\r\n    \r\n    function findNodeAddress(string memory _devEUI) public view returns(address) {\r\n        for(uint i = 0; i < nodes.length; i += 1) {\r\n            Node memory n = nodeMapping[nodes[i]];\r\n            if (compareStrings(n.devEUI, _devEUI)) {\r\n                return nodes[i];\r\n            }\r\n        }\r\n        \r\n        revert(\"Node address not found\");\r\n    }\r\n\r\n    function addAdmin(string memory _name, address _addr) public adminAction notAssigned(_addr) {\r\n        Admin memory a = Admin({name: _name, authorized: true});\r\n        admins.push(_addr);\r\n        adminMapping[_addr] = a;\r\n\r\n        emit AdminAdded(_name, _addr);\r\n    }\r\n    \r\n    function registerGateway(string memory _name, string memory _gatewayEUI, address _addr) public adminAction notAssigned(_addr) {\r\n        Gateway memory g = Gateway({name: _name, gatewayEUI: _gatewayEUI, registered: true, nodes: new address[](0)});\r\n        gateways.push(_addr);\r\n        gatewayMapping[_addr] = g;\r\n        \r\n        //emit GatewayAdded(_name, _gatewayEUI, _addr);\r\n    }\r\n    \r\n    function registerNode( string memory _id, string memory _devEUI, address _nodeAddr, address _gatewayAddr) public adminAction\r\n    notAssigned(_nodeAddr) {\r\n        //Check if gateway exists\r\n        require(isGateway(_gatewayAddr), \"The address given is not a gateway address or the gateway is not yet registered\");\r\n        \r\n        Node memory n = Node({id: _id, devEUI: _devEUI, registered: true, locationHistory: new string[](0)});\r\n        //Map node address to its object\r\n        nodeMapping[_nodeAddr] = n;\r\n        //Maps node address to its associated gateway\r\n        nodeGatewayMapping[_nodeAddr] = _gatewayAddr;\r\n        //Pushes node address to nodes array, representng all nodes managed by this contract\r\n        nodes.push(_nodeAddr);\r\n        //Pushes node's address to the given gateway's nodes list, representing all gateway's associated nodes\r\n        gatewayMapping[_gatewayAddr].nodes.push(_nodeAddr);\r\n        \r\n        //emit NodeAdded(_id, _devEUI, _nodeAddr, _gatewayAddr);\r\n    }\r\n    \r\n    function removeAdmin(address _addr) public adminAction {\r\n        //Check if account is admin\r\n        require(isAdmin(_addr), \"The given address isn't an admin account or admin already removed.\");\r\n\r\n        Admin storage a = adminMapping[_addr];\r\n        a.authorized = false;\r\n        \r\n        //remove admin's address from \"admins\" array\r\n        for(uint i = 0; i < admins.length; i += 1) {\r\n            uint index;\r\n            if (admins[i] == _addr) {\r\n                index = i;\r\n            } else if (i > index) {\r\n                admins[i] = admins[i-1];\r\n            }\r\n        }\r\n        \r\n        admins.length -= 1;\r\n\r\n        //emit AdminRemoved(a.name, _addr);\r\n    }\r\n    \r\n    function removeGateway(address _addr) public adminAction {\r\n        //Check if gateway exists\r\n        require(gatewayMapping[_addr].registered, \"The given address isn't a gateway address or gateway is already removed\");\r\n        //Change ggateway \"registered\" to false\r\n        Gateway storage g = gatewayMapping[_addr];\r\n        g.registered = false;\r\n        \r\n        //remove gateway's address from \"gateways\" list\r\n        for(uint i = 0; i < gateways.length; i += 1) {\r\n            uint index; \r\n            if (gateways[i] == _addr) {\r\n                index = i;\r\n            } else if (i > index) {\r\n                gateways[i] = gateways[i-1];\r\n            }\r\n        }\r\n        \r\n        gateways.length -= 1;\r\n        \r\n        //emit GatewayRemoved(g.name, g.gatewayEUI, _addr);\r\n    }\r\n    \r\n    function removeNode(address _nodeAddr) public adminAction {\r\n        //Check if node exists\r\n        require(nodeMapping[_nodeAddr].registered, \"The given address isn't a node address or node is already removed\");\r\n        //Change node \"registered\" to false\r\n        Node storage n = nodeMapping[_nodeAddr];\r\n        n.registered = false;\r\n        \r\n        //Remove node's address from \"nodes\" list\r\n        for(uint i = 0; i < nodes.length; i += 1) {\r\n            uint index;\r\n            if (nodes[i] == _nodeAddr) {\r\n                index = i;\r\n            } else if (i > index) {\r\n                nodes[i] = nodes[i-1];\r\n            }\r\n        }\r\n        \r\n        //Remove node from associated gateway's \"nodes\" list\r\n        address[] memory _nodes = gatewayMapping[nodeGatewayMapping[_nodeAddr]].nodes;\r\n        for(uint i = 0; i < _nodes.length; i += 1) {\r\n            uint index;\r\n            \r\n            if (_nodes[i] == _nodeAddr) {\r\n                index = i;\r\n            } else if (i > index) {\r\n                _nodes[i] = _nodes[i-1];\r\n            }\r\n        }\r\n        \r\n        //emit NodeRemoved(n.id, n.devEUI, _nodeAddr, nodeGatewayMapping[_nodeAddr]);\r\n    }\r\n    \r\n    function setNodeLocationData(string memory devEUI, string memory timestamp, string memory latitude, string memory longitude, string memory altitude, string memory batteryLevel) public gatewayAction {\r\n        address _nodeAddr = findNodeAddress(devEUI);\r\n        string memory coordinates = strConcat(\"(\", latitude, \", \", longitude, \", \");\r\n        coordinates = strConcat(coordinates, altitude, \")\", \"\", \"\");\r\n        string memory res = strConcat(timestamp, \", \", coordinates, \",\", batteryLevel);\r\n        \r\n        nodeMapping[_nodeAddr].locationHistory.push(res);\r\n        \r\n        //emit LocationDataAdded(_nodeAddr, res);\r\n    }\r\n    \r\n    //HELPER//\r\n     /**\r\n     * Helper functions for string concatenation \r\n     * (http://cryptodir.blogspot.com.tr/2016/03/solidity-concat-string.html)\r\n     */\r\n    function strConcat(string memory _a, string memory _b, string memory _c, string memory _d, string memory _e)\r\n    internal pure returns (string memory){\r\n        bytes memory _ba = bytes(_a);\r\n        bytes memory _bb = bytes(_b);\r\n        bytes memory _bc = bytes(_c);\r\n        bytes memory _bd = bytes(_d);\r\n        bytes memory _be = bytes(_e);\r\n        string memory abcde = new string(_ba.length + _bb.length + _bc.length + _bd.length + _be.length);\r\n        bytes memory babcde = bytes(abcde);\r\n        uint k = 0;\r\n        for (uint i = 0; i < _ba.length; i++) babcde[k++] = _ba[i];\r\n        for (uint i = 0; i < _bb.length; i++) babcde[k++] = _bb[i];\r\n        for (uint i = 0; i < _bc.length; i++) babcde[k++] = _bc[i];\r\n        for (uint i = 0; i < _bd.length; i++) babcde[k++] = _bd[i];\r\n        for (uint i = 0; i < _be.length; i++) babcde[k++] = _be[i];\r\n        return string(babcde);\r\n    }\r\n\r\n    /*\r\n    function strConcat(string memory _a, string memory _b, string memory _c, string memory _d)  public pure returns (string memory) {\r\n        return strConcat(_a, _b, _c, _d, \"\");\r\n    }\r\n    \r\n    function strConcat(string memory _a, string memory _b, string memory _c) public pure returns (string memory) {\r\n        return strConcat(_a, _b, _c, \"\", \"\");\r\n    }\r\n    \r\n    function strConcat(string memory _a, string memory _b) public pure returns (string memory) {\r\n        return strConcat(_a, _b, \"\", \"\", \"\");\r\n    }\r\n    */\r\n    \r\n    /**\r\n     * Helper function to compare strings\r\n     */\r\n    function compareStrings(string memory a, string memory b) internal pure returns (bool){\r\n        bytes memory aBytes = bytes(a);\r\n        bytes memory bBytes = bytes(b);\r\n        return keccak256(aBytes) == keccak256(bBytes);\r\n    }\r\n}",
  "sourcePath": "C:/Users/inaci/OneDrive/Documents/_IIFF_Hackathon/_Project/lorawan-blockchain/blockchain/contracts/GatewayManager.sol",
  "compiler": {
    "name": "solc",
    "version": "0.5.0+commit.1d4f565a.Emscripten.clang"
  },
  "schemaVersion": "3.0.1",
  "updatedAt": "2019-02-17T21:56:58.003Z",
  "devdoc": {
    "methods": {}
  },
  "userdoc": {
    "methods": {
      "getAssociatedGateway(address)": {
        "notice": "Returns the address of the gateway associated to this node\r"
      },
      "getAssociatedNodes(address)": {
        "notice": "Returns a list of all associated nodes addresses\r"
      },
      "getNodeLocationHistory(address)": {
        "notice": "Returns a concatenation of all strings in the node's locationHistory[] array, separated by a \";\"\r"
      }
    },
    "notice": "This contract allows the user to manage the different LoRa gateways, nodes and data sent by hem\r"
  }
}