{
  "contractName": "GatewayManager",
  "abi": [
    {
      "constant": true,
      "inputs": [
        {
          "name": "",
          "type": "uint256"
        }
      ],
      "name": "admins",
      "outputs": [
        {
          "name": "",
          "type": "address"
        }
      ],
      "payable": false,
      "stateMutability": "view",
      "type": "function",
      "signature": "0x14bfd6d0"
    },
    {
      "constant": true,
      "inputs": [
        {
          "name": "",
          "type": "uint256"
        }
      ],
      "name": "nodes",
      "outputs": [
        {
          "name": "",
          "type": "address"
        }
      ],
      "payable": false,
      "stateMutability": "view",
      "type": "function",
      "signature": "0x1c53c280"
    },
    {
      "constant": true,
      "inputs": [
        {
          "name": "",
          "type": "uint256"
        }
      ],
      "name": "gateways",
      "outputs": [
        {
          "name": "",
          "type": "address"
        }
      ],
      "payable": false,
      "stateMutability": "view",
      "type": "function",
      "signature": "0x64c17056"
    },
    {
      "constant": true,
      "inputs": [],
      "name": "owner",
      "outputs": [
        {
          "name": "",
          "type": "address"
        }
      ],
      "payable": false,
      "stateMutability": "view",
      "type": "function",
      "signature": "0x8da5cb5b"
    },
    {
      "constant": true,
      "inputs": [
        {
          "name": "",
          "type": "address"
        }
      ],
      "name": "nodeGatewayMapping",
      "outputs": [
        {
          "name": "",
          "type": "address"
        }
      ],
      "payable": false,
      "stateMutability": "view",
      "type": "function",
      "signature": "0xaa1d6f77"
    },
    {
      "constant": true,
      "inputs": [
        {
          "name": "",
          "type": "address"
        }
      ],
      "name": "gatewayMapping",
      "outputs": [
        {
          "name": "name",
          "type": "string"
        },
        {
          "name": "gatewayEUI",
          "type": "string"
        },
        {
          "name": "registered",
          "type": "bool"
        }
      ],
      "payable": false,
      "stateMutability": "view",
      "type": "function",
      "signature": "0xbd3a08e7"
    },
    {
      "constant": true,
      "inputs": [
        {
          "name": "",
          "type": "address"
        }
      ],
      "name": "adminMapping",
      "outputs": [
        {
          "name": "name",
          "type": "string"
        },
        {
          "name": "authorized",
          "type": "bool"
        }
      ],
      "payable": false,
      "stateMutability": "view",
      "type": "function",
      "signature": "0xed2b77e6"
    },
    {
      "constant": true,
      "inputs": [
        {
          "name": "",
          "type": "address"
        }
      ],
      "name": "nodeMapping",
      "outputs": [
        {
          "name": "id",
          "type": "string"
        },
        {
          "name": "devEUI",
          "type": "string"
        },
        {
          "name": "registered",
          "type": "bool"
        }
      ],
      "payable": false,
      "stateMutability": "view",
      "type": "function",
      "signature": "0xfbd1b4ce"
    },
    {
      "inputs": [],
      "payable": true,
      "stateMutability": "payable",
      "type": "constructor",
      "signature": "constructor"
    },
    {
      "anonymous": false,
      "inputs": [
        {
          "indexed": false,
          "name": "name",
          "type": "string"
        },
        {
          "indexed": false,
          "name": "addr",
          "type": "address"
        }
      ],
      "name": "AdminAdded",
      "type": "event",
      "signature": "0xf38064fb0961167eb19c267824c0f58b468b4a4a2739fb3b1a9e040d7b25f7c8"
    },
    {
      "constant": true,
      "inputs": [
        {
          "name": "_addr",
          "type": "address"
        }
      ],
      "name": "isAdmin",
      "outputs": [
        {
          "name": "",
          "type": "bool"
        }
      ],
      "payable": false,
      "stateMutability": "view",
      "type": "function",
      "signature": "0x24d7806c"
    },
    {
      "constant": true,
      "inputs": [
        {
          "name": "_addr",
          "type": "address"
        }
      ],
      "name": "isGateway",
      "outputs": [
        {
          "name": "",
          "type": "bool"
        }
      ],
      "payable": false,
      "stateMutability": "view",
      "type": "function",
      "signature": "0xbfe69d9a"
    },
    {
      "constant": true,
      "inputs": [
        {
          "name": "_addr",
          "type": "address"
        }
      ],
      "name": "isNode",
      "outputs": [
        {
          "name": "",
          "type": "bool"
        }
      ],
      "payable": false,
      "stateMutability": "view",
      "type": "function",
      "signature": "0x01750152"
    },
    {
      "constant": true,
      "inputs": [
        {
          "name": "_nodeAddr",
          "type": "address"
        }
      ],
      "name": "getAssociatedGateway",
      "outputs": [
        {
          "name": "",
          "type": "address"
        }
      ],
      "payable": false,
      "stateMutability": "view",
      "type": "function",
      "signature": "0x9303e23d"
    },
    {
      "constant": true,
      "inputs": [
        {
          "name": "_gatewayAddr",
          "type": "address"
        }
      ],
      "name": "getAssociatedNodes",
      "outputs": [
        {
          "name": "",
          "type": "address[]"
        }
      ],
      "payable": false,
      "stateMutability": "view",
      "type": "function",
      "signature": "0x442aa164"
    },
    {
      "constant": true,
      "inputs": [],
      "name": "getAllGatewayAddresses",
      "outputs": [
        {
          "name": "",
          "type": "address[]"
        }
      ],
      "payable": false,
      "stateMutability": "view",
      "type": "function",
      "signature": "0x863a2a01"
    },
    {
      "constant": true,
      "inputs": [],
      "name": "getAllNodeAddresses",
      "outputs": [
        {
          "name": "",
          "type": "address[]"
        }
      ],
      "payable": false,
      "stateMutability": "view",
      "type": "function",
      "signature": "0xc8fe3a01"
    },
    {
      "constant": true,
      "inputs": [
        {
          "name": "_addr",
          "type": "address"
        }
      ],
      "name": "getNodeLocationHistory",
      "outputs": [
        {
          "name": "packedData",
          "type": "string"
        }
      ],
      "payable": false,
      "stateMutability": "view",
      "type": "function",
      "signature": "0x9ca691b7"
    },
    {
      "constant": true,
      "inputs": [
        {
          "name": "_devEUI",
          "type": "string"
        }
      ],
      "name": "findNodeAddress",
      "outputs": [
        {
          "name": "",
          "type": "address"
        }
      ],
      "payable": false,
      "stateMutability": "view",
      "type": "function",
      "signature": "0xe013b1d5"
    },
    {
      "constant": false,
      "inputs": [
        {
          "name": "_name",
          "type": "string"
        },
        {
          "name": "_addr",
          "type": "address"
        }
      ],
      "name": "addAdmin",
      "outputs": [],
      "payable": false,
      "stateMutability": "nonpayable",
      "type": "function",
      "signature": "0x0831b05f"
    },
    {
      "constant": false,
      "inputs": [
        {
          "name": "_name",
          "type": "string"
        },
        {
          "name": "_gatewayEUI",
          "type": "string"
        },
        {
          "name": "_addr",
          "type": "address"
        }
      ],
      "name": "registerGateway",
      "outputs": [],
      "payable": false,
      "stateMutability": "nonpayable",
      "type": "function",
      "signature": "0x9617cc41"
    },
    {
      "constant": false,
      "inputs": [
        {
          "name": "_id",
          "type": "string"
        },
        {
          "name": "_devEUI",
          "type": "string"
        },
        {
          "name": "_nodeAddr",
          "type": "address"
        },
        {
          "name": "_gatewayAddr",
          "type": "address"
        }
      ],
      "name": "registerNode",
      "outputs": [],
      "payable": false,
      "stateMutability": "nonpayable",
      "type": "function",
      "signature": "0x71bbbe7e"
    },
    {
      "constant": false,
      "inputs": [
        {
          "name": "_addr",
          "type": "address"
        }
      ],
      "name": "removeAdmin",
      "outputs": [],
      "payable": false,
      "stateMutability": "nonpayable",
      "type": "function",
      "signature": "0x1785f53c"
    },
    {
      "constant": false,
      "inputs": [
        {
          "name": "_addr",
          "type": "address"
        }
      ],
      "name": "removeGateway",
      "outputs": [],
      "payable": false,
      "stateMutability": "nonpayable",
      "type": "function",
      "signature": "0x8a885e35"
    },
    {
      "constant": false,
      "inputs": [
        {
          "name": "_nodeAddr",
          "type": "address"
        }
      ],
      "name": "removeNode",
      "outputs": [],
      "payable": false,
      "stateMutability": "nonpayable",
      "type": "function",
      "signature": "0xb2b99ec9"
    },
    {
      "constant": false,
      "inputs": [
        {
          "name": "devEUI",
          "type": "string"
        },
        {
          "name": "timestamp",
          "type": "string"
        },
        {
          "name": "latitude",
          "type": "string"
        },
        {
          "name": "longitude",
          "type": "string"
        },
        {
          "name": "altitude",
          "type": "string"
        },
        {
          "name": "batteryLevel",
          "type": "string"
        }
      ],
      "name": "setNodeLocationData",
      "outputs": [],
      "payable": false,
      "stateMutability": "nonpayable",
      "type": "function",
      "signature": "0x7f0e46d6"
    }
  ],
  "bytecode": "0x6080604052336000806101000a81548173ffffffffffffffffffffffffffffffffffffffff021916908373ffffffffffffffffffffffffffffffffffffffff16021790555061535c806100536000396000f3fe60806040526004361061013e576000357c0100000000000000000000000000000000000000000000000000000000900463ffffffff16806301750152146101435780630831b05f146101ac57806314bfd6d0146102945780631785f53c1461030f5780631c53c2801461036057806324d7806c146103db578063442aa1641461044457806364c17056146104ea57806371bbbe7e146105655780637f0e46d614610704578063863a2a0114610abf5780638a885e3514610b2b5780638da5cb5b14610b7c5780639303e23d14610bd35780639617cc4114610c645780639ca691b714610de3578063aa1d6f7714610ead578063b2b99ec914610f3e578063bd3a08e714610f8f578063bfe69d9a146110d0578063c8fe3a0114611139578063e013b1d5146111a5578063ed2b77e6146112ad578063fbd1b4ce14611382575b600080fd5b34801561014f57600080fd5b506101926004803603602081101561016657600080fd5b81019080803573ffffffffffffffffffffffffffffffffffffffff1690602001909291905050506114c3565b604051808215151515815260200191505060405180910390f35b3480156101b857600080fd5b50610292600480360360408110156101cf57600080fd5b81019080803590602001906401000000008111156101ec57600080fd5b8201836020820111156101fe57600080fd5b8035906020019184600183028401116401000000008311171561022057600080fd5b91908080601f016020809104026020016040519081016040528093929190818152602001838380828437600081840152601f19601f820116905080830192505050505050509192919290803573ffffffffffffffffffffffffffffffffffffffff16906020019092919050505061151c565b005b3480156102a057600080fd5b506102cd600480360360208110156102b757600080fd5b8101908080359060200190929190505050611ab7565b604051808273ffffffffffffffffffffffffffffffffffffffff1673ffffffffffffffffffffffffffffffffffffffff16815260200191505060405180910390f35b34801561031b57600080fd5b5061035e6004803603602081101561033257600080fd5b81019080803573ffffffffffffffffffffffffffffffffffffffff169060200190929190505050611af5565b005b34801561036c57600080fd5b506103996004803603602081101561038357600080fd5b8101908080359060200190929190505050611f92565b604051808273ffffffffffffffffffffffffffffffffffffffff1673ffffffffffffffffffffffffffffffffffffffff16815260200191505060405180910390f35b3480156103e757600080fd5b5061042a600480360360208110156103fe57600080fd5b81019080803573ffffffffffffffffffffffffffffffffffffffff169060200190929190505050611fd0565b604051808215151515815260200191505060405180910390f35b34801561045057600080fd5b506104936004803603602081101561046757600080fd5b81019080803573ffffffffffffffffffffffffffffffffffffffff169060200190929190505050612029565b6040518080602001828103825283818151815260200191508051906020019060200280838360005b838110156104d65780820151818401526020810190506104bb565b505050509050019250505060405180910390f35b3480156104f657600080fd5b506105236004803603602081101561050d57600080fd5b81019080803590602001909291905050506121c2565b604051808273ffffffffffffffffffffffffffffffffffffffff1673ffffffffffffffffffffffffffffffffffffffff16815260200191505060405180910390f35b34801561057157600080fd5b506107026004803603608081101561058857600080fd5b81019080803590602001906401000000008111156105a557600080fd5b8201836020820111156105b757600080fd5b803590602001918460018302840111640100000000831117156105d957600080fd5b91908080601f016020809104026020016040519081016040528093929190818152602001838380828437600081840152601f19601f8201169050808301925050505050505091929192908035906020019064010000000081111561063c57600080fd5b82018360208201111561064e57600080fd5b8035906020019184600183028401116401000000008311171561067057600080fd5b91908080601f016020809104026020016040519081016040528093929190818152602001838380828437600081840152601f19601f820116905080830192505050505050509192919290803573ffffffffffffffffffffffffffffffffffffffff169060200190929190803573ffffffffffffffffffffffffffffffffffffffff169060200190929190505050612200565b005b34801561071057600080fd5b50610abd600480360360c081101561072757600080fd5b810190808035906020019064010000000081111561074457600080fd5b82018360208201111561075657600080fd5b8035906020019184600183028401116401000000008311171561077857600080fd5b91908080601f016020809104026020016040519081016040528093929190818152602001838380828437600081840152601f19601f820116905080830192505050505050509192919290803590602001906401000000008111156107db57600080fd5b8201836020820111156107ed57600080fd5b8035906020019184600183028401116401000000008311171561080f57600080fd5b91908080601f016020809104026020016040519081016040528093929190818152602001838380828437600081840152601f19601f8201169050808301925050505050505091929192908035906020019064010000000081111561087257600080fd5b82018360208201111561088457600080fd5b803590602001918460018302840111640100000000831117156108a657600080fd5b91908080601f016020809104026020016040519081016040528093929190818152602001838380828437600081840152601f19601f8201169050808301925050505050505091929192908035906020019064010000000081111561090957600080fd5b82018360208201111561091b57600080fd5b8035906020019184600183028401116401000000008311171561093d57600080fd5b91908080601f016020809104026020016040519081016040528093929190818152602001838380828437600081840152601f19601f820116905080830192505050505050509192919290803590602001906401000000008111156109a057600080fd5b8201836020820111156109b257600080fd5b803590602001918460018302840111640100000000831117156109d457600080fd5b91908080601f016020809104026020016040519081016040528093929190818152602001838380828437600081840152601f19601f82011690508083019250505050505050919291929080359060200190640100000000811115610a3757600080fd5b820183602082011115610a4957600080fd5b80359060200191846001830284011164010000000083111715610a6b57600080fd5b91908080601f016020809104026020016040519081016040528093929190818152602001838380828437600081840152601f19601f820116905080830192505050505050509192919290505050612936565b005b348015610acb57600080fd5b50610ad4612bff565b6040518080602001828103825283818151815260200191508051906020019060200280838360005b83811015610b17578082015181840152602081019050610afc565b505050509050019250505060405180910390f35b348015610b3757600080fd5b50610b7a60048036036020811015610b4e57600080fd5b81019080803573ffffffffffffffffffffffffffffffffffffffff169060200190929190505050612c8d565b005b348015610b8857600080fd5b50610b9161323c565b604051808273ffffffffffffffffffffffffffffffffffffffff1673ffffffffffffffffffffffffffffffffffffffff16815260200191505060405180910390f35b348015610bdf57600080fd5b50610c2260048036036020811015610bf657600080fd5b81019080803573ffffffffffffffffffffffffffffffffffffffff169060200190929190505050613261565b604051808273ffffffffffffffffffffffffffffffffffffffff1673ffffffffffffffffffffffffffffffffffffffff16815260200191505060405180910390f35b348015610c7057600080fd5b50610de160048036036060811015610c8757600080fd5b8101908080359060200190640100000000811115610ca457600080fd5b820183602082011115610cb657600080fd5b80359060200191846001830284011164010000000083111715610cd857600080fd5b91908080601f016020809104026020016040519081016040528093929190818152602001838380828437600081840152601f19601f82011690508083019250505050505050919291929080359060200190640100000000811115610d3b57600080fd5b820183602082011115610d4d57600080fd5b80359060200191846001830284011164010000000083111715610d6f57600080fd5b91908080601f016020809104026020016040519081016040528093929190818152602001838380828437600081840152601f19601f820116905080830192505050505050509192919290803573ffffffffffffffffffffffffffffffffffffffff1690602001909291905050506132ca565b005b348015610def57600080fd5b50610e3260048036036020811015610e0657600080fd5b81019080803573ffffffffffffffffffffffffffffffffffffffff16906020019092919050505061380d565b6040518080602001828103825283818151815260200191508051906020019080838360005b83811015610e72578082015181840152602081019050610e57565b50505050905090810190601f168015610e9f5780820380516001836020036101000a031916815260200191505b509250505060405180910390f35b348015610eb957600080fd5b50610efc60048036036020811015610ed057600080fd5b81019080803573ffffffffffffffffffffffffffffffffffffffff169060200190929190505050613a46565b604051808273ffffffffffffffffffffffffffffffffffffffff1673ffffffffffffffffffffffffffffffffffffffff16815260200191505060405180910390f35b348015610f4a57600080fd5b50610f8d60048036036020811015610f6157600080fd5b81019080803573ffffffffffffffffffffffffffffffffffffffff169060200190929190505050613a79565b005b348015610f9b57600080fd5b50610fde60048036036020811015610fb257600080fd5b81019080803573ffffffffffffffffffffffffffffffffffffffff169060200190929190505050614275565b60405180806020018060200184151515158152602001838103835286818151815260200191508051906020019080838360005b8381101561102c578082015181840152602081019050611011565b50505050905090810190601f1680156110595780820380516001836020036101000a031916815260200191505b50838103825285818151815260200191508051906020019080838360005b83811015611092578082015181840152602081019050611077565b50505050905090810190601f1680156110bf5780820380516001836020036101000a031916815260200191505b509550505050505060405180910390f35b3480156110dc57600080fd5b5061111f600480360360208110156110f357600080fd5b81019080803573ffffffffffffffffffffffffffffffffffffffff1690602001909291905050506143dc565b604051808215151515815260200191505060405180910390f35b34801561114557600080fd5b5061114e614435565b6040518080602001828103825283818151815260200191508051906020019060200280838360005b83811015611191578082015181840152602081019050611176565b505050509050019250505060405180910390f35b3480156111b157600080fd5b5061126b600480360360208110156111c857600080fd5b81019080803590602001906401000000008111156111e557600080fd5b8201836020820111156111f757600080fd5b8035906020019184600183028401116401000000008311171561121957600080fd5b91908080601f016020809104026020016040519081016040528093929190818152602001838380828437600081840152601f19601f8201169050808301925050505050505091929192905050506144c3565b604051808273ffffffffffffffffffffffffffffffffffffffff1673ffffffffffffffffffffffffffffffffffffffff16815260200191505060405180910390f35b3480156112b957600080fd5b506112fc600480360360208110156112d057600080fd5b81019080803573ffffffffffffffffffffffffffffffffffffffff169060200190929190505050614884565b604051808060200183151515158152602001828103825284818151815260200191508051906020019080838360005b8381101561134657808201518184015260208101905061132b565b50505050905090810190601f1680156113735780820380516001836020036101000a031916815260200191505b50935050505060405180910390f35b34801561138e57600080fd5b506113d1600480360360208110156113a557600080fd5b81019080803573ffffffffffffffffffffffffffffffffffffffff16906020019092919050505061494d565b60405180806020018060200184151515158152602001838103835286818151815260200191508051906020019080838360005b8381101561141f578082015181840152602081019050611404565b50505050905090810190601f16801561144c5780820380516001836020036101000a031916815260200191505b50838103825285818151815260200191508051906020019080838360005b8381101561148557808201518184015260208101905061146a565b50505050905090810190601f1680156114b25780820380516001836020036101000a031916815260200191505b509550505050505060405180910390f35b6000600360008373ffffffffffffffffffffffffffffffffffffffff1673ffffffffffffffffffffffffffffffffffffffff16815260200190815260200160002060030160009054906101000a900460ff169050919050565b6000809054906101000a900473ffffffffffffffffffffffffffffffffffffffff1673ffffffffffffffffffffffffffffffffffffffff163373ffffffffffffffffffffffffffffffffffffffff16148061157c575061157b33611fd0565b5b1515611616576040517f08c379a000000000000000000000000000000000000000000000000000000000815260040180806020018281038252602c8152602001807f4f6e6c792061646d696e206163636f756e74732063616e20706572666f726d2081526020017f7468697320616374696f6e2e000000000000000000000000000000000000000081525060400191505060405180910390fd5b8060008061162383614ab4565b91509150606082156118d6576000600481111561163c57fe5b82600481111561164857fe5b141561168b576040805190810160405280600581526020017f6f776e6572000000000000000000000000000000000000000000000000000000815250905061179e565b6001600481111561169857fe5b8260048111156116a457fe5b14156116e7576040805190810160405280600581526020017f61646d696e000000000000000000000000000000000000000000000000000000815250905061179d565b600260048111156116f457fe5b82600481111561170057fe5b1415611743576040805190810160405280600781526020017f6761746577617900000000000000000000000000000000000000000000000000815250905061179c565b6003600481111561175057fe5b82600481111561175c57fe5b141561179b576040805190810160405280600481526020017f6e6f64650000000000000000000000000000000000000000000000000000000081525090505b5b5b5b6118356040805190810160405280601c81526020017f4163636f756e7420616c72656164792061737369676e65642061732000000000815250826040805190810160405280600181526020017f2e0000000000000000000000000000000000000000000000000000000000000081525060206040519081016040528060008152506020604051908101604052806000815250614b86565b6040517f08c379a00000000000000000000000000000000000000000000000000000000081526004018080602001828103825283818151815260200191508051906020019080838360005b8381101561189b578082015181840152602081019050611880565b50505050905090810190601f1680156118c85780820380516001836020036101000a031916815260200191505b509250505060405180910390fd5b6118de614fcc565b604080519081016040528088815260200160011515815250905060058690806001815401808255809150509060018203906000526020600020016000909192909190916101000a81548173ffffffffffffffffffffffffffffffffffffffff021916908373ffffffffffffffffffffffffffffffffffffffff1602179055505080600260008873ffffffffffffffffffffffffffffffffffffffff1673ffffffffffffffffffffffffffffffffffffffff16815260200190815260200160002060008201518160000190805190602001906119ba929190614fe8565b5060208201518160010160006101000a81548160ff0219169083151502179055509050507ff38064fb0961167eb19c267824c0f58b468b4a4a2739fb3b1a9e040d7b25f7c8878760405180806020018373ffffffffffffffffffffffffffffffffffffffff1673ffffffffffffffffffffffffffffffffffffffff168152602001828103825284818151815260200191508051906020019080838360005b83811015611a73578082015181840152602081019050611a58565b50505050905090810190601f168015611aa05780820380516001836020036101000a031916815260200191505b50935050505060405180910390a150505050505050565b600581815481101515611ac657fe5b906000526020600020016000915054906101000a900473ffffffffffffffffffffffffffffffffffffffff1681565b6000809054906101000a900473ffffffffffffffffffffffffffffffffffffffff1673ffffffffffffffffffffffffffffffffffffffff163373ffffffffffffffffffffffffffffffffffffffff161480611b555750611b5433611fd0565b5b1515611bef576040517f08c379a000000000000000000000000000000000000000000000000000000000815260040180806020018281038252602c8152602001807f4f6e6c792061646d696e206163636f756e74732063616e20706572666f726d2081526020017f7468697320616374696f6e2e000000000000000000000000000000000000000081525060400191505060405180910390fd5b611bf881611fd0565b1515611cb8576040517f08c379a00000000000000000000000000000000000000000000000000000000081526004018080602001828103825260428152602001807f54686520676976656e20616464726573732069736e277420616e2061646d696e81526020017f206163636f756e74206f722061646d696e20616c72656164792072656d6f766581526020017f642e00000000000000000000000000000000000000000000000000000000000081525060600191505060405180910390fd5b611cc0614fcc565b600260008373ffffffffffffffffffffffffffffffffffffffff1673ffffffffffffffffffffffffffffffffffffffff168152602001908152602001600020604080519081016040529081600082018054600181600116156101000203166002900480601f016020809104026020016040519081016040528092919081815260200182805460018160011615610100020316600290048015611da35780601f10611d7857610100808354040283529160200191611da3565b820191906000526020600020905b815481529060010190602001808311611d8657829003601f168201915b505050505081526020016001820160009054906101000a900460ff1615151515815250509050600081602001901515908115158152505060058290806001815401808255809150509060018203906000526020600020016000909192909190916101000a81548173ffffffffffffffffffffffffffffffffffffffff021916908373ffffffffffffffffffffffffffffffffffffffff1602179055505060008090505b600580549050811015611f745760008373ffffffffffffffffffffffffffffffffffffffff16600583815481101515611e7b57fe5b9060005260206000200160009054906101000a900473ffffffffffffffffffffffffffffffffffffffff1673ffffffffffffffffffffffffffffffffffffffff161415611eca57819050611f68565b80821115611f6757600560018303815481101515611ee457fe5b9060005260206000200160009054906101000a900473ffffffffffffffffffffffffffffffffffffffff16600583815481101515611f1e57fe5b9060005260206000200160006101000a81548173ffffffffffffffffffffffffffffffffffffffff021916908373ffffffffffffffffffffffffffffffffffffffff1602179055505b5b50600181019050611e46565b506001600581818054905003915081611f8d9190615068565b505050565b600781815481101515611fa157fe5b906000526020600020016000915054906101000a900473ffffffffffffffffffffffffffffffffffffffff1681565b6000600260008373ffffffffffffffffffffffffffffffffffffffff1673ffffffffffffffffffffffffffffffffffffffff16815260200190815260200160002060010160009054906101000a900460ff169050919050565b6060612034826143dc565b15156120f4576040517f08c379a000000000000000000000000000000000000000000000000000000000815260040180806020018281038252604b8152602001807f4164647265737320676976656e206973206e6f7420612067617465776179206181526020017f646472657373206f72207468652067617465776179206973206e6f742079657481526020017f207265676973746572656400000000000000000000000000000000000000000081525060600191505060405180910390fd5b600160008373ffffffffffffffffffffffffffffffffffffffff1673ffffffffffffffffffffffffffffffffffffffff1681526020019081526020016000206002018054806020026020016040519081016040528092919081815260200182805480156121b657602002820191906000526020600020905b8160009054906101000a900473ffffffffffffffffffffffffffffffffffffffff1673ffffffffffffffffffffffffffffffffffffffff168152602001906001019080831161216c575b50505050509050919050565b6006818154811015156121d157fe5b906000526020600020016000915054906101000a900473ffffffffffffffffffffffffffffffffffffffff1681565b6000809054906101000a900473ffffffffffffffffffffffffffffffffffffffff1673ffffffffffffffffffffffffffffffffffffffff163373ffffffffffffffffffffffffffffffffffffffff161480612260575061225f33611fd0565b5b15156122fa576040517f08c379a000000000000000000000000000000000000000000000000000000000815260040180806020018281038252602c8152602001807f4f6e6c792061646d696e206163636f756e74732063616e20706572666f726d2081526020017f7468697320616374696f6e2e000000000000000000000000000000000000000081525060400191505060405180910390fd5b8160008061230783614ab4565b91509150606082156125ba576000600481111561232057fe5b82600481111561232c57fe5b141561236f576040805190810160405280600581526020017f6f776e65720000000000000000000000000000000000000000000000000000008152509050612482565b6001600481111561237c57fe5b82600481111561238857fe5b14156123cb576040805190810160405280600581526020017f61646d696e0000000000000000000000000000000000000000000000000000008152509050612481565b600260048111156123d857fe5b8260048111156123e457fe5b1415612427576040805190810160405280600781526020017f67617465776179000000000000000000000000000000000000000000000000008152509050612480565b6003600481111561243457fe5b82600481111561244057fe5b141561247f576040805190810160405280600481526020017f6e6f64650000000000000000000000000000000000000000000000000000000081525090505b5b5b5b6125196040805190810160405280601c81526020017f4163636f756e7420616c72656164792061737369676e65642061732000000000815250826040805190810160405280600181526020017f2e0000000000000000000000000000000000000000000000000000000000000081525060206040519081016040528060008152506020604051908101604052806000815250614b86565b6040517f08c379a00000000000000000000000000000000000000000000000000000000081526004018080602001828103825283818151815260200191508051906020019080838360005b8381101561257f578082015181840152602081019050612564565b50505050905090810190601f1680156125ac5780820380516001836020036101000a031916815260200191505b509250505060405180910390fd5b6125c3856143dc565b1515612683576040517f08c379a000000000000000000000000000000000000000000000000000000000815260040180806020018281038252604f8152602001807f546865206164647265737320676976656e206973206e6f74206120676174657781526020017f61792061646472657373206f72207468652067617465776179206973206e6f7481526020017f207965742072656769737465726564000000000000000000000000000000000081525060600191505060405180910390fd5b61268b615094565b6080604051908101604052808a815260200189815260200160006040519080825280602002602001820160405280156126d857816020015b60608152602001906001900390816126c35790505b50815260200160011515815250905080600360008973ffffffffffffffffffffffffffffffffffffffff1673ffffffffffffffffffffffffffffffffffffffff1681526020019081526020016000206000820151816000019080519060200190612743929190614fe8565b506020820151816001019080519060200190612760929190614fe8565b50604082015181600201908051906020019061277d9291906150bf565b5060608201518160030160006101000a81548160ff02191690831515021790555090505085600460008973ffffffffffffffffffffffffffffffffffffffff1673ffffffffffffffffffffffffffffffffffffffff16815260200190815260200160002060006101000a81548173ffffffffffffffffffffffffffffffffffffffff021916908373ffffffffffffffffffffffffffffffffffffffff16021790555060078790806001815401808255809150509060018203906000526020600020016000909192909190916101000a81548173ffffffffffffffffffffffffffffffffffffffff021916908373ffffffffffffffffffffffffffffffffffffffff16021790555050600160008773ffffffffffffffffffffffffffffffffffffffff1673ffffffffffffffffffffffffffffffffffffffff1681526020019081526020016000206002018790806001815401808255809150509060018203906000526020600020016000909192909190916101000a81548173ffffffffffffffffffffffffffffffffffffffff021916908373ffffffffffffffffffffffffffffffffffffffff16021790555050505050505050505050565b61293f336143dc565b15156129d9576040517f08c379a000000000000000000000000000000000000000000000000000000000815260040180806020018281038252602e8152602001807f4f6e6c792067617465776179206163636f756e74732063616e20706572666f7281526020017f6d207468697320616374696f6e2e00000000000000000000000000000000000081525060400191505060405180910390fd5b60006129e4876144c3565b90506060612a946040805190810160405280600181526020017f2800000000000000000000000000000000000000000000000000000000000000815250876040805190810160405280600281526020017f2c20000000000000000000000000000000000000000000000000000000000000815250886040805190810160405280600281526020017f2c20000000000000000000000000000000000000000000000000000000000000815250614b86565b9050612af881856040805190810160405280600181526020017f290000000000000000000000000000000000000000000000000000000000000081525060206040519081016040528060008152506020604051908101604052806000815250614b86565b90506060612b73886040805190810160405280600281526020017f2c20000000000000000000000000000000000000000000000000000000000000815250846040805190810160405280600181526020017f2c0000000000000000000000000000000000000000000000000000000000000081525088614b86565b9050600360008473ffffffffffffffffffffffffffffffffffffffff1673ffffffffffffffffffffffffffffffffffffffff168152602001908152602001600020600201819080600181540180825580915050906001820390600052602060002001600090919290919091509080519060200190612bf292919061511f565b5050505050505050505050565b60606006805480602002602001604051908101604052809291908181526020018280548015612c8357602002820191906000526020600020905b8160009054906101000a900473ffffffffffffffffffffffffffffffffffffffff1673ffffffffffffffffffffffffffffffffffffffff1681526020019060010190808311612c39575b5050505050905090565b6000809054906101000a900473ffffffffffffffffffffffffffffffffffffffff1673ffffffffffffffffffffffffffffffffffffffff163373ffffffffffffffffffffffffffffffffffffffff161480612ced5750612cec33611fd0565b5b1515612d87576040517f08c379a000000000000000000000000000000000000000000000000000000000815260040180806020018281038252602c8152602001807f4f6e6c792061646d696e206163636f756e74732063616e20706572666f726d2081526020017f7468697320616374696f6e2e000000000000000000000000000000000000000081525060400191505060405180910390fd5b600160008273ffffffffffffffffffffffffffffffffffffffff1673ffffffffffffffffffffffffffffffffffffffff16815260200190815260200160002060030160009054906101000a900460ff161515612e97576040517f08c379a00000000000000000000000000000000000000000000000000000000081526004018080602001828103825260478152602001807f54686520676976656e20616464726573732069736e277420612067617465776181526020017f792061646472657373206f72206761746577617920697320616c72656164792081526020017f72656d6f7665640000000000000000000000000000000000000000000000000081525060600191505060405180910390fd5b612e9f61519f565b600160008373ffffffffffffffffffffffffffffffffffffffff1673ffffffffffffffffffffffffffffffffffffffff16815260200190815260200160002060806040519081016040529081600082018054600181600116156101000203166002900480601f016020809104026020016040519081016040528092919081815260200182805460018160011615610100020316600290048015612f835780601f10612f5857610100808354040283529160200191612f83565b820191906000526020600020905b815481529060010190602001808311612f6657829003601f168201915b50505050508152602001600182018054600181600116156101000203166002900480601f0160208091040260200160405190810160405280929190818152602001828054600181600116156101000203166002900480156130255780601f10612ffa57610100808354040283529160200191613025565b820191906000526020600020905b81548152906001019060200180831161300857829003601f168201915b50505050508152602001600282018054806020026020016040519081016040528092919081815260200182805480156130b357602002820191906000526020600020905b8160009054906101000a900473ffffffffffffffffffffffffffffffffffffffff1673ffffffffffffffffffffffffffffffffffffffff1681526020019060010190808311613069575b505050505081526020016003820160009054906101000a900460ff1615151515815250509050600081606001901515908115158152505060008090505b60068054905081101561321e5760008373ffffffffffffffffffffffffffffffffffffffff1660068381548110151561312557fe5b9060005260206000200160009054906101000a900473ffffffffffffffffffffffffffffffffffffffff1673ffffffffffffffffffffffffffffffffffffffff16141561317457819050613212565b808211156132115760066001830381548110151561318e57fe5b9060005260206000200160009054906101000a900473ffffffffffffffffffffffffffffffffffffffff166006838154811015156131c857fe5b9060005260206000200160006101000a81548173ffffffffffffffffffffffffffffffffffffffff021916908373ffffffffffffffffffffffffffffffffffffffff1602179055505b5b506001810190506130f0565b5060016006818180549050039150816132379190615068565b505050565b6000809054906101000a900473ffffffffffffffffffffffffffffffffffffffff1681565b6000600460008373ffffffffffffffffffffffffffffffffffffffff1673ffffffffffffffffffffffffffffffffffffffff16815260200190815260200160002060009054906101000a900473ffffffffffffffffffffffffffffffffffffffff169050919050565b6000809054906101000a900473ffffffffffffffffffffffffffffffffffffffff1673ffffffffffffffffffffffffffffffffffffffff163373ffffffffffffffffffffffffffffffffffffffff16148061332a575061332933611fd0565b5b15156133c4576040517f08c379a000000000000000000000000000000000000000000000000000000000815260040180806020018281038252602c8152602001807f4f6e6c792061646d696e206163636f756e74732063616e20706572666f726d2081526020017f7468697320616374696f6e2e000000000000000000000000000000000000000081525060400191505060405180910390fd5b806000806133d183614ab4565b915091506060821561368457600060048111156133ea57fe5b8260048111156133f657fe5b1415613439576040805190810160405280600581526020017f6f776e6572000000000000000000000000000000000000000000000000000000815250905061354c565b6001600481111561344657fe5b82600481111561345257fe5b1415613495576040805190810160405280600581526020017f61646d696e000000000000000000000000000000000000000000000000000000815250905061354b565b600260048111156134a257fe5b8260048111156134ae57fe5b14156134f1576040805190810160405280600781526020017f6761746577617900000000000000000000000000000000000000000000000000815250905061354a565b600360048111156134fe57fe5b82600481111561350a57fe5b1415613549576040805190810160405280600481526020017f6e6f64650000000000000000000000000000000000000000000000000000000081525090505b5b5b5b6135e36040805190810160405280601c81526020017f4163636f756e7420616c72656164792061737369676e65642061732000000000815250826040805190810160405280600181526020017f2e0000000000000000000000000000000000000000000000000000000000000081525060206040519081016040528060008152506020604051908101604052806000815250614b86565b6040517f08c379a00000000000000000000000000000000000000000000000000000000081526004018080602001828103825283818151815260200191508051906020019080838360005b8381101561364957808201518184015260208101905061362e565b50505050905090810190601f1680156136765780820380516001836020036101000a031916815260200191505b509250505060405180910390fd5b61368c61519f565b60806040519081016040528089815260200188815260200160006040519080825280602002602001820160405280156136d45781602001602082028038833980820191505090505b50815260200160011515815250905060068690806001815401808255809150509060018203906000526020600020016000909192909190916101000a81548173ffffffffffffffffffffffffffffffffffffffff021916908373ffffffffffffffffffffffffffffffffffffffff1602179055505080600160008873ffffffffffffffffffffffffffffffffffffffff1673ffffffffffffffffffffffffffffffffffffffff16815260200190815260200160002060008201518160000190805190602001906137a5929190614fe8565b5060208201518160010190805190602001906137c2929190614fe8565b5060408201518160020190805190602001906137df9291906151ca565b5060608201518160030160006101000a81548160ff0219169083151502179055509050505050505050505050565b606080600360008473ffffffffffffffffffffffffffffffffffffffff1673ffffffffffffffffffffffffffffffffffffffff168152602001908152602001600020600201805480602002602001604051908101604052809291908181526020016000905b8282101561392e578382906000526020600020018054600181600116156101000203166002900480601f01602080910402602001604051908101604052809291908181526020018280546001816001161561010002031660029004801561391a5780601f106138ef5761010080835404028352916020019161391a565b820191906000526020600020905b8154815290600101906020018083116138fd57829003601f168201915b505050505081526020019060010190613872565b50505050905060606020604051908101604052806000815250905060008090505b8251811015613a3b576139ac82848381518110151561396a57fe5b90602001906020020151602060405190810160405280600081525060206040519081016040528060008152506020604051908101604052806000815250614b86565b9150600183510381141515613a3057613a2d826040805190810160405280600181526020017f3b00000000000000000000000000000000000000000000000000000000000000815250602060405190810160405280600081525060206040519081016040528060008152506020604051908101604052806000815250614b86565b91505b60018101905061394f565b508092505050919050565b60046020528060005260406000206000915054906101000a900473ffffffffffffffffffffffffffffffffffffffff1681565b6000809054906101000a900473ffffffffffffffffffffffffffffffffffffffff1673ffffffffffffffffffffffffffffffffffffffff163373ffffffffffffffffffffffffffffffffffffffff161480613ad95750613ad833611fd0565b5b1515613b73576040517f08c379a000000000000000000000000000000000000000000000000000000000815260040180806020018281038252602c8152602001807f4f6e6c792061646d696e206163636f756e74732063616e20706572666f726d2081526020017f7468697320616374696f6e2e000000000000000000000000000000000000000081525060400191505060405180910390fd5b600360008273ffffffffffffffffffffffffffffffffffffffff1673ffffffffffffffffffffffffffffffffffffffff16815260200190815260200160002060030160009054906101000a900460ff161515613c83576040517f08c379a00000000000000000000000000000000000000000000000000000000081526004018080602001828103825260418152602001807f54686520676976656e20616464726573732069736e27742061206e6f6465206181526020017f646472657373206f72206e6f646520697320616c72656164792072656d6f766581526020017f640000000000000000000000000000000000000000000000000000000000000081525060600191505060405180910390fd5b613c8b615094565b600360008373ffffffffffffffffffffffffffffffffffffffff1673ffffffffffffffffffffffffffffffffffffffff16815260200190815260200160002060806040519081016040529081600082018054600181600116156101000203166002900480601f016020809104026020016040519081016040528092919081815260200182805460018160011615610100020316600290048015613d6f5780601f10613d4457610100808354040283529160200191613d6f565b820191906000526020600020905b815481529060010190602001808311613d5257829003601f168201915b50505050508152602001600182018054600181600116156101000203166002900480601f016020809104026020016040519081016040528092919081815260200182805460018160011615610100020316600290048015613e115780601f10613de657610100808354040283529160200191613e11565b820191906000526020600020905b815481529060010190602001808311613df457829003601f168201915b5050505050815260200160028201805480602002602001604051908101604052809291908181526020016000905b82821015613efb578382906000526020600020018054600181600116156101000203166002900480601f016020809104026020016040519081016040528092919081815260200182805460018160011615610100020316600290048015613ee75780601f10613ebc57610100808354040283529160200191613ee7565b820191906000526020600020905b815481529060010190602001808311613eca57829003601f168201915b505050505081526020019060010190613e3f565b5050505081526020016003820160009054906101000a900460ff1615151515815250509050600081606001901515908115158152505060008090505b6007805490508110156140655760008373ffffffffffffffffffffffffffffffffffffffff16600783815481101515613f6c57fe5b9060005260206000200160009054906101000a900473ffffffffffffffffffffffffffffffffffffffff1673ffffffffffffffffffffffffffffffffffffffff161415613fbb57819050614059565b8082111561405857600760018303815481101515613fd557fe5b9060005260206000200160009054906101000a900473ffffffffffffffffffffffffffffffffffffffff1660078381548110151561400f57fe5b9060005260206000200160006101000a81548173ffffffffffffffffffffffffffffffffffffffff021916908373ffffffffffffffffffffffffffffffffffffffff1602179055505b5b50600181019050613f37565b50606060016000600460008673ffffffffffffffffffffffffffffffffffffffff1673ffffffffffffffffffffffffffffffffffffffff16815260200190815260200160002060009054906101000a900473ffffffffffffffffffffffffffffffffffffffff1673ffffffffffffffffffffffffffffffffffffffff1673ffffffffffffffffffffffffffffffffffffffff16815260200190815260200160002060020180548060200260200160405190810160405280929190818152602001828054801561418957602002820191906000526020600020905b8160009054906101000a900473ffffffffffffffffffffffffffffffffffffffff1673ffffffffffffffffffffffffffffffffffffffff168152602001906001019080831161413f575b5050505050905060008090505b815181101561426f5760008473ffffffffffffffffffffffffffffffffffffffff1683838151811015156141c657fe5b9060200190602002015173ffffffffffffffffffffffffffffffffffffffff1614156141f457819050614263565b8082111561426257826001830381518110151561420d57fe5b90602001906020020151838381518110151561422557fe5b9060200190602002019073ffffffffffffffffffffffffffffffffffffffff16908173ffffffffffffffffffffffffffffffffffffffff16815250505b5b50600181019050614196565b50505050565b6001602052806000526040600020600091509050806000018054600181600116156101000203166002900480601f0160208091040260200160405190810160405280929190818152602001828054600181600116156101000203166002900480156143215780601f106142f657610100808354040283529160200191614321565b820191906000526020600020905b81548152906001019060200180831161430457829003601f168201915b505050505090806001018054600181600116156101000203166002900480601f0160208091040260200160405190810160405280929190818152602001828054600181600116156101000203166002900480156143bf5780601f10614394576101008083540402835291602001916143bf565b820191906000526020600020905b8154815290600101906020018083116143a257829003601f168201915b5050505050908060030160009054906101000a900460ff16905083565b6000600160008373ffffffffffffffffffffffffffffffffffffffff1673ffffffffffffffffffffffffffffffffffffffff16815260200190815260200160002060030160009054906101000a900460ff169050919050565b606060078054806020026020016040519081016040528092919081815260200182805480156144b957602002820191906000526020600020905b8160009054906101000a900473ffffffffffffffffffffffffffffffffffffffff1673ffffffffffffffffffffffffffffffffffffffff168152602001906001019080831161446f575b5050505050905090565b600080600090505b600780549050811015614810576144e0615094565b600360006007848154811015156144f357fe5b9060005260206000200160009054906101000a900473ffffffffffffffffffffffffffffffffffffffff1673ffffffffffffffffffffffffffffffffffffffff1673ffffffffffffffffffffffffffffffffffffffff16815260200190815260200160002060806040519081016040529081600082018054600181600116156101000203166002900480601f0160208091040260200160405190810160405280929190818152602001828054600181600116156101000203166002900480156145fd5780601f106145d2576101008083540402835291602001916145fd565b820191906000526020600020905b8154815290600101906020018083116145e057829003601f168201915b50505050508152602001600182018054600181600116156101000203166002900480601f01602080910402602001604051908101604052809291908181526020018280546001816001161561010002031660029004801561469f5780601f106146745761010080835404028352916020019161469f565b820191906000526020600020905b81548152906001019060200180831161468257829003601f168201915b5050505050815260200160028201805480602002602001604051908101604052809291908181526020016000905b82821015614789578382906000526020600020018054600181600116156101000203166002900480601f0160208091040260200160405190810160405280929190818152602001828054600181600116156101000203166002900480156147755780601f1061474a57610100808354040283529160200191614775565b820191906000526020600020905b81548152906001019060200180831161475857829003601f168201915b5050505050815260200190600101906146cd565b5050505081526020016003820160009054906101000a900460ff16151515158152505090506147bc816020015185614fa5565b15614804576007828154811015156147d057fe5b9060005260206000200160009054906101000a900473ffffffffffffffffffffffffffffffffffffffff169250505061487f565b506001810190506144cb565b506040517f08c379a00000000000000000000000000000000000000000000000000000000081526004018080602001828103825260168152602001807f4e6f64652061646472657373206e6f7420666f756e640000000000000000000081525060200191505060405180910390fd5b919050565b6002602052806000526040600020600091509050806000018054600181600116156101000203166002900480601f0160208091040260200160405190810160405280929190818152602001828054600181600116156101000203166002900480156149305780601f1061490557610100808354040283529160200191614930565b820191906000526020600020905b81548152906001019060200180831161491357829003601f168201915b5050505050908060010160009054906101000a900460ff16905082565b6003602052806000526040600020600091509050806000018054600181600116156101000203166002900480601f0160208091040260200160405190810160405280929190818152602001828054600181600116156101000203166002900480156149f95780601f106149ce576101008083540402835291602001916149f9565b820191906000526020600020905b8154815290600101906020018083116149dc57829003601f168201915b505050505090806001018054600181600116156101000203166002900480601f016020809104026020016040519081016040528092919081815260200182805460018160011615610100020316600290048015614a975780601f10614a6c57610100808354040283529160200191614a97565b820191906000526020600020905b815481529060010190602001808311614a7a57829003601f168201915b5050505050908060030160009054906101000a900460ff16905083565b6000806000806000809054906101000a900473ffffffffffffffffffffffffffffffffffffffff1673ffffffffffffffffffffffffffffffffffffffff168573ffffffffffffffffffffffffffffffffffffffff161415614b1c576000905060019150614b79565b614b2585611fd0565b15614b37576001905060019150614b78565b614b40856143dc565b15614b52576002905060019150614b77565b614b5b856114c3565b15614b6d576003905060019150614b76565b60049050600091505b5b5b5b8181935093505050915091565b6060808690506060869050606086905060608690506060869050606081518351855187518951010101016040519080825280601f01601f191660200182016040528015614be25781602001600182028038833980820191505090505b5090506060819050600080905060008090505b8851811015614ca8578881815181101515614c0c57fe5b9060200101517f010000000000000000000000000000000000000000000000000000000000000090047f0100000000000000000000000000000000000000000000000000000000000000028383806001019450815181101515614c6b57fe5b9060200101907effffffffffffffffffffffffffffffffffffffffffffffffffffffffffffff1916908160001a9053508080600101915050614bf5565b5060008090505b8751811015614d62578781815181101515614cc657fe5b9060200101517f010000000000000000000000000000000000000000000000000000000000000090047f0100000000000000000000000000000000000000000000000000000000000000028383806001019450815181101515614d2557fe5b9060200101907effffffffffffffffffffffffffffffffffffffffffffffffffffffffffffff1916908160001a9053508080600101915050614caf565b5060008090505b8651811015614e1c578681815181101515614d8057fe5b9060200101517f010000000000000000000000000000000000000000000000000000000000000090047f0100000000000000000000000000000000000000000000000000000000000000028383806001019450815181101515614ddf57fe5b9060200101907effffffffffffffffffffffffffffffffffffffffffffffffffffffffffffff1916908160001a9053508080600101915050614d69565b5060008090505b8551811015614ed6578581815181101515614e3a57fe5b9060200101517f010000000000000000000000000000000000000000000000000000000000000090047f0100000000000000000000000000000000000000000000000000000000000000028383806001019450815181101515614e9957fe5b9060200101907effffffffffffffffffffffffffffffffffffffffffffffffffffffffffffff1916908160001a9053508080600101915050614e23565b5060008090505b8451811015614f90578481815181101515614ef457fe5b9060200101517f010000000000000000000000000000000000000000000000000000000000000090047f0100000000000000000000000000000000000000000000000000000000000000028383806001019450815181101515614f5357fe5b9060200101907effffffffffffffffffffffffffffffffffffffffffffffffffffffffffffff1916908160001a9053508080600101915050614edd565b50819850505050505050505095945050505050565b60006060839050606083905080805190602001208280519060200120149250505092915050565b6040805190810160405280606081526020016000151581525090565b828054600181600116156101000203166002900490600052602060002090601f016020900481019282601f1061502957805160ff1916838001178555615057565b82800160010185558215615057579182015b8281111561505657825182559160200191906001019061503b565b5b5090506150649190615254565b5090565b81548183558181111561508f5781836000526020600020918201910161508e9190615254565b5b505050565b6080604051908101604052806060815260200160608152602001606081526020016000151581525090565b82805482825590600052602060002090810192821561510e579160200282015b8281111561510d5782518290805190602001906150fd929190614fe8565b50916020019190600101906150df565b5b50905061511b9190615279565b5090565b828054600181600116156101000203166002900490600052602060002090601f016020900481019282601f1061516057805160ff191683800117855561518e565b8280016001018555821561518e579182015b8281111561518d578251825591602001919060010190615172565b5b50905061519b9190615254565b5090565b6080604051908101604052806060815260200160608152602001606081526020016000151581525090565b828054828255906000526020600020908101928215615243579160200282015b828111156152425782518260006101000a81548173ffffffffffffffffffffffffffffffffffffffff021916908373ffffffffffffffffffffffffffffffffffffffff160217905550916020019190600101906151ea565b5b50905061525091906152a5565b5090565b61527691905b8082111561527257600081600090555060010161525a565b5090565b90565b6152a291905b8082111561529e576000818161529591906152e8565b5060010161527f565b5090565b90565b6152e591905b808211156152e157600081816101000a81549073ffffffffffffffffffffffffffffffffffffffff0219169055506001016152ab565b5090565b90565b50805460018160011615610100020316600290046000825580601f1061530e575061532d565b601f01602090049060005260206000209081019061532c9190615254565b5b5056fea165627a7a72305820256e29356431b996af82279ff4ebd130095228d172ca98e90206504961d304db0029",
  "source": "pragma solidity ^0.5.0;\r\n\r\n/**\r\n * This contract allows the user to manage the different LoRa gateways, nodes and data sent by hem\r\n */\r\ncontract GatewayManager {\r\n    address public owner;\r\n     \r\n    \r\n    constructor() payable public {\r\n        owner = msg.sender;\r\n    }\r\n\r\n    struct Gateway {\r\n        string name;\r\n        string gatewayEUI; //unique identifier\r\n        address[] nodes;\r\n        bool registered;\r\n    }\r\n    \r\n    struct Node {\r\n        string id;\r\n        string devEUI; //unique identifier\r\n        \r\n        //Array of strings in format \"%timestamp%, %GPS coordinates%, %batteryLevel%\"\r\n        // %location% = \"(Latitude, Longitude, Altitude)\"\r\n        string[] locationHistory;\r\n        bool registered;\r\n    }\r\n    \r\n    struct Admin {\r\n        string name;\r\n        bool authorized;\r\n    }\r\n    \r\n    mapping(address => Gateway) public gatewayMapping; //Maps a gateway address to its Gateway object instance\r\n    mapping(address => Admin) public adminMapping; //Maps an admin address to its Admin object instance\r\n    mapping(address => Node) public nodeMapping; //Maps a node address to a Node object instance\r\n    mapping(address => address) public nodeGatewayMapping; //Maps a node address to its associated gateway address\r\n    \r\n    address[] public admins;\r\n    address[] public gateways;\r\n    address[] public nodes; //Note: Every node (LoRa emitter) will have an address to identifiy them, even if the account isn't used\r\n    \r\n    enum AccountHolder {\r\n        OWNER,\r\n        ADMIN,\r\n        GATEWAY,\r\n        NODE,\r\n        NULL\r\n    }\r\n\r\n    \r\n    event AdminAdded(string name, address addr);\r\n    /*\r\n    event AdminRemoved(string name, address addr);\r\n    \r\n    event GatewayAdded(string name, string gatewayEUI, address addr);\r\n    event GatewayRemoved(string name, string gatewayEUI, address addr);\r\n    \r\n    event NodeAdded(string name, string devEUI, address nodeAddr, address gatewayAddr);\r\n    event NodeRemoved(string name, string devEUI, address nodeAddr, address gatewayAddr);\r\n    \r\n    event LocationDataAdded(address nodeAddr, string data);\r\n    */\r\n\r\n    modifier adminAction() {\r\n        require(msg.sender == owner || isAdmin(msg.sender), \"Only admin accounts can perform this action.\");\r\n        _;\r\n    }\r\n    \r\n    modifier gatewayAction() {\r\n        require(isGateway(msg.sender), \"Only gateway accounts can perform this action.\");\r\n        _;\r\n    }\r\n    \r\n        //the given address shouldn't correspond to any object in this contract (Admin, Gateway, Node or owner);\r\n    modifier notAssigned(address _addr) {\r\n        (bool b, AccountHolder who) = isAssigned(_addr);\r\n        string memory s;\r\n        \r\n        if (b) {\r\n            if(who == AccountHolder.OWNER) {\r\n                s = \"owner\";\r\n            } else if(who == AccountHolder.ADMIN) {\r\n                s = \"admin\";\r\n            } else if(who == AccountHolder.GATEWAY) {\r\n                s = \"gateway\";\r\n            } else if(who == AccountHolder.NODE) {\r\n                s = \"node\";\r\n            }\r\n            revert(strConcat(\"Account already assigned as \", s, \".\", \"\", \"\"));\r\n        }\r\n        _;\r\n    }\r\n\r\n    /*function getAdminInfo(address _addr) public view returns (string memory name) {\r\n        Admin memory a = adminMapping[_addr];\r\n        \r\n        if(!a.authorized) {\r\n            revert(\"The given address is not an admin address or account is not yet authorized\");\r\n        }\r\n        \r\n        return (a.name);\r\n    }    \r\n    \r\n    function getGatewayInfo(address _addr) public view returns(string memory name, string memory gatewayEUI) {\r\n        Gateway memory g = gatewayMapping[_addr];\r\n        if (!g.registered) {\r\n            revert(\"The given address is not a gateway address or gateway is not yet registered\");\r\n        }\r\n        return (g.name, g.gatewayEUI);\r\n    }\r\n    \r\n    function getNodeInfo(address _addr) public view returns(string memory name, string memory devEUI, address gatewayAddr) {\r\n        Node memory n = nodeMapping[_addr];\r\n        if(!n.registered) {\r\n            revert(\"The given address is not a node address or node is not yet registered\");\r\n        }\r\n        \r\n        return (n.id, n.devEUI, nodeGatewayMapping[_addr]);\r\n    }*/\r\n    \r\n    function isAdmin(address _addr) public view returns (bool) {\r\n        return adminMapping[_addr].authorized;\r\n    }\r\n    \r\n    function isGateway(address _addr) public view returns(bool) {\r\n        return gatewayMapping[_addr].registered;\r\n    }\r\n    \r\n    function isNode(address _addr) public view returns(bool) {\r\n        return nodeMapping[_addr].registered;\r\n    }\r\n        \r\n    function isAssigned(address _addr) internal view returns(bool, AccountHolder) {\r\n        bool b;\r\n        AccountHolder who;\r\n        \r\n        if(_addr == owner) {\r\n            who = AccountHolder.OWNER;\r\n            b = true;\r\n        } else if(isAdmin(_addr)) {\r\n            who = AccountHolder.ADMIN;\r\n            b = true;\r\n        } else if(isGateway(_addr)) {\r\n            who = AccountHolder.GATEWAY;\r\n            b = true;\r\n        } else if(isNode(_addr)) {\r\n            who = AccountHolder.NODE;\r\n            b  = true;\r\n        } else {\r\n            who = AccountHolder.NULL;\r\n            b = false;\r\n        }\r\n        \r\n        return (b, who);\r\n    }\r\n    \r\n    /**\r\n     * Returns the address of the gateway associated to this node\r\n     */\r\n    function getAssociatedGateway(address _nodeAddr) public view returns(address) {\r\n        return nodeGatewayMapping[_nodeAddr];\r\n    }\r\n    \r\n    /**\r\n     * Returns a list of all associated nodes addresses\r\n     */\r\n    function getAssociatedNodes(address _gatewayAddr) public view returns(address[] memory) {\r\n        //Checks if the given address is a gateway address\r\n        require(isGateway(_gatewayAddr), \"Address given is not a gateway address or the gateway is not yet registered\");\r\n        return gatewayMapping[_gatewayAddr].nodes;\r\n    }\r\n\r\n    function getAllGatewayAddresses() public view returns(address[] memory) {\r\n        return gateways;\r\n    }\r\n    \r\n    function getAllNodeAddresses() public view returns(address[]  memory) {\r\n        return nodes;\r\n    }\r\n\r\n    \r\n    /**\r\n     * Returns a concatenation of all strings in the node's locationHistory[] array, separated by a \";\"\r\n     */\r\n    function getNodeLocationHistory(address _addr) public view returns(string memory packedData) {\r\n        string[] memory l = nodeMapping[_addr].locationHistory;\r\n        string memory res = \"\";\r\n        \r\n        for (uint i = 0; i < l.length; i += 1) {\r\n            res = strConcat(res, l[i], \"\", \"\", \"\");\r\n            \r\n            if(i != l.length-1) {\r\n                res = strConcat(res, \";\", \"\", \"\", \"\");\r\n            }\r\n        }\r\n        \r\n        return res;\r\n    }\r\n    \r\n    function findNodeAddress(string memory _devEUI) public view returns(address) {\r\n        for(uint i = 0; i < nodes.length; i += 1) {\r\n            Node memory n = nodeMapping[nodes[i]];\r\n            if (compareStrings(n.devEUI, _devEUI)) {\r\n                return nodes[i];\r\n            }\r\n        }\r\n        \r\n        revert(\"Node address not found\");\r\n    }\r\n\r\n    function addAdmin(string memory _name, address _addr) public adminAction notAssigned(_addr) {\r\n        Admin memory a = Admin({name: _name, authorized: true});\r\n        admins.push(_addr);\r\n        adminMapping[_addr] = a;\r\n\r\n        emit AdminAdded(_name, _addr);\r\n    }\r\n    \r\n    function registerGateway(string memory _name, string memory _gatewayEUI, address _addr) public adminAction notAssigned(_addr) {\r\n        Gateway memory g = Gateway({name: _name, gatewayEUI: _gatewayEUI, registered: true, nodes: new address[](0)});\r\n        gateways.push(_addr);\r\n        gatewayMapping[_addr] = g;\r\n        \r\n        //emit GatewayAdded(_name, _gatewayEUI, _addr);\r\n    }\r\n    \r\n    function registerNode( string memory _id, string memory _devEUI, address _nodeAddr, address _gatewayAddr) public adminAction\r\n    notAssigned(_nodeAddr) {\r\n        //Check if gateway exists\r\n        require(isGateway(_gatewayAddr), \"The address given is not a gateway address or the gateway is not yet registered\");\r\n        \r\n        Node memory n = Node({id: _id, devEUI: _devEUI, registered: true, locationHistory: new string[](0)});\r\n        //Map node address to its object\r\n        nodeMapping[_nodeAddr] = n;\r\n        //Maps node address to its associated gateway\r\n        nodeGatewayMapping[_nodeAddr] = _gatewayAddr;\r\n        //Pushes node address to nodes array, representng all nodes managed by this contract\r\n        nodes.push(_nodeAddr);\r\n        //Pushes node's address to the given gateway's nodes list, representing all gateway's associated nodes\r\n        gatewayMapping[_gatewayAddr].nodes.push(_nodeAddr);\r\n        \r\n        //emit NodeAdded(_id, _devEUI, _nodeAddr, _gatewayAddr);\r\n    }\r\n    \r\n    function removeAdmin(address _addr) public adminAction {\r\n        //Check if account is admin\r\n        require(isAdmin(_addr), \"The given address isn't an admin account or admin already removed.\");\r\n\r\n        Admin memory a = adminMapping[_addr];\r\n        a.authorized = false;\r\n\r\n        admins.push(_addr);\r\n        \r\n        //remove admin's address from \"admins\" array\r\n        for(uint i = 0; i < admins.length; i += 1) {\r\n            uint index;\r\n            if (admins[i] == _addr) {\r\n                index = i;\r\n            } else if (i > index) {\r\n                admins[i] = admins[i-1];\r\n            }\r\n        }\r\n        \r\n        admins.length -= 1;\r\n\r\n        //emit AdminRemoved(a.name, _addr);\r\n    }\r\n    \r\n    function removeGateway(address _addr) public adminAction {\r\n        //Check if gateway exists\r\n        require(gatewayMapping[_addr].registered, \"The given address isn't a gateway address or gateway is already removed\");\r\n        //Change ggateway \"registered\" to false\r\n        Gateway memory g = gatewayMapping[_addr];\r\n        g.registered = false;\r\n        \r\n        //remove gateway's address from \"gateways\" list\r\n        for(uint i = 0; i < gateways.length; i += 1) {\r\n            uint index; \r\n            if (gateways[i] == _addr) {\r\n                index = i;\r\n            } else if (i > index) {\r\n                gateways[i] = gateways[i-1];\r\n            }\r\n        }\r\n        \r\n        gateways.length -= 1;\r\n        \r\n        //emit GatewayRemoved(g.name, g.gatewayEUI, _addr);\r\n    }\r\n    \r\n    function removeNode(address _nodeAddr) public adminAction {\r\n        //Check if node exists\r\n        require(nodeMapping[_nodeAddr].registered, \"The given address isn't a node address or node is already removed\");\r\n        //Change node \"registered\" to false\r\n        Node memory n = nodeMapping[_nodeAddr];\r\n        n.registered = false;\r\n        \r\n        //Remove node's address from \"nodes\" list\r\n        for(uint i = 0; i < nodes.length; i += 1) {\r\n            uint index;\r\n            if (nodes[i] == _nodeAddr) {\r\n                index = i;\r\n            } else if (i > index) {\r\n                nodes[i] = nodes[i-1];\r\n            }\r\n        }\r\n        \r\n        //Remove node from associated gateway's \"nodes\" list\r\n        address[] memory _nodes = gatewayMapping[nodeGatewayMapping[_nodeAddr]].nodes;\r\n        for(uint i = 0; i < _nodes.length; i += 1) {\r\n            uint index;\r\n            \r\n            if (_nodes[i] == _nodeAddr) {\r\n                index = i;\r\n            } else if (i > index) {\r\n                _nodes[i] = _nodes[i-1];\r\n            }\r\n        }\r\n        \r\n        //emit NodeRemoved(n.id, n.devEUI, _nodeAddr, nodeGatewayMapping[_nodeAddr]);\r\n    }\r\n    \r\n    function setNodeLocationData(string memory devEUI, string memory timestamp, string memory latitude, string memory longitude, string memory altitude, string memory batteryLevel) public gatewayAction {\r\n        address _nodeAddr = findNodeAddress(devEUI);\r\n        string memory coordinates = strConcat(\"(\", latitude, \", \", longitude, \", \");\r\n        coordinates = strConcat(coordinates, altitude, \")\", \"\", \"\");\r\n        string memory res = strConcat(timestamp, \", \", coordinates, \",\", batteryLevel);\r\n        \r\n        nodeMapping[_nodeAddr].locationHistory.push(res);\r\n        \r\n        //emit LocationDataAdded(_nodeAddr, res);\r\n    }\r\n    \r\n    //HELPER//\r\n     /**\r\n     * Helper functions for string concatenation \r\n     * (http://cryptodir.blogspot.com.tr/2016/03/solidity-concat-string.html)\r\n     */\r\n    function strConcat(string memory _a, string memory _b, string memory _c, string memory _d, string memory _e)\r\n    internal pure returns (string memory){\r\n        bytes memory _ba = bytes(_a);\r\n        bytes memory _bb = bytes(_b);\r\n        bytes memory _bc = bytes(_c);\r\n        bytes memory _bd = bytes(_d);\r\n        bytes memory _be = bytes(_e);\r\n        string memory abcde = new string(_ba.length + _bb.length + _bc.length + _bd.length + _be.length);\r\n        bytes memory babcde = bytes(abcde);\r\n        uint k = 0;\r\n        for (uint i = 0; i < _ba.length; i++) babcde[k++] = _ba[i];\r\n        for (uint i = 0; i < _bb.length; i++) babcde[k++] = _bb[i];\r\n        for (uint i = 0; i < _bc.length; i++) babcde[k++] = _bc[i];\r\n        for (uint i = 0; i < _bd.length; i++) babcde[k++] = _bd[i];\r\n        for (uint i = 0; i < _be.length; i++) babcde[k++] = _be[i];\r\n        return string(babcde);\r\n    }\r\n\r\n    /*\r\n    function strConcat(string memory _a, string memory _b, string memory _c, string memory _d)  public pure returns (string memory) {\r\n        return strConcat(_a, _b, _c, _d, \"\");\r\n    }\r\n    \r\n    function strConcat(string memory _a, string memory _b, string memory _c) public pure returns (string memory) {\r\n        return strConcat(_a, _b, _c, \"\", \"\");\r\n    }\r\n    \r\n    function strConcat(string memory _a, string memory _b) public pure returns (string memory) {\r\n        return strConcat(_a, _b, \"\", \"\", \"\");\r\n    }\r\n    */\r\n    \r\n    /**\r\n     * Helper function to compare strings\r\n     */\r\n    function compareStrings(string memory a, string memory b) internal pure returns (bool){\r\n        bytes memory aBytes = bytes(a);\r\n        bytes memory bBytes = bytes(b);\r\n        return keccak256(aBytes) == keccak256(bBytes);\r\n    }\r\n}",
  "sourcePath": "C:/Users/inaci/OneDrive/Documents/_IIFF_Hackathon/_Project/lorawan-blockchain/blockchain/contracts/GatewayManager.sol",
  "compiler": {
    "name": "solc",
    "version": "0.5.0+commit.1d4f565a.Emscripten.clang"
  },
  "schemaVersion": "3.0.1",
  "updatedAt": "2019-02-17T16:32:47.002Z",
  "devdoc": {
    "methods": {}
  },
  "userdoc": {
    "methods": {
      "getAssociatedGateway(address)": {
        "notice": "Returns the address of the gateway associated to this node\r"
      },
      "getAssociatedNodes(address)": {
        "notice": "Returns a list of all associated nodes addresses\r"
      },
      "getNodeLocationHistory(address)": {
        "notice": "Returns a concatenation of all strings in the node's locationHistory[] array, separated by a \";\"\r"
      }
    },
    "notice": "This contract allows the user to manage the different LoRa gateways, nodes and data sent by hem\r"
  }
}